{
  "_format": "hh-sol-artifact-1",
  "contractName": "EggToken",
  "sourceName": "contracts/EggToken.sol",
  "abi": [
    {
      "inputs": [
        {
          "internalType": "uint256",
          "name": "totalEggSply",
          "type": "uint256"
        },
        {
          "internalType": "uint256",
          "name": "totalEpic20EggSply",
          "type": "uint256"
        },
        {
          "internalType": "uint256",
          "name": "totalLegendaryEggSply",
          "type": "uint256"
        },
        {
          "internalType": "uint256",
          "name": "randomLegendaryDragonSply",
          "type": "uint256"
        },
        {
          "internalType": "uint256",
          "name": "randomEpic20DragonSply",
          "type": "uint256"
        },
        {
          "internalType": "uint256",
          "name": "randomCommonDragonSply",
          "type": "uint256"
        },
        {
          "internalType": "uint256",
          "name": "htchTime",
          "type": "uint256"
        },
        {
          "internalType": "string",
          "name": "defaultCid",
          "type": "string"
        },
        {
          "internalType": "address",
          "name": "accessControl",
          "type": "address"
        },
        {
          "internalType": "address",
          "name": "dragonCreator",
          "type": "address"
        }
      ],
      "stateMutability": "nonpayable",
      "type": "constructor"
    },
    {
      "anonymous": false,
      "inputs": [
        {
          "indexed": false,
          "internalType": "string",
          "name": "fieldName",
          "type": "string"
        },
        {
          "indexed": false,
          "internalType": "address",
          "name": "previousAddress",
          "type": "address"
        },
        {
          "indexed": false,
          "internalType": "address",
          "name": "newAddress",
          "type": "address"
        }
      ],
      "name": "AddressChanged",
      "type": "event"
    },
    {
      "anonymous": false,
      "inputs": [
        {
          "indexed": true,
          "internalType": "address",
          "name": "owner",
          "type": "address"
        },
        {
          "indexed": true,
          "internalType": "address",
          "name": "approved",
          "type": "address"
        },
        {
          "indexed": true,
          "internalType": "uint256",
          "name": "tokenId",
          "type": "uint256"
        }
      ],
      "name": "Approval",
      "type": "event"
    },
    {
      "anonymous": false,
      "inputs": [
        {
          "indexed": true,
          "internalType": "address",
          "name": "owner",
          "type": "address"
        },
        {
          "indexed": true,
          "internalType": "address",
          "name": "operator",
          "type": "address"
        },
        {
          "indexed": false,
          "internalType": "bool",
          "name": "approved",
          "type": "bool"
        }
      ],
      "name": "ApprovalForAll",
      "type": "event"
    },
    {
      "anonymous": false,
      "inputs": [
        {
          "indexed": false,
          "internalType": "string",
          "name": "fieldName",
          "type": "string"
        },
        {
          "indexed": false,
          "internalType": "bool",
          "name": "previousValue",
          "type": "bool"
        },
        {
          "indexed": false,
          "internalType": "bool",
          "name": "newValue",
          "type": "bool"
        }
      ],
      "name": "BoolValueChanged",
      "type": "event"
    },
    {
      "anonymous": false,
      "inputs": [
        {
          "indexed": true,
          "internalType": "address",
          "name": "operator",
          "type": "address"
        },
        {
          "indexed": false,
          "internalType": "uint256",
          "name": "eggId",
          "type": "uint256"
        },
        {
          "indexed": false,
          "internalType": "uint256",
          "name": "dragonId",
          "type": "uint256"
        }
      ],
      "name": "EggHatched",
      "type": "event"
    },
    {
      "anonymous": false,
      "inputs": [
        {
          "indexed": true,
          "internalType": "address",
          "name": "from",
          "type": "address"
        },
        {
          "indexed": true,
          "internalType": "address",
          "name": "to",
          "type": "address"
        },
        {
          "indexed": true,
          "internalType": "uint256",
          "name": "tokenId",
          "type": "uint256"
        }
      ],
      "name": "Transfer",
      "type": "event"
    },
    {
      "anonymous": false,
      "inputs": [
        {
          "indexed": false,
          "internalType": "string",
          "name": "fieldName",
          "type": "string"
        },
        {
          "indexed": false,
          "internalType": "uint256",
          "name": "previousValue",
          "type": "uint256"
        },
        {
          "indexed": false,
          "internalType": "uint256",
          "name": "newValue",
          "type": "uint256"
        }
      ],
      "name": "ValueChanged",
      "type": "event"
    },
    {
      "inputs": [],
      "name": "CEO_ROLE",
      "outputs": [
        {
          "internalType": "bytes32",
          "name": "",
          "type": "bytes32"
        }
      ],
      "stateMutability": "view",
      "type": "function"
    },
    {
      "inputs": [],
      "name": "CFO_ROLE",
      "outputs": [
        {
          "internalType": "bytes32",
          "name": "",
          "type": "bytes32"
        }
      ],
      "stateMutability": "view",
      "type": "function"
    },
    {
      "inputs": [],
      "name": "COO_ROLE",
      "outputs": [
        {
          "internalType": "bytes32",
          "name": "",
          "type": "bytes32"
        }
      ],
      "stateMutability": "view",
      "type": "function"
    },
    {
      "inputs": [],
      "name": "accessControlAddress",
      "outputs": [
        {
          "internalType": "address",
          "name": "",
          "type": "address"
        }
      ],
      "stateMutability": "view",
      "type": "function"
    },
    {
      "inputs": [
        {
          "internalType": "address",
          "name": "to",
          "type": "address"
        },
        {
          "internalType": "uint256",
          "name": "tokenId",
          "type": "uint256"
        }
      ],
      "name": "approve",
      "outputs": [],
      "stateMutability": "nonpayable",
      "type": "function"
    },
    {
      "inputs": [
        {
          "internalType": "address",
          "name": "spender",
          "type": "address"
        },
        {
          "internalType": "uint256",
          "name": "tokenId",
          "type": "uint256"
        },
        {
          "internalType": "bytes",
          "name": "extraData",
          "type": "bytes"
        }
      ],
      "name": "approveAndCall",
      "outputs": [
        {
          "internalType": "bool",
          "name": "success",
          "type": "bool"
        }
      ],
      "stateMutability": "nonpayable",
      "type": "function"
    },
    {
      "inputs": [
        {
          "internalType": "address",
          "name": "owner",
          "type": "address"
        }
      ],
      "name": "balanceOf",
      "outputs": [
        {
          "internalType": "uint256",
          "name": "",
          "type": "uint256"
        }
      ],
      "stateMutability": "view",
      "type": "function"
    },
    {
      "inputs": [
        {
          "internalType": "uint256",
          "name": "tokenId",
          "type": "uint256"
        }
      ],
      "name": "canHatch",
      "outputs": [
        {
          "internalType": "bool",
          "name": "",
          "type": "bool"
        }
      ],
      "stateMutability": "view",
      "type": "function"
    },
    {
      "inputs": [
        {
          "internalType": "enum DragonInfo.Types",
          "name": "drgType",
          "type": "uint8"
        }
      ],
      "name": "currentEggCount",
      "outputs": [
        {
          "internalType": "uint256",
          "name": "",
          "type": "uint256"
        }
      ],
      "stateMutability": "view",
      "type": "function"
    },
    {
      "inputs": [],
      "name": "defaultMetadataCid",
      "outputs": [
        {
          "internalType": "string",
          "name": "",
          "type": "string"
        }
      ],
      "stateMutability": "view",
      "type": "function"
    },
    {
      "inputs": [],
      "name": "dragonCreatorAddress",
      "outputs": [
        {
          "internalType": "address",
          "name": "",
          "type": "address"
        }
      ],
      "stateMutability": "view",
      "type": "function"
    },
    {
      "inputs": [
        {
          "internalType": "uint256",
          "name": "tokenId",
          "type": "uint256"
        }
      ],
      "name": "eggInfo",
      "outputs": [
        {
          "components": [
            {
              "internalType": "uint256",
              "name": "mintedAt",
              "type": "uint256"
            },
            {
              "internalType": "enum DragonInfo.Types",
              "name": "dragonType",
              "type": "uint8"
            },
            {
              "internalType": "uint256",
              "name": "hatchedAt",
              "type": "uint256"
            },
            {
              "internalType": "uint256",
              "name": "dragonId",
              "type": "uint256"
            }
          ],
          "internalType": "struct EggInfo.Details",
          "name": "",
          "type": "tuple"
        }
      ],
      "stateMutability": "view",
      "type": "function"
    },
    {
      "inputs": [],
      "name": "eggMarketAddress",
      "outputs": [
        {
          "internalType": "address",
          "name": "",
          "type": "address"
        }
      ],
      "stateMutability": "view",
      "type": "function"
    },
    {
      "inputs": [
        {
          "internalType": "uint256",
          "name": "tokenId",
          "type": "uint256"
        }
      ],
      "name": "getApproved",
      "outputs": [
        {
          "internalType": "address",
          "name": "",
          "type": "address"
        }
      ],
      "stateMutability": "view",
      "type": "function"
    },
    {
      "inputs": [
        {
          "internalType": "uint256",
          "name": "tokenId",
          "type": "uint256"
        }
      ],
      "name": "hasMetadataCids",
      "outputs": [
        {
          "internalType": "bool",
          "name": "",
          "type": "bool"
        }
      ],
      "stateMutability": "view",
      "type": "function"
    },
    {
      "inputs": [
        {
          "internalType": "bytes32",
          "name": "role",
          "type": "bytes32"
        },
        {
          "internalType": "address",
          "name": "account",
          "type": "address"
        }
      ],
      "name": "hasRole",
      "outputs": [
        {
          "internalType": "bool",
          "name": "",
          "type": "bool"
        }
      ],
      "stateMutability": "view",
      "type": "function"
    },
    {
      "inputs": [
        {
          "internalType": "uint256",
          "name": "tokenId",
          "type": "uint256"
        }
      ],
      "name": "hatch",
      "outputs": [],
      "stateMutability": "nonpayable",
      "type": "function"
    },
    {
      "inputs": [],
      "name": "hatchTime",
      "outputs": [
        {
          "internalType": "uint256",
          "name": "",
          "type": "uint256"
        }
      ],
      "stateMutability": "view",
      "type": "function"
    },
    {
      "inputs": [
        {
          "internalType": "address",
          "name": "owner",
          "type": "address"
        },
        {
          "internalType": "address",
          "name": "operator",
          "type": "address"
        }
      ],
      "name": "isApprovedForAll",
      "outputs": [
        {
          "internalType": "bool",
          "name": "",
          "type": "bool"
        }
      ],
      "stateMutability": "view",
      "type": "function"
    },
    {
      "inputs": [
        {
          "internalType": "uint256",
          "name": "tokenId",
          "type": "uint256"
        }
      ],
      "name": "isHatched",
      "outputs": [
        {
          "internalType": "bool",
          "name": "",
          "type": "bool"
        }
      ],
      "stateMutability": "view",
      "type": "function"
    },
    {
      "inputs": [
        {
          "internalType": "address",
          "name": "to",
          "type": "address"
        },
        {
          "internalType": "enum DragonInfo.Types",
          "name": "_dragonType",
          "type": "uint8"
        }
      ],
      "name": "mint",
      "outputs": [
        {
          "internalType": "uint256",
          "name": "",
          "type": "uint256"
        }
      ],
      "stateMutability": "nonpayable",
      "type": "function"
    },
    {
      "inputs": [],
      "name": "name",
      "outputs": [
        {
          "internalType": "string",
          "name": "",
          "type": "string"
        }
      ],
      "stateMutability": "view",
      "type": "function"
    },
    {
      "inputs": [
        {
          "internalType": "uint256",
          "name": "tokenId",
          "type": "uint256"
        }
      ],
      "name": "ownerOf",
      "outputs": [
        {
          "internalType": "address",
          "name": "",
          "type": "address"
        }
      ],
      "stateMutability": "view",
      "type": "function"
    },
    {
      "inputs": [
        {
          "internalType": "enum DragonInfo.Types",
          "name": "drgType",
          "type": "uint8"
        }
      ],
      "name": "randomDragonSupply",
      "outputs": [
        {
          "internalType": "uint256",
          "name": "",
          "type": "uint256"
        }
      ],
      "stateMutability": "view",
      "type": "function"
    },
    {
      "inputs": [
        {
          "internalType": "address",
          "name": "from",
          "type": "address"
        },
        {
          "internalType": "address",
          "name": "to",
          "type": "address"
        },
        {
          "internalType": "uint256",
          "name": "tokenId",
          "type": "uint256"
        }
      ],
      "name": "safeTransferFrom",
      "outputs": [],
      "stateMutability": "nonpayable",
      "type": "function"
    },
    {
      "inputs": [
        {
          "internalType": "address",
          "name": "from",
          "type": "address"
        },
        {
          "internalType": "address",
          "name": "to",
          "type": "address"
        },
        {
          "internalType": "uint256",
          "name": "tokenId",
          "type": "uint256"
        },
        {
          "internalType": "bytes",
          "name": "_data",
          "type": "bytes"
        }
      ],
      "name": "safeTransferFrom",
      "outputs": [],
      "stateMutability": "nonpayable",
      "type": "function"
    },
    {
      "inputs": [
        {
          "internalType": "address",
          "name": "newAddress",
          "type": "address"
        }
      ],
      "name": "setAccessControlAddress",
      "outputs": [],
      "stateMutability": "nonpayable",
      "type": "function"
    },
    {
      "inputs": [
        {
          "internalType": "address",
          "name": "operator",
          "type": "address"
        },
        {
          "internalType": "bool",
          "name": "approved",
          "type": "bool"
        }
      ],
      "name": "setApprovalForAll",
      "outputs": [],
      "stateMutability": "nonpayable",
      "type": "function"
    },
    {
      "inputs": [
        {
          "internalType": "string",
          "name": "newDefaultCid",
          "type": "string"
        }
      ],
      "name": "setDefaultMetadataCid",
      "outputs": [],
      "stateMutability": "nonpayable",
      "type": "function"
    },
    {
      "inputs": [
        {
          "internalType": "address",
          "name": "newAddress",
          "type": "address"
        }
      ],
      "name": "setDragonCreatorAddress",
      "outputs": [],
      "stateMutability": "nonpayable",
      "type": "function"
    },
    {
      "inputs": [
        {
          "internalType": "address",
          "name": "newAddress",
          "type": "address"
        }
      ],
      "name": "setEggMarketAddress",
      "outputs": [],
      "stateMutability": "nonpayable",
      "type": "function"
    },
    {
      "inputs": [
        {
          "internalType": "uint256",
          "name": "newValue",
          "type": "uint256"
        }
      ],
      "name": "setHatchTime",
      "outputs": [],
      "stateMutability": "nonpayable",
      "type": "function"
    },
    {
      "inputs": [
        {
          "internalType": "uint256",
          "name": "tokenId",
          "type": "uint256"
        },
        {
          "internalType": "string",
          "name": "cid",
          "type": "string"
        },
        {
          "internalType": "string",
          "name": "hatchCid",
          "type": "string"
        }
      ],
      "name": "setMetadataCids",
      "outputs": [],
      "stateMutability": "nonpayable",
      "type": "function"
    },
    {
      "inputs": [
        {
          "internalType": "bytes4",
          "name": "interfaceId",
          "type": "bytes4"
        }
      ],
      "name": "supportsInterface",
      "outputs": [
        {
          "internalType": "bool",
          "name": "",
          "type": "bool"
        }
      ],
      "stateMutability": "view",
      "type": "function"
    },
    {
      "inputs": [],
      "name": "symbol",
      "outputs": [
        {
          "internalType": "string",
          "name": "",
          "type": "string"
        }
      ],
      "stateMutability": "view",
      "type": "function"
    },
    {
      "inputs": [
        {
          "internalType": "uint256",
          "name": "tokenId",
          "type": "uint256"
        }
      ],
      "name": "tokenURI",
      "outputs": [
        {
          "internalType": "string",
          "name": "",
          "type": "string"
        }
      ],
      "stateMutability": "view",
      "type": "function"
    },
    {
      "inputs": [
        {
          "internalType": "enum DragonInfo.Types",
          "name": "drgType",
          "type": "uint8"
        }
      ],
      "name": "totalEggSupply",
      "outputs": [
        {
          "internalType": "uint256",
          "name": "",
          "type": "uint256"
        }
      ],
      "stateMutability": "view",
      "type": "function"
    },
    {
      "inputs": [],
      "name": "totalSupply",
      "outputs": [
        {
          "internalType": "uint256",
          "name": "",
          "type": "uint256"
        }
      ],
      "stateMutability": "view",
      "type": "function"
    },
    {
      "inputs": [
        {
          "internalType": "address",
          "name": "from",
          "type": "address"
        },
        {
          "internalType": "address",
          "name": "to",
          "type": "address"
        },
        {
          "internalType": "uint256",
          "name": "tokenId",
          "type": "uint256"
        }
      ],
      "name": "transferFrom",
      "outputs": [],
      "stateMutability": "nonpayable",
      "type": "function"
    }
  ],
  "bytecode": "0x60806040523480156200001157600080fd5b506040516200624038038062006240833981810160405281019062000037919062000730565b816040518060400160405280601281526020017f43727970746f447261676f6e73204567677300000000000000000000000000008152506040518060400160405280600381526020017f43444500000000000000000000000000000000000000000000000000000000008152508160009080519060200190620000bc929190620005e0565b508060019080519060200190620000d5929190620005e0565b50505080600660006101000a81548173ffffffffffffffffffffffffffffffffffffffff021916908373ffffffffffffffffffffffffffffffffffffffff1602179055505060008587896200012b91906200093b565b6200013791906200093b565b905080898b6200014891906200093b565b6200015491906200093b565b8b1462000198576040517f08c379a00000000000000000000000000000000000000000000000000000000081526004016200018f90620008a1565b60405180910390fd5b8a600e8190555080600c600080600b811115620001de577f4e487b7100000000000000000000000000000000000000000000000000000000600052602160045260246000fd5b600b81111562000217577f4e487b7100000000000000000000000000000000000000000000000000000000600052602160045260246000fd5b81526020019081526020016000208190555089600c60006006600b81111562000269577f4e487b7100000000000000000000000000000000000000000000000000000000600052602160045260246000fd5b600b811115620002a2577f4e487b7100000000000000000000000000000000000000000000000000000000600052602160045260246000fd5b81526020019081526020016000208190555088600c6000600b80811115620002f3577f4e487b7100000000000000000000000000000000000000000000000000000000600052602160045260246000fd5b600b8111156200032c577f4e487b7100000000000000000000000000000000000000000000000000000000600052602160045260246000fd5b81526020019081526020016000208190555087600b6000600b808111156200037d577f4e487b7100000000000000000000000000000000000000000000000000000000600052602160045260246000fd5b600b811115620003b6577f4e487b7100000000000000000000000000000000000000000000000000000000600052602160045260246000fd5b81526020019081526020016000208190555086600b60006006600b81111562000408577f4e487b7100000000000000000000000000000000000000000000000000000000600052602160045260246000fd5b600b81111562000441577f4e487b7100000000000000000000000000000000000000000000000000000000600052602160045260246000fd5b81526020019081526020016000208190555085600b60006001600b81111562000493577f4e487b7100000000000000000000000000000000000000000000000000000000600052602160045260246000fd5b600b811115620004cc577f4e487b7100000000000000000000000000000000000000000000000000000000600052602160045260246000fd5b81526020019081526020016000208190555084600f819055508360129080519060200190620004fd929190620005e0565b5081601060006101000a81548173ffffffffffffffffffffffffffffffffffffffff021916908373ffffffffffffffffffffffffffffffffffffffff160217905550604051806040016040528060008152602001600f815250601360008201518160000155602082015181600101559050506040518060400160405280600f8152602001601481525060156000820151816000015560208201518160010155905050604051806040016040528060148152602001601981525060176000820151816000015560208201518160010155905050505050505050505050505062000b03565b828054620005ee9062000a0c565b90600052602060002090601f0160209004810192826200061257600085556200065e565b82601f106200062d57805160ff19168380011785556200065e565b828001600101855582156200065e579182015b828111156200065d57825182559160200191906001019062000640565b5b5090506200066d919062000671565b5090565b5b808211156200068c57600081600090555060010162000672565b5090565b6000620006a7620006a184620008f7565b620008c3565b905082815260208101848484011115620006c057600080fd5b620006cd848285620009d6565b509392505050565b600081519050620006e68162000acf565b92915050565b600082601f830112620006fe57600080fd5b81516200071084826020860162000690565b91505092915050565b6000815190506200072a8162000ae9565b92915050565b6000806000806000806000806000806101408b8d0312156200075157600080fd5b6000620007618d828e0162000719565b9a50506020620007748d828e0162000719565b9950506040620007878d828e0162000719565b98505060606200079a8d828e0162000719565b9750506080620007ad8d828e0162000719565b96505060a0620007c08d828e0162000719565b95505060c0620007d38d828e0162000719565b94505060e08b015167ffffffffffffffff811115620007f157600080fd5b620007ff8d828e01620006ec565b935050610100620008138d828e01620006d5565b925050610120620008278d828e01620006d5565b9150509295989b9194979a5092959850565b600062000848602c836200092a565b91507f456767546f6b656e3a20696e636f6e73697374656e7420636f6e73747275637460008301527f6f7220617267756d656e747300000000000000000000000000000000000000006020830152604082019050919050565b60006020820190508181036000830152620008bc8162000839565b9050919050565b6000604051905081810181811067ffffffffffffffff82111715620008ed57620008ec62000aa0565b5b8060405250919050565b600067ffffffffffffffff82111562000915576200091462000aa0565b5b601f19601f8301169050602081019050919050565b600082825260208201905092915050565b60006200094882620009cc565b91506200095583620009cc565b9250827fffffffffffffffffffffffffffffffffffffffffffffffffffffffffffffffff038211156200098d576200098c62000a42565b5b828201905092915050565b6000620009a582620009ac565b9050919050565b600073ffffffffffffffffffffffffffffffffffffffff82169050919050565b6000819050919050565b60005b83811015620009f6578082015181840152602081019050620009d9565b8381111562000a06576000848401525b50505050565b6000600282049050600182168062000a2557607f821691505b6020821081141562000a3c5762000a3b62000a71565b5b50919050565b7f4e487b7100000000000000000000000000000000000000000000000000000000600052601160045260246000fd5b7f4e487b7100000000000000000000000000000000000000000000000000000000600052602260045260246000fd5b7f4e487b7100000000000000000000000000000000000000000000000000000000600052604160045260246000fd5b62000ada8162000998565b811462000ae657600080fd5b50565b62000af481620009cc565b811462000b0057600080fd5b50565b61572d8062000b136000396000f3fe608060405234801561001057600080fd5b506004361061023d5760003560e01c8063766650e51161013b578063babcf8fb116100b8578063ced3e3f11161007c578063ced3e3f114610714578063e663654414610744578063e7e7f55014610760578063e8d56b8b14610790578063e985e9c5146107ac5761023d565b8063babcf8fb1461064a578063c71d8bad1461067a578063c87b56dd14610698578063c8c18842146106c8578063cae9ca51146106e45761023d565b8063a22cb465116100ff578063a22cb46514610594578063a7dad011146105b0578063b514be63146105e0578063b540e28e146105fe578063b88d4fde1461062e5761023d565b8063766650e5146104da57806391d14854146104f857806395d89b41146105285780639e98591b146105465780639f6f50ed146105765761023d565b80633acfd44f116101c95780636352211e1161018d5780636352211e146104105780636674137714610440578063691562a01461045e5780636fa9cc291461048e57806370a08231146104aa5761023d565b80633acfd44f1461036c5780633f987ccb1461038a5780633fb1ab6c146103a857806342842e0e146103c45780635149a6cd146103e05761023d565b8063095ea7b311610210578063095ea7b3146102de57806318160ddd146102fa5780631c6b7fbb146103185780631cf586c61461033457806323b872dd146103505761023d565b806301ffc9a71461024257806306fdde0314610272578063081812fc146102905780630837160d146102c0575b600080fd5b61025c60048036038101906102579190613d6b565b6107dc565b6040516102699190614c9f565b60405180910390f35b61027a6108be565b6040516102879190614cfe565b60405180910390f35b6102aa60048036038101906102a59190613e2b565b610950565b6040516102b79190614bea565b60405180910390f35b6102c86109d5565b6040516102d59190614cfe565b60405180910390f35b6102f860048036038101906102f39190613c5e565b610a67565b005b610302610b7f565b60405161030f919061514b565b60405180910390f35b610332600480360381019061032d9190613ab7565b610b89565b005b61034e60048036038101906103499190613de6565b610c61565b005b61036a60048036038101906103659190613b1c565b610caa565b005b610374610d0a565b6040516103819190614cba565b60405180910390f35b610392610d2e565b60405161039f9190614bea565b60405180910390f35b6103c260048036038101906103bd9190613e7d565b610d58565b005b6103de60048036038101906103d99190613b1c565b610e78565b005b6103fa60048036038101906103f59190613e2b565b610e98565b6040516104079190614c9f565b60405180910390f35b61042a60048036038101906104259190613e2b565b610eb7565b6040516104379190614bea565b60405180910390f35b610448610f69565b6040516104559190614bea565b60405180910390f35b61047860048036038101906104739190613c22565b610f93565b604051610485919061514b565b60405180910390f35b6104a860048036038101906104a39190613e2b565b611473565b005b6104c460048036038101906104bf9190613ab7565b6114f1565b6040516104d1919061514b565b60405180910390f35b6104e26115a9565b6040516104ef9190614bea565b60405180910390f35b610512600480360381019061050d9190613d2f565b6115d3565b60405161051f9190614c9f565b60405180910390f35b61053061166f565b60405161053d9190614cfe565b60405180910390f35b610560600480360381019061055b9190613dbd565b611701565b60405161056d919061514b565b60405180910390f35b61057e61178e565b60405161058b9190614cba565b60405180910390f35b6105ae60048036038101906105a99190613be6565b6117b2565b005b6105ca60048036038101906105c59190613e2b565b6117c8565b6040516105d79190615130565b60405180910390f35b6105e861183b565b6040516105f59190614cba565b60405180910390f35b61061860048036038101906106139190613dbd565b61185f565b604051610625919061514b565b60405180910390f35b61064860048036038101906106439190613b6b565b6118ec565b005b610664600480360381019061065f9190613e2b565b61194e565b6040516106719190614c9f565b60405180910390f35b610682611979565b60405161068f919061514b565b60405180910390f35b6106b260048036038101906106ad9190613e2b565b611983565b6040516106bf9190614cfe565b60405180910390f35b6106e260048036038101906106dd9190613e2b565b6119f1565b005b6106fe60048036038101906106f99190613c9a565b611c9f565b60405161070b9190614c9f565b60405180910390f35b61072e60048036038101906107299190613e2b565b611e01565b60405161073b9190614c9f565b60405180910390f35b61075e60048036038101906107599190613ab7565b611e1f565b005b61077a60048036038101906107759190613dbd565b611ef7565b604051610787919061514b565b60405180910390f35b6107aa60048036038101906107a59190613ab7565b611f84565b005b6107c660048036038101906107c19190613ae0565b61205c565b6040516107d39190614c9f565b60405180910390f35b60007f80ac58cd000000000000000000000000000000000000000000000000000000007bffffffffffffffffffffffffffffffffffffffffffffffffffffffff1916827bffffffffffffffffffffffffffffffffffffffffffffffffffffffff191614806108a757507f5b5e139f000000000000000000000000000000000000000000000000000000007bffffffffffffffffffffffffffffffffffffffffffffffffffffffff1916827bffffffffffffffffffffffffffffffffffffffffffffffffffffffff1916145b806108b757506108b6826120f0565b5b9050919050565b6060600080546108cd906154ae565b80601f01602080910402602001604051908101604052809291908181526020018280546108f9906154ae565b80156109465780601f1061091b57610100808354040283529160200191610946565b820191906000526020600020905b81548152906001019060200180831161092957829003601f168201915b5050505050905090565b600061095b8261215a565b61099a576040517f08c379a000000000000000000000000000000000000000000000000000000000815260040161099190615010565b60405180910390fd5b6004600083815260200190815260200160002060009054906101000a900473ffffffffffffffffffffffffffffffffffffffff169050919050565b6060601280546109e4906154ae565b80601f0160208091040260200160405190810160405280929190818152602001828054610a10906154ae565b8015610a5d5780601f10610a3257610100808354040283529160200191610a5d565b820191906000526020600020905b815481529060010190602001808311610a4057829003601f168201915b5050505050905090565b6000610a7282610eb7565b90508073ffffffffffffffffffffffffffffffffffffffff168373ffffffffffffffffffffffffffffffffffffffff161415610ae3576040517f08c379a0000000000000000000000000000000000000000000000000000000008152600401610ada90615090565b60405180910390fd5b8073ffffffffffffffffffffffffffffffffffffffff16610b026121c6565b73ffffffffffffffffffffffffffffffffffffffff161480610b315750610b3081610b2b6121c6565b61205c565b5b610b70576040517f08c379a0000000000000000000000000000000000000000000000000000000008152600401610b6790614f70565b60405180910390fd5b610b7a83836121ce565b505050565b6000600e54905090565b7fdc0d7a095c4e917ecbeb7deda7c942ff9744013d419e37549215a413915e421d610bbb81610bb66121c6565b612287565b6000601060009054906101000a900473ffffffffffffffffffffffffffffffffffffffff16905082601060006101000a81548173ffffffffffffffffffffffffffffffffffffffff021916908373ffffffffffffffffffffffffffffffffffffffff1602179055507f4ca142703425bec1d507d5581fac3a3e61eadcbeafbd7c0a03e2897d96de1cc58184604051610c54929190614d7c565b60405180910390a1505050565b7fefa080c67ecf4a6bf40c9dc64173420c08f359250ca6562d7c80f7c7b9b13969610c9381610c8e6121c6565b612287565b828260129190610ca4929190613775565b50505050565b610cbb610cb56121c6565b82612324565b610cfa576040517f08c379a0000000000000000000000000000000000000000000000000000000008152600401610cf1906150d0565b60405180910390fd5b610d05838383612402565b505050565b7fefa080c67ecf4a6bf40c9dc64173420c08f359250ca6562d7c80f7c7b9b1396981565b6000601160009054906101000a900473ffffffffffffffffffffffffffffffffffffffff16905090565b7fefa080c67ecf4a6bf40c9dc64173420c08f359250ca6562d7c80f7c7b9b13969610d8a81610d856121c6565b612287565b602e8585905010158015610da25750602e8383905010155b610de1576040517f08c379a0000000000000000000000000000000000000000000000000000000008152600401610dd8906150f0565b60405180910390fd5b610dea8661194e565b15610e2a576040517f08c379a0000000000000000000000000000000000000000000000000000000008152600401610e2190614fd0565b60405180910390fd5b8484600960008981526020019081526020016000209190610e4c929190613775565b508282600a60008981526020019081526020016000209190610e6f929190613775565b50505050505050565b610e93838383604051806020016040528060008152506118ec565b505050565b600080610ea4836117c8565b9050610eaf8161265e565b915050919050565b6000806002600084815260200190815260200160002060009054906101000a900473ffffffffffffffffffffffffffffffffffffffff169050600073ffffffffffffffffffffffffffffffffffffffff168173ffffffffffffffffffffffffffffffffffffffff161415610f60576040517f08c379a0000000000000000000000000000000000000000000000000000000008152600401610f5790614fb0565b60405180910390fd5b80915050919050565b6000600660009054906101000a900473ffffffffffffffffffffffffffffffffffffffff16905090565b6000610f9d610b7f565b610fa76007612681565b10610fe7576040517f08c379a0000000000000000000000000000000000000000000000000000000008152600401610fde90614f30565b60405180910390fd5b6110187fdc0d7a095c4e917ecbeb7deda7c942ff9744013d419e37549215a413915e421d6110136121c6565b6115d3565b8061105c5750611026610d2e565b73ffffffffffffffffffffffffffffffffffffffff166110446121c6565b73ffffffffffffffffffffffffffffffffffffffff16145b61109b576040517f08c379a000000000000000000000000000000000000000000000000000000000815260040161109290614f50565b60405180910390fd5b600073ffffffffffffffffffffffffffffffffffffffff168373ffffffffffffffffffffffffffffffffffffffff16141561110b576040517f08c379a000000000000000000000000000000000000000000000000000000000815260040161110290614ed0565b60405180910390fd5b6006600b811115611145577f4e487b7100000000000000000000000000000000000000000000000000000000600052602160045260246000fd5b82600b81111561117e577f4e487b7100000000000000000000000000000000000000000000000000000000600052602160045260246000fd5b14806111f95750600b808111156111be577f4e487b7100000000000000000000000000000000000000000000000000000000600052602160045260246000fd5b82600b8111156111f7577f4e487b7100000000000000000000000000000000000000000000000000000000600052602160045260246000fd5b145b8061127457506000600b811115611239577f4e487b7100000000000000000000000000000000000000000000000000000000600052602160045260246000fd5b82600b811115611272577f4e487b7100000000000000000000000000000000000000000000000000000000600052602160045260246000fd5b145b6112b3576040517f08c379a00000000000000000000000000000000000000000000000000000000081526004016112aa90615110565b60405180910390fd5b6112bc82611701565b6112c583611ef7565b10611305576040517f08c379a00000000000000000000000000000000000000000000000000000000081526004016112fc906150b0565b60405180910390fd5b600d600083600b811115611342577f4e487b7100000000000000000000000000000000000000000000000000000000600052602160045260246000fd5b600b81111561137a577f4e487b7100000000000000000000000000000000000000000000000000000000600052602160045260246000fd5b81526020019081526020016000206000815480929190611399906154e0565b91905055506113a8600761268f565b60006113b46007612681565b90506113c084826126a5565b611423604051806080016040528042815260200185600b81111561140d577f4e487b7100000000000000000000000000000000000000000000000000000000600052602160045260246000fd5b8152602001600081526020016000815250612873565b60086000838152602001908152602001600020819055506114426109d5565b6009600083815260200190815260200160002090805190602001906114689291906137fb565b508091505092915050565b7fefa080c67ecf4a6bf40c9dc64173420c08f359250ca6562d7c80f7c7b9b139696114a5816114a06121c6565b612287565b6000600f54905082600f819055507fe98e5fcd3d43c7e5dd114bafcc428bc7ff8525b014fe3b51fc721ba5671f98fb81846040516114e4929190614d20565b60405180910390a1505050565b60008073ffffffffffffffffffffffffffffffffffffffff168273ffffffffffffffffffffffffffffffffffffffff161415611562576040517f08c379a000000000000000000000000000000000000000000000000000000000815260040161155990614f90565b60405180910390fd5b600360008373ffffffffffffffffffffffffffffffffffffffff1673ffffffffffffffffffffffffffffffffffffffff168152602001908152602001600020549050919050565b6000601060009054906101000a900473ffffffffffffffffffffffffffffffffffffffff16905090565b60006115dd610f69565b73ffffffffffffffffffffffffffffffffffffffff166391d1485484846040518363ffffffff1660e01b8152600401611617929190614cd5565b60206040518083038186803b15801561162f57600080fd5b505afa158015611643573d6000803e3d6000fd5b505050506040513d601f19601f820116820180604052508101906116679190613d06565b905092915050565b60606001805461167e906154ae565b80601f01602080910402602001604051908101604052809291908181526020018280546116aa906154ae565b80156116f75780601f106116cc576101008083540402835291602001916116f7565b820191906000526020600020905b8154815290600101906020018083116116da57829003601f168201915b5050505050905090565b6000600c600083600b811115611740577f4e487b7100000000000000000000000000000000000000000000000000000000600052602160045260246000fd5b600b811115611778577f4e487b7100000000000000000000000000000000000000000000000000000000600052602160045260246000fd5b8152602001908152602001600020549050919050565b7f33fa24d9aab6b79237248a16094d5f78ea83bb51e42c123ce925a264e7d816cc81565b6117c46117bd6121c6565b83836128e5565b5050565b6117d0613881565b6117d98261215a565b611818576040517f08c379a000000000000000000000000000000000000000000000000000000000815260040161180f90615030565b60405180910390fd5b6118346008600084815260200190815260200160002054612a52565b9050919050565b7fdc0d7a095c4e917ecbeb7deda7c942ff9744013d419e37549215a413915e421d81565b6000600b600083600b81111561189e577f4e487b7100000000000000000000000000000000000000000000000000000000600052602160045260246000fd5b600b8111156118d6577f4e487b7100000000000000000000000000000000000000000000000000000000600052602160045260246000fd5b8152602001908152602001600020549050919050565b6118fd6118f76121c6565b83612324565b61193c576040517f08c379a0000000000000000000000000000000000000000000000000000000008152600401611933906150d0565b60405180910390fd5b61194884848484612b1c565b50505050565b600080600a6000848152602001908152602001600020805461196f906154ae565b9050119050919050565b6000600f54905090565b60606000611990836117c8565b905060008160400151116119b657600960008481526020019081526020016000206119ca565b600a60008481526020019081526020016000205b6040516020016119da9190614b51565b604051602081830303815290604052915050919050565b60006119fc826117c8565b9050611a066121c6565b73ffffffffffffffffffffffffffffffffffffffff16611a2583610eb7565b73ffffffffffffffffffffffffffffffffffffffff1614611a7b576040517f08c379a0000000000000000000000000000000000000000000000000000000008152600401611a7290614f10565b60405180910390fd5b611a848161265e565b611ac3576040517f08c379a0000000000000000000000000000000000000000000000000000000008152600401611aba90614eb0565b60405180910390fd5b600080611acf83612b78565b91509150600b600083600b811115611b10577f4e487b7100000000000000000000000000000000000000000000000000000000600052602160045260246000fd5b600b811115611b48577f4e487b7100000000000000000000000000000000000000000000000000000000600052602160045260246000fd5b81526020019081526020016000206000815480929190611b6790615484565b91905055506000611b766115a9565b73ffffffffffffffffffffffffffffffffffffffff16630f3578a68684611b9b6121c6565b6040518463ffffffff1660e01b8152600401611bb99392919061518f565b602060405180830381600087803b158015611bd357600080fd5b505af1158015611be7573d6000803e3d6000fd5b505050506040513d601f19601f82011682018060405250810190611c0b9190613e54565b90504284604001818152505080846060018181525050611c2a84612873565b6008600087815260200190815260200160002081905550611c496121c6565b73ffffffffffffffffffffffffffffffffffffffff167ffb5524208c13c35801d6a771c1506a0a169687ef04692d793cd26722df18e7ce8683604051611c90929190615166565b60405180910390a25050505050565b6000611cab85856121ce565b60008573ffffffffffffffffffffffffffffffffffffffff16611ccc6121c6565b86308787604051602401611ce4959493929190614c51565b6040516020818303038152906040527f8f4ffcb1000000000000000000000000000000000000000000000000000000007bffffffffffffffffffffffffffffffffffffffffffffffffffffffff19166020820180517bffffffffffffffffffffffffffffffffffffffffffffffffffffffff8381831617835250505050604051611d6e9190614b3a565b6000604051808303816000865af19150503d8060008114611dab576040519150601f19603f3d011682016040523d82523d6000602084013e611db0565b606091505b5050905080611df4576040517f08c379a0000000000000000000000000000000000000000000000000000000008152600401611deb90615070565b60405180910390fd5b6001915050949350505050565b600080611e0d836117c8565b90506000816040015111915050919050565b7fdc0d7a095c4e917ecbeb7deda7c942ff9744013d419e37549215a413915e421d611e5181611e4c6121c6565b612287565b6000601160009054906101000a900473ffffffffffffffffffffffffffffffffffffffff16905082601160006101000a81548173ffffffffffffffffffffffffffffffffffffffff021916908373ffffffffffffffffffffffffffffffffffffffff1602179055507f4ca142703425bec1d507d5581fac3a3e61eadcbeafbd7c0a03e2897d96de1cc58184604051611eea929190614e34565b60405180910390a1505050565b6000600d600083600b811115611f36577f4e487b7100000000000000000000000000000000000000000000000000000000600052602160045260246000fd5b600b811115611f6e577f4e487b7100000000000000000000000000000000000000000000000000000000600052602160045260246000fd5b8152602001908152602001600020549050919050565b7fdc0d7a095c4e917ecbeb7deda7c942ff9744013d419e37549215a413915e421d611fb681611fb16121c6565b612287565b6000600660009054906101000a900473ffffffffffffffffffffffffffffffffffffffff16905082600660006101000a81548173ffffffffffffffffffffffffffffffffffffffff021916908373ffffffffffffffffffffffffffffffffffffffff1602179055507f4ca142703425bec1d507d5581fac3a3e61eadcbeafbd7c0a03e2897d96de1cc5818460405161204f929190614dd8565b60405180910390a1505050565b6000600560008473ffffffffffffffffffffffffffffffffffffffff1673ffffffffffffffffffffffffffffffffffffffff16815260200190815260200160002060008373ffffffffffffffffffffffffffffffffffffffff1673ffffffffffffffffffffffffffffffffffffffff16815260200190815260200160002060009054906101000a900460ff16905092915050565b60007f01ffc9a7000000000000000000000000000000000000000000000000000000007bffffffffffffffffffffffffffffffffffffffffffffffffffffffff1916827bffffffffffffffffffffffffffffffffffffffffffffffffffffffff1916149050919050565b60008073ffffffffffffffffffffffffffffffffffffffff166002600084815260200190815260200160002060009054906101000a900473ffffffffffffffffffffffffffffffffffffffff1673ffffffffffffffffffffffffffffffffffffffff1614159050919050565b600033905090565b816004600083815260200190815260200160002060006101000a81548173ffffffffffffffffffffffffffffffffffffffff021916908373ffffffffffffffffffffffffffffffffffffffff160217905550808273ffffffffffffffffffffffffffffffffffffffff1661224183610eb7565b73ffffffffffffffffffffffffffffffffffffffff167f8c5be1e5ebec7d5bd14f71427d1e84f3dd0314c0f7b2291e5b200ac8c7c3b92560405160405180910390a45050565b61229182826115d3565b612320576122b68173ffffffffffffffffffffffffffffffffffffffff166014612db6565b6122c48360001c6020612db6565b6040516020016122d5929190614b73565b6040516020818303038152906040526040517f08c379a00000000000000000000000000000000000000000000000000000000081526004016123179190614cfe565b60405180910390fd5b5050565b600061232f8261215a565b61236e576040517f08c379a000000000000000000000000000000000000000000000000000000000815260040161236590614ef0565b60405180910390fd5b600061237983610eb7565b90508073ffffffffffffffffffffffffffffffffffffffff168473ffffffffffffffffffffffffffffffffffffffff1614806123e857508373ffffffffffffffffffffffffffffffffffffffff166123d084610950565b73ffffffffffffffffffffffffffffffffffffffff16145b806123f957506123f8818561205c565b5b91505092915050565b8273ffffffffffffffffffffffffffffffffffffffff1661242282610eb7565b73ffffffffffffffffffffffffffffffffffffffff1614612478576040517f08c379a000000000000000000000000000000000000000000000000000000000815260040161246f90615050565b60405180910390fd5b600073ffffffffffffffffffffffffffffffffffffffff168273ffffffffffffffffffffffffffffffffffffffff1614156124e8576040517f08c379a00000000000000000000000000000000000000000000000000000000081526004016124df90614e70565b60405180910390fd5b6124f38383836130b0565b6124fe6000826121ce565b6001600360008573ffffffffffffffffffffffffffffffffffffffff1673ffffffffffffffffffffffffffffffffffffffff168152602001908152602001600020600082825461254e919061536b565b925050819055506001600360008473ffffffffffffffffffffffffffffffffffffffff1673ffffffffffffffffffffffffffffffffffffffff16815260200190815260200160002060008282546125a5919061528a565b92505081905550816002600083815260200190815260200160002060006101000a81548173ffffffffffffffffffffffffffffffffffffffff021916908373ffffffffffffffffffffffffffffffffffffffff160217905550808273ffffffffffffffffffffffffffffffffffffffff168473ffffffffffffffffffffffffffffffffffffffff167fddf252ad1be2c89b69c2b068fc378daa952ba7f163c4a11628f55a4df523b3ef60405160405180910390a4505050565b600080826040015114801561267a5750612676611979565b4210155b9050919050565b600081600001549050919050565b6001816000016000828254019250508190555050565b600073ffffffffffffffffffffffffffffffffffffffff168273ffffffffffffffffffffffffffffffffffffffff161415612715576040517f08c379a000000000000000000000000000000000000000000000000000000000815260040161270c90614ff0565b60405180910390fd5b61271e8161215a565b1561275e576040517f08c379a000000000000000000000000000000000000000000000000000000000815260040161275590614e14565b60405180910390fd5b61276a600083836130b0565b6001600360008473ffffffffffffffffffffffffffffffffffffffff1673ffffffffffffffffffffffffffffffffffffffff16815260200190815260200160002060008282546127ba919061528a565b92505081905550816002600083815260200190815260200160002060006101000a81548173ffffffffffffffffffffffffffffffffffffffff021916908373ffffffffffffffffffffffffffffffffffffffff160217905550808273ffffffffffffffffffffffffffffffffffffffff16600073ffffffffffffffffffffffffffffffffffffffff167fddf252ad1be2c89b69c2b068fc378daa952ba7f163c4a11628f55a4df523b3ef60405160405180910390a45050565b6000808260000151905060408360200151600b8111156128bc577f4e487b7100000000000000000000000000000000000000000000000000000000600052602160045260246000fd5b901b8117905060508360400151901b8117905060908360600151901b8117905080915050919050565b8173ffffffffffffffffffffffffffffffffffffffff168373ffffffffffffffffffffffffffffffffffffffff161415612954576040517f08c379a000000000000000000000000000000000000000000000000000000000815260040161294b90614e90565b60405180910390fd5b80600560008573ffffffffffffffffffffffffffffffffffffffff1673ffffffffffffffffffffffffffffffffffffffff16815260200190815260200160002060008473ffffffffffffffffffffffffffffffffffffffff1673ffffffffffffffffffffffffffffffffffffffff16815260200190815260200160002060006101000a81548160ff0219169083151502179055508173ffffffffffffffffffffffffffffffffffffffff168373ffffffffffffffffffffffffffffffffffffffff167f17307eab39ab6107e8899845ad3d59bd9653f200f220920489ca2b5937696c3183604051612a459190614c9f565b60405180910390a3505050565b612a5a613881565b60405180608001604052808367ffffffffffffffff168152602001604084901c61ffff16600b811115612ab6577f4e487b7100000000000000000000000000000000000000000000000000000000600052602160045260246000fd5b600b811115612aee577f4e487b7100000000000000000000000000000000000000000000000000000000600052602160045260246000fd5b8152602001605084901c67ffffffffffffffff168152602001609084901c63ffffffff168152509050919050565b612b27848484612402565b612b33848484846130b5565b612b72576040517f08c379a0000000000000000000000000000000000000000000000000000000008152600401612b6990614db8565b60405180910390fd5b50505050565b600080600080600b811115612bb6577f4e487b7100000000000000000000000000000000000000000000000000000000600052602160045260246000fd5b8460200151600b811115612bf3577f4e487b7100000000000000000000000000000000000000000000000000000000600052602160045260246000fd5b14612c02578360200151612c14565b612c1342448660000151181861324c565b5b90506000612c496000612c3160136000015460136001015461347e565b612c4244438a600001511818613579565b60016135b0565b90506006600b811115612c85577f4e487b7100000000000000000000000000000000000000000000000000000000600052602160045260246000fd5b82600b811115612cbe577f4e487b7100000000000000000000000000000000000000000000000000000000600052602160045260246000fd5b1415612cfb57612cf481612cdc60156000015460156001015461347e565b612ced428960000151441818613579565b60006135b0565b9050612da9565b600b80811115612d34577f4e487b7100000000000000000000000000000000000000000000000000000000600052602160045260246000fd5b82600b811115612d6d577f4e487b7100000000000000000000000000000000000000000000000000000000600052602160045260246000fd5b1415612da857612da581612d8b60156000015460176001015461347e565b612d9e4442438b60000151181818613579565b60006135b0565b90505b5b8181935093505050915091565b606060006002836002612dc99190615311565b612dd3919061528a565b67ffffffffffffffff811115612e12577f4e487b7100000000000000000000000000000000000000000000000000000000600052604160045260246000fd5b6040519080825280601f01601f191660200182016040528015612e445781602001600182028036833780820191505090505b5090507f300000000000000000000000000000000000000000000000000000000000000081600081518110612ea2577f4e487b7100000000000000000000000000000000000000000000000000000000600052603260045260246000fd5b60200101907effffffffffffffffffffffffffffffffffffffffffffffffffffffffffffff1916908160001a9053507f780000000000000000000000000000000000000000000000000000000000000081600181518110612f2c577f4e487b7100000000000000000000000000000000000000000000000000000000600052603260045260246000fd5b60200101907effffffffffffffffffffffffffffffffffffffffffffffffffffffffffffff1916908160001a90535060006001846002612f6c9190615311565b612f76919061528a565b90505b6001811115613062577f3031323334353637383961626364656600000000000000000000000000000000600f861660108110612fde577f4e487b7100000000000000000000000000000000000000000000000000000000600052603260045260246000fd5b1a60f81b82828151811061301b577f4e487b7100000000000000000000000000000000000000000000000000000000600052603260045260246000fd5b60200101907effffffffffffffffffffffffffffffffffffffffffffffffffffffffffffff1916908160001a905350600485901c94508061305b90615484565b9050612f79565b50600084146130a6576040517f08c379a000000000000000000000000000000000000000000000000000000000815260040161309d90614d5c565b60405180910390fd5b8091505092915050565b505050565b60006130d68473ffffffffffffffffffffffffffffffffffffffff1661366e565b1561323f578373ffffffffffffffffffffffffffffffffffffffff1663150b7a026130ff6121c6565b8786866040518563ffffffff1660e01b81526004016131219493929190614c05565b602060405180830381600087803b15801561313b57600080fd5b505af192505050801561316c57506040513d601f19601f820116820180604052508101906131699190613d94565b60015b6131ef573d806000811461319c576040519150601f19603f3d011682016040523d82523d6000602084013e6131a1565b606091505b506000815114156131e7576040517f08c379a00000000000000000000000000000000000000000000000000000000081526004016131de90614db8565b60405180910390fd5b805181602001fd5b63150b7a0260e01b7bffffffffffffffffffffffffffffffffffffffffffffffffffffffff1916817bffffffffffffffffffffffffffffffffffffffffffffffffffffffff191614915050613244565b600190505b949350505050565b600080600b6000600b8081111561328c577f4e487b7100000000000000000000000000000000000000000000000000000000600052602160045260246000fd5b600b8111156132c4577f4e487b7100000000000000000000000000000000000000000000000000000000600052602160045260246000fd5b81526020019081526020016000205490506000600b60006006600b811115613315577f4e487b7100000000000000000000000000000000000000000000000000000000600052602160045260246000fd5b600b81111561334d577f4e487b7100000000000000000000000000000000000000000000000000000000600052602160045260246000fd5b81526020019081526020016000205490506000600b60006001600b81111561339e577f4e487b7100000000000000000000000000000000000000000000000000000000600052602160045260246000fd5b600b8111156133d6577f4e487b7100000000000000000000000000000000000000000000000000000000600052602160045260246000fd5b8152602001908152602001600020549050600061340e82613400858761368190919063ffffffff16565b61368190919063ffffffff16565b905060006134316305f5e10061342389613579565b61369790919063ffffffff16565b905061343d85836136ad565b811161345157600b95505050505050613479565b61345b84836136ad565b811161346f57600695505050505050613479565b6001955050505050505b919050565b60606000838361348e919061536b565b67ffffffffffffffff8111156134cd577f4e487b7100000000000000000000000000000000000000000000000000000000600052604160045260246000fd5b6040519080825280602002602001820160405280156134fb5781602001602082028036833780820191505090505b50905060005b815181101561356e578085613516919061528a565b82828151811061354f577f4e487b7100000000000000000000000000000000000000000000000000000000600052603260045260246000fd5b6020026020010181815250508080613566906154e0565b915050613501565b508091505092915050565b600044428360405160200161359093929190614bad565b6040516020818303038152906040528051906020012060001c9050919050565b600080600090505b84518110156136625761364d8661360760006002856135d79190615533565b116135e6578387901c19613601565b83670123456789abcdef901c8488901c613600919061528a565b5b866136e0565b878481518110613640577f4e487b7100000000000000000000000000000000000000000000000000000000600052603260045260246000fd5b602002602001015161372c565b9550808061365a906154e0565b9150506135b8565b50849050949350505050565b600080823b905060008111915050919050565b6000818361368f919061528a565b905092915050565b600081836136a59190615533565b905092915050565b60006136d8826136ca6305f5e1008661374990919063ffffffff16565b61375f90919063ffffffff16565b905092915050565b60008115613703576136fc60108461369790919063ffffffff16565b9050613726565b613717600f8461369790919063ffffffff16565b6001613723919061528a565b90505b92915050565b600060048261373b9190615311565b83901b841790509392505050565b600081836137579190615311565b905092915050565b6000818361376d91906152e0565b905092915050565b828054613781906154ae565b90600052602060002090601f0160209004810192826137a357600085556137ea565b82601f106137bc57803560ff19168380011785556137ea565b828001600101855582156137ea579182015b828111156137e95782358255916020019190600101906137ce565b5b5090506137f791906138e1565b5090565b828054613807906154ae565b90600052602060002090601f0160209004810192826138295760008555613870565b82601f1061384257805160ff1916838001178555613870565b82800160010185558215613870579182015b8281111561386f578251825591602001919060010190613854565b5b50905061387d91906138e1565b5090565b6040518060800160405280600081526020016000600b8111156138cd577f4e487b7100000000000000000000000000000000000000000000000000000000600052602160045260246000fd5b815260200160008152602001600081525090565b5b808211156138fa5760008160009055506001016138e2565b5090565b600061391161390c846151f7565b6151c6565b90508281526020810184848401111561392957600080fd5b613934848285615442565b509392505050565b60008135905061394b81615674565b92915050565b6000813590506139608161568b565b92915050565b6000815190506139758161568b565b92915050565b60008135905061398a816156a2565b92915050565b60008135905061399f816156b9565b92915050565b6000815190506139b4816156b9565b92915050565b60008083601f8401126139cc57600080fd5b8235905067ffffffffffffffff8111156139e557600080fd5b6020830191508360018202830111156139fd57600080fd5b9250929050565b600082601f830112613a1557600080fd5b8135613a258482602086016138fe565b91505092915050565b600081359050613a3d816156d0565b92915050565b60008083601f840112613a5557600080fd5b8235905067ffffffffffffffff811115613a6e57600080fd5b602083019150836001820283011115613a8657600080fd5b9250929050565b600081359050613a9c816156e0565b92915050565b600081519050613ab1816156e0565b92915050565b600060208284031215613ac957600080fd5b6000613ad78482850161393c565b91505092915050565b60008060408385031215613af357600080fd5b6000613b018582860161393c565b9250506020613b128582860161393c565b9150509250929050565b600080600060608486031215613b3157600080fd5b6000613b3f8682870161393c565b9350506020613b508682870161393c565b9250506040613b6186828701613a8d565b9150509250925092565b60008060008060808587031215613b8157600080fd5b6000613b8f8782880161393c565b9450506020613ba08782880161393c565b9350506040613bb187828801613a8d565b925050606085013567ffffffffffffffff811115613bce57600080fd5b613bda87828801613a04565b91505092959194509250565b60008060408385031215613bf957600080fd5b6000613c078582860161393c565b9250506020613c1885828601613951565b9150509250929050565b60008060408385031215613c3557600080fd5b6000613c438582860161393c565b9250506020613c5485828601613a2e565b9150509250929050565b60008060408385031215613c7157600080fd5b6000613c7f8582860161393c565b9250506020613c9085828601613a8d565b9150509250929050565b60008060008060608587031215613cb057600080fd5b6000613cbe8782880161393c565b9450506020613ccf87828801613a8d565b935050604085013567ffffffffffffffff811115613cec57600080fd5b613cf8878288016139ba565b925092505092959194509250565b600060208284031215613d1857600080fd5b6000613d2684828501613966565b91505092915050565b60008060408385031215613d4257600080fd5b6000613d508582860161397b565b9250506020613d618582860161393c565b9150509250929050565b600060208284031215613d7d57600080fd5b6000613d8b84828501613990565b91505092915050565b600060208284031215613da657600080fd5b6000613db4848285016139a5565b91505092915050565b600060208284031215613dcf57600080fd5b6000613ddd84828501613a2e565b91505092915050565b60008060208385031215613df957600080fd5b600083013567ffffffffffffffff811115613e1357600080fd5b613e1f85828601613a43565b92509250509250929050565b600060208284031215613e3d57600080fd5b6000613e4b84828501613a8d565b91505092915050565b600060208284031215613e6657600080fd5b6000613e7484828501613aa2565b91505092915050565b600080600080600060608688031215613e9557600080fd5b6000613ea388828901613a8d565b955050602086013567ffffffffffffffff811115613ec057600080fd5b613ecc88828901613a43565b9450945050604086013567ffffffffffffffff811115613eeb57600080fd5b613ef788828901613a43565b92509250509295509295909350565b613f0f8161539f565b82525050565b613f1e816153b1565b82525050565b613f2d816153bd565b82525050565b6000613f3f8385615252565b9350613f4c838584615442565b613f558361564f565b840190509392505050565b6000613f6b8261523c565b613f758185615252565b9350613f85818560208601615451565b613f8e8161564f565b840191505092915050565b6000613fa48261523c565b613fae8185615263565b9350613fbe818560208601615451565b80840191505092915050565b613fd381615430565b82525050565b6000613fe482615247565b613fee818561526e565b9350613ffe818560208601615451565b6140078161564f565b840191505092915050565b600061401d82615247565b614027818561527f565b9350614037818560208601615451565b80840191505092915050565b60008154614050816154ae565b61405a818661527f565b945060018216600081146140755760018114614086576140b9565b60ff198316865281860193506140b9565b61408f85615227565b60005b838110156140b157815481890152600182019150602081019050614092565b838801955050505b50505092915050565b60006140cf60098361526e565b91507f686174636854696d6500000000000000000000000000000000000000000000006000830152602082019050919050565b600061410f60208361526e565b91507f537472696e67733a20686578206c656e67746820696e73756666696369656e746000830152602082019050919050565b600061414f600d8361526e565b91507f647261676f6e43726561746f72000000000000000000000000000000000000006000830152602082019050919050565b600061418f60328361526e565b91507f4552433732313a207472616e7366657220746f206e6f6e20455243373231526560008301527f63656976657220696d706c656d656e74657200000000000000000000000000006020830152604082019050919050565b60006141f5600d8361526e565b91507f616363657373436f6e74726f6c000000000000000000000000000000000000006000830152602082019050919050565b6000614235601c8361526e565b91507f4552433732313a20746f6b656e20616c7265616479206d696e746564000000006000830152602082019050919050565b600061427560098361526e565b91507f6567674d61726b657400000000000000000000000000000000000000000000006000830152602082019050919050565b60006142b560248361526e565b91507f4552433732313a207472616e7366657220746f20746865207a65726f2061646460008301527f72657373000000000000000000000000000000000000000000000000000000006020830152604082019050919050565b600061431b60198361526e565b91507f4552433732313a20617070726f766520746f2063616c6c6572000000000000006000830152602082019050919050565b600061435b601b8361526e565b91507f456767546f6b656e3a2063616e6e6f74206265206861746368656400000000006000830152602082019050919050565b600061439b60178361526e565b91507f456767546f6b656e3a2077726f6e6720616464726573730000000000000000006000830152602082019050919050565b60006143db602c8361526e565b91507f4552433732313a206f70657261746f7220717565727920666f72206e6f6e657860008301527f697374656e7420746f6b656e00000000000000000000000000000000000000006020830152604082019050919050565b600061444160238361526e565b91507f456767546f6b656e3a2068617463682063616c6c6572206973206e6f74206f7760008301527f6e657200000000000000000000000000000000000000000000000000000000006020830152604082019050919050565b60006144a7601c8361526e565b91507f456767546f6b656e3a20737570706c79206973206578636565646564000000006000830152602082019050919050565b60006144e760078361527f565b91507f697066733a2f2f000000000000000000000000000000000000000000000000006000830152600782019050919050565b600061452760328361526e565b91507f456767546f6b656e3a206e6f7420656e6f7567682070726976696c656765732060008301527f746f2063616c6c20746865206d6574686f6400000000000000000000000000006020830152604082019050919050565b600061458d60388361526e565b91507f4552433732313a20617070726f76652063616c6c6572206973206e6f74206f7760008301527f6e6572206e6f7220617070726f76656420666f7220616c6c00000000000000006020830152604082019050919050565b60006145f3602a8361526e565b91507f4552433732313a2062616c616e636520717565727920666f7220746865207a6560008301527f726f2061646472657373000000000000000000000000000000000000000000006020830152604082019050919050565b600061465960298361526e565b91507f4552433732313a206f776e657220717565727920666f72206e6f6e657869737460008301527f656e7420746f6b656e00000000000000000000000000000000000000000000006020830152604082019050919050565b60006146bf601e8361526e565b91507f456767546f6b656e3a20434944732061726520616c72656164792073657400006000830152602082019050919050565b60006146ff60208361526e565b91507f4552433732313a206d696e7420746f20746865207a65726f20616464726573736000830152602082019050919050565b600061473f602c8361526e565b91507f4552433732313a20617070726f76656420717565727920666f72206e6f6e657860008301527f697374656e7420746f6b656e00000000000000000000000000000000000000006020830152604082019050919050565b60006147a5601b8361526e565b91507f456767546f6b656e3a206e6f6e6578697374656e7420746f6b656e00000000006000830152602082019050919050565b60006147e560298361526e565b91507f4552433732313a207472616e73666572206f6620746f6b656e2074686174206960008301527f73206e6f74206f776e00000000000000000000000000000000000000000000006020830152604082019050919050565b600061484b60208361526e565b91507f456767546f6b656e3a207370656e64657220696e7465726e616c206572726f726000830152602082019050919050565b600061488b60218361526e565b91507f4552433732313a20617070726f76616c20746f2063757272656e74206f776e6560008301527f72000000000000000000000000000000000000000000000000000000000000006020830152604082019050919050565b60006148f1603c8361526e565b91507f456767546f6b656e3a20746f74616c20737570706c7920666f7220746865206760008301527f6976656e20647261676f6e2074797065206973206578636565646564000000006020830152604082019050919050565b600061495760318361526e565b91507f4552433732313a207472616e736665722063616c6c6572206973206e6f74206f60008301527f776e6572206e6f7220617070726f7665640000000000000000000000000000006020830152604082019050919050565b60006149bd60178361527f565b91507f416363657373436f6e74726f6c3a206163636f756e74200000000000000000006000830152601782019050919050565b60006149fd60118361526e565b91507f456767546f6b656e3a20626164204349440000000000000000000000000000006000830152602082019050919050565b6000614a3d601b8361526e565b91507f456767546f6b656e3a2077726f6e6720647261676f6e207479706500000000006000830152602082019050919050565b6000614a7d60118361527f565b91507f206973206d697373696e6720726f6c65200000000000000000000000000000006000830152601182019050919050565b608082016000820151614ac66000850182614b05565b506020820151614ad96020850182613fca565b506040820151614aec6040850182614b05565b506060820151614aff6060850182614b05565b50505050565b614b0e81615426565b82525050565b614b1d81615426565b82525050565b614b34614b2f82615426565b615529565b82525050565b6000614b468284613f99565b915081905092915050565b6000614b5c826144da565b9150614b688284614043565b915081905092915050565b6000614b7e826149b0565b9150614b8a8285614012565b9150614b9582614a70565b9150614ba18284614012565b91508190509392505050565b6000614bb98286614b23565b602082019150614bc98285614b23565b602082019150614bd98284614b23565b602082019150819050949350505050565b6000602082019050614bff6000830184613f06565b92915050565b6000608082019050614c1a6000830187613f06565b614c276020830186613f06565b614c346040830185614b14565b8181036060830152614c468184613f60565b905095945050505050565b6000608082019050614c666000830188613f06565b614c736020830187614b14565b614c806040830186613f06565b8181036060830152614c93818486613f33565b90509695505050505050565b6000602082019050614cb46000830184613f15565b92915050565b6000602082019050614ccf6000830184613f24565b92915050565b6000604082019050614cea6000830185613f24565b614cf76020830184613f06565b9392505050565b60006020820190508181036000830152614d188184613fd9565b905092915050565b60006060820190508181036000830152614d39816140c2565b9050614d486020830185614b14565b614d556040830184614b14565b9392505050565b60006020820190508181036000830152614d7581614102565b9050919050565b60006060820190508181036000830152614d9581614142565b9050614da46020830185613f06565b614db16040830184613f06565b9392505050565b60006020820190508181036000830152614dd181614182565b9050919050565b60006060820190508181036000830152614df1816141e8565b9050614e006020830185613f06565b614e0d6040830184613f06565b9392505050565b60006020820190508181036000830152614e2d81614228565b9050919050565b60006060820190508181036000830152614e4d81614268565b9050614e5c6020830185613f06565b614e696040830184613f06565b9392505050565b60006020820190508181036000830152614e89816142a8565b9050919050565b60006020820190508181036000830152614ea98161430e565b9050919050565b60006020820190508181036000830152614ec98161434e565b9050919050565b60006020820190508181036000830152614ee98161438e565b9050919050565b60006020820190508181036000830152614f09816143ce565b9050919050565b60006020820190508181036000830152614f2981614434565b9050919050565b60006020820190508181036000830152614f498161449a565b9050919050565b60006020820190508181036000830152614f698161451a565b9050919050565b60006020820190508181036000830152614f8981614580565b9050919050565b60006020820190508181036000830152614fa9816145e6565b9050919050565b60006020820190508181036000830152614fc98161464c565b9050919050565b60006020820190508181036000830152614fe9816146b2565b9050919050565b60006020820190508181036000830152615009816146f2565b9050919050565b6000602082019050818103600083015261502981614732565b9050919050565b6000602082019050818103600083015261504981614798565b9050919050565b60006020820190508181036000830152615069816147d8565b9050919050565b600060208201905081810360008301526150898161483e565b9050919050565b600060208201905081810360008301526150a98161487e565b9050919050565b600060208201905081810360008301526150c9816148e4565b9050919050565b600060208201905081810360008301526150e98161494a565b9050919050565b60006020820190508181036000830152615109816149f0565b9050919050565b6000602082019050818103600083015261512981614a30565b9050919050565b60006080820190506151456000830184614ab0565b92915050565b60006020820190506151606000830184614b14565b92915050565b600060408201905061517b6000830185614b14565b6151886020830184614b14565b9392505050565b60006060820190506151a46000830186614b14565b6151b16020830185614b14565b6151be6040830184613f06565b949350505050565b6000604051905081810181811067ffffffffffffffff821117156151ed576151ec615620565b5b8060405250919050565b600067ffffffffffffffff82111561521257615211615620565b5b601f19601f8301169050602081019050919050565b60008190508160005260206000209050919050565b600081519050919050565b600081519050919050565b600082825260208201905092915050565b600081905092915050565b600082825260208201905092915050565b600081905092915050565b600061529582615426565b91506152a083615426565b9250827fffffffffffffffffffffffffffffffffffffffffffffffffffffffffffffffff038211156152d5576152d4615564565b5b828201905092915050565b60006152eb82615426565b91506152f683615426565b92508261530657615305615593565b5b828204905092915050565b600061531c82615426565b915061532783615426565b9250817fffffffffffffffffffffffffffffffffffffffffffffffffffffffffffffffff04831182151516156153605761535f615564565b5b828202905092915050565b600061537682615426565b915061538183615426565b92508282101561539457615393615564565b5b828203905092915050565b60006153aa82615406565b9050919050565b60008115159050919050565b6000819050919050565b60007fffffffff0000000000000000000000000000000000000000000000000000000082169050919050565b600081905061540182615660565b919050565b600073ffffffffffffffffffffffffffffffffffffffff82169050919050565b6000819050919050565b600061543b826153f3565b9050919050565b82818337600083830152505050565b60005b8381101561546f578082015181840152602081019050615454565b8381111561547e576000848401525b50505050565b600061548f82615426565b915060008214156154a3576154a2615564565b5b600182039050919050565b600060028204905060018216806154c657607f821691505b602082108114156154da576154d96155f1565b5b50919050565b60006154eb82615426565b91507fffffffffffffffffffffffffffffffffffffffffffffffffffffffffffffffff82141561551e5761551d615564565b5b600182019050919050565b6000819050919050565b600061553e82615426565b915061554983615426565b92508261555957615558615593565b5b828206905092915050565b7f4e487b7100000000000000000000000000000000000000000000000000000000600052601160045260246000fd5b7f4e487b7100000000000000000000000000000000000000000000000000000000600052601260045260246000fd5b7f4e487b7100000000000000000000000000000000000000000000000000000000600052602160045260246000fd5b7f4e487b7100000000000000000000000000000000000000000000000000000000600052602260045260246000fd5b7f4e487b7100000000000000000000000000000000000000000000000000000000600052604160045260246000fd5b6000601f19601f8301169050919050565b600c8110615671576156706155c2565b5b50565b61567d8161539f565b811461568857600080fd5b50565b615694816153b1565b811461569f57600080fd5b50565b6156ab816153bd565b81146156b657600080fd5b50565b6156c2816153c7565b81146156cd57600080fd5b50565b600c81106156dd57600080fd5b50565b6156e981615426565b81146156f457600080fd5b5056fea2646970667358221220a9c08e6c73c1fe3f8e0279810a6574c0ebce7b8bd48e53707fbd115baccb70ba64736f6c63430008000033",
  "linkReferences": {},
  "deployedLinkReferences": {}
}