{
  "_format": "hh-sol-artifact-1",
  "contractName": "EggMarket",
  "sourceName": "contracts/EggMarket.sol",
  "abi": [
    {
      "inputs": [
        {
          "internalType": "address",
          "name": "accessControl",
          "type": "address"
        },
        {
          "internalType": "address",
          "name": "eggToken",
          "type": "address"
        }
      ],
      "stateMutability": "nonpayable",
      "type": "constructor"
    },
    {
      "anonymous": false,
      "inputs": [
        {
          "indexed": false,
          "internalType": "string",
          "name": "fieldName",
          "type": "string"
        },
        {
          "indexed": false,
          "internalType": "address",
          "name": "previousAddress",
          "type": "address"
        },
        {
          "indexed": false,
          "internalType": "address",
          "name": "newAddress",
          "type": "address"
        }
      ],
      "name": "AddressChanged",
      "type": "event"
    },
    {
      "anonymous": false,
      "inputs": [
        {
          "indexed": false,
          "internalType": "string",
          "name": "fieldName",
          "type": "string"
        },
        {
          "indexed": false,
          "internalType": "bool",
          "name": "previousValue",
          "type": "bool"
        },
        {
          "indexed": false,
          "internalType": "bool",
          "name": "newValue",
          "type": "bool"
        }
      ],
      "name": "BoolValueChanged",
      "type": "event"
    },
    {
      "anonymous": false,
      "inputs": [
        {
          "indexed": false,
          "internalType": "address",
          "name": "operator",
          "type": "address"
        },
        {
          "indexed": true,
          "internalType": "address",
          "name": "to",
          "type": "address"
        },
        {
          "indexed": false,
          "internalType": "uint256",
          "name": "amount",
          "type": "uint256"
        }
      ],
      "name": "EthersWithdrawn",
      "type": "event"
    },
    {
      "anonymous": false,
      "inputs": [
        {
          "indexed": false,
          "internalType": "address",
          "name": "operator",
          "type": "address"
        },
        {
          "indexed": false,
          "internalType": "uint256",
          "name": "totalAllowedPresaleCount",
          "type": "uint256"
        },
        {
          "indexed": false,
          "internalType": "uint256",
          "name": "presalePrice",
          "type": "uint256"
        },
        {
          "indexed": false,
          "internalType": "enum DragonInfo.Types",
          "name": "dragonType",
          "type": "uint8"
        }
      ],
      "name": "PresaleAllowed",
      "type": "event"
    },
    {
      "anonymous": false,
      "inputs": [
        {
          "indexed": false,
          "internalType": "address",
          "name": "operator",
          "type": "address"
        },
        {
          "indexed": false,
          "internalType": "uint256",
          "name": "legendaryPrice",
          "type": "uint256"
        },
        {
          "indexed": false,
          "internalType": "uint256",
          "name": "epicPrice",
          "type": "uint256"
        },
        {
          "indexed": false,
          "internalType": "uint256",
          "name": "randomPrice",
          "type": "uint256"
        }
      ],
      "name": "PublicSaleStarted",
      "type": "event"
    },
    {
      "anonymous": false,
      "inputs": [
        {
          "indexed": true,
          "internalType": "address",
          "name": "buyer",
          "type": "address"
        },
        {
          "indexed": true,
          "internalType": "address",
          "name": "to",
          "type": "address"
        },
        {
          "indexed": false,
          "internalType": "uint256",
          "name": "tokenId",
          "type": "uint256"
        },
        {
          "indexed": false,
          "internalType": "enum DragonInfo.Types",
          "name": "dragonType",
          "type": "uint8"
        }
      ],
      "name": "TokenBought",
      "type": "event"
    },
    {
      "anonymous": false,
      "inputs": [
        {
          "indexed": true,
          "internalType": "address",
          "name": "claimer",
          "type": "address"
        },
        {
          "indexed": true,
          "internalType": "address",
          "name": "to",
          "type": "address"
        },
        {
          "indexed": false,
          "internalType": "uint256",
          "name": "tokenId",
          "type": "uint256"
        }
      ],
      "name": "TokenClaimed",
      "type": "event"
    },
    {
      "anonymous": false,
      "inputs": [
        {
          "indexed": true,
          "internalType": "address",
          "name": "buyer",
          "type": "address"
        },
        {
          "indexed": true,
          "internalType": "address",
          "name": "to",
          "type": "address"
        },
        {
          "indexed": false,
          "internalType": "uint256",
          "name": "count",
          "type": "uint256"
        },
        {
          "indexed": false,
          "internalType": "enum DragonInfo.Types",
          "name": "dragonType",
          "type": "uint8"
        }
      ],
      "name": "TokenPresold",
      "type": "event"
    },
    {
      "anonymous": false,
      "inputs": [
        {
          "indexed": false,
          "internalType": "string",
          "name": "fieldName",
          "type": "string"
        },
        {
          "indexed": false,
          "internalType": "uint256",
          "name": "previousValue",
          "type": "uint256"
        },
        {
          "indexed": false,
          "internalType": "uint256",
          "name": "newValue",
          "type": "uint256"
        }
      ],
      "name": "ValueChanged",
      "type": "event"
    },
    {
      "inputs": [],
      "name": "CEO_ROLE",
      "outputs": [
        {
          "internalType": "bytes32",
          "name": "",
          "type": "bytes32"
        }
      ],
      "stateMutability": "view",
      "type": "function"
    },
    {
      "inputs": [],
      "name": "CFO_ROLE",
      "outputs": [
        {
          "internalType": "bytes32",
          "name": "",
          "type": "bytes32"
        }
      ],
      "stateMutability": "view",
      "type": "function"
    },
    {
      "inputs": [],
      "name": "COO_ROLE",
      "outputs": [
        {
          "internalType": "bytes32",
          "name": "",
          "type": "bytes32"
        }
      ],
      "stateMutability": "view",
      "type": "function"
    },
    {
      "inputs": [],
      "name": "accessControlAddress",
      "outputs": [
        {
          "internalType": "address",
          "name": "",
          "type": "address"
        }
      ],
      "stateMutability": "view",
      "type": "function"
    },
    {
      "inputs": [
        {
          "internalType": "enum DragonInfo.Types",
          "name": "drgType",
          "type": "uint8"
        },
        {
          "internalType": "uint256",
          "name": "totalAllowedPresaleCnt",
          "type": "uint256"
        },
        {
          "internalType": "uint256",
          "name": "psPrice",
          "type": "uint256"
        }
      ],
      "name": "allowPresale",
      "outputs": [],
      "stateMutability": "nonpayable",
      "type": "function"
    },
    {
      "inputs": [
        {
          "internalType": "enum DragonInfo.Types",
          "name": "drgType",
          "type": "uint8"
        },
        {
          "internalType": "address",
          "name": "to",
          "type": "address"
        },
        {
          "internalType": "uint256",
          "name": "count",
          "type": "uint256"
        }
      ],
      "name": "buy",
      "outputs": [],
      "stateMutability": "payable",
      "type": "function"
    },
    {
      "inputs": [
        {
          "internalType": "enum DragonInfo.Types",
          "name": "drgType",
          "type": "uint8"
        },
        {
          "internalType": "address",
          "name": "to",
          "type": "address"
        },
        {
          "internalType": "uint256",
          "name": "count",
          "type": "uint256"
        }
      ],
      "name": "claim",
      "outputs": [],
      "stateMutability": "nonpayable",
      "type": "function"
    },
    {
      "inputs": [
        {
          "internalType": "enum DragonInfo.Types",
          "name": "drgType",
          "type": "uint8"
        }
      ],
      "name": "currentPresaleCount",
      "outputs": [
        {
          "internalType": "uint256",
          "name": "",
          "type": "uint256"
        }
      ],
      "stateMutability": "view",
      "type": "function"
    },
    {
      "inputs": [
        {
          "internalType": "bytes32",
          "name": "role",
          "type": "bytes32"
        },
        {
          "internalType": "address",
          "name": "account",
          "type": "address"
        }
      ],
      "name": "hasRole",
      "outputs": [
        {
          "internalType": "bool",
          "name": "",
          "type": "bool"
        }
      ],
      "stateMutability": "view",
      "type": "function"
    },
    {
      "inputs": [
        {
          "internalType": "enum DragonInfo.Types",
          "name": "drgType",
          "type": "uint8"
        }
      ],
      "name": "maxBuyCount",
      "outputs": [
        {
          "internalType": "uint256",
          "name": "",
          "type": "uint256"
        }
      ],
      "stateMutability": "view",
      "type": "function"
    },
    {
      "inputs": [
        {
          "internalType": "enum DragonInfo.Types",
          "name": "drgType",
          "type": "uint8"
        }
      ],
      "name": "presaleMaxBuyCount",
      "outputs": [
        {
          "internalType": "uint256",
          "name": "",
          "type": "uint256"
        }
      ],
      "stateMutability": "view",
      "type": "function"
    },
    {
      "inputs": [
        {
          "internalType": "enum DragonInfo.Types",
          "name": "drgType",
          "type": "uint8"
        }
      ],
      "name": "presalePrice",
      "outputs": [
        {
          "internalType": "uint256",
          "name": "",
          "type": "uint256"
        }
      ],
      "stateMutability": "view",
      "type": "function"
    },
    {
      "inputs": [
        {
          "internalType": "enum DragonInfo.Types",
          "name": "drgType",
          "type": "uint8"
        }
      ],
      "name": "presaleRemainingCount",
      "outputs": [
        {
          "internalType": "uint256",
          "name": "",
          "type": "uint256"
        }
      ],
      "stateMutability": "view",
      "type": "function"
    },
    {
      "inputs": [
        {
          "internalType": "enum DragonInfo.Types",
          "name": "drgType",
          "type": "uint8"
        }
      ],
      "name": "publicPrice",
      "outputs": [
        {
          "internalType": "uint256",
          "name": "",
          "type": "uint256"
        }
      ],
      "stateMutability": "view",
      "type": "function"
    },
    {
      "inputs": [],
      "name": "publicSaleStarted",
      "outputs": [
        {
          "internalType": "bool",
          "name": "",
          "type": "bool"
        }
      ],
      "stateMutability": "view",
      "type": "function"
    },
    {
      "inputs": [
        {
          "internalType": "address",
          "name": "newAddress",
          "type": "address"
        }
      ],
      "name": "setAccessControlAddress",
      "outputs": [],
      "stateMutability": "nonpayable",
      "type": "function"
    },
    {
      "inputs": [
        {
          "internalType": "enum DragonInfo.Types",
          "name": "drgType",
          "type": "uint8"
        },
        {
          "internalType": "uint256",
          "name": "newValue",
          "type": "uint256"
        }
      ],
      "name": "setMaxBuyCount",
      "outputs": [],
      "stateMutability": "nonpayable",
      "type": "function"
    },
    {
      "inputs": [
        {
          "internalType": "enum DragonInfo.Types",
          "name": "drgType",
          "type": "uint8"
        },
        {
          "internalType": "uint256",
          "name": "newValue",
          "type": "uint256"
        }
      ],
      "name": "setPresaleMaxBuyCount",
      "outputs": [],
      "stateMutability": "nonpayable",
      "type": "function"
    },
    {
      "inputs": [
        {
          "internalType": "enum DragonInfo.Types",
          "name": "drgType",
          "type": "uint8"
        },
        {
          "internalType": "uint256",
          "name": "newValue",
          "type": "uint256"
        }
      ],
      "name": "setPresalePrice",
      "outputs": [],
      "stateMutability": "nonpayable",
      "type": "function"
    },
    {
      "inputs": [
        {
          "internalType": "enum DragonInfo.Types",
          "name": "drgType",
          "type": "uint8"
        },
        {
          "internalType": "uint256",
          "name": "newValue",
          "type": "uint256"
        }
      ],
      "name": "setPublicPrice",
      "outputs": [],
      "stateMutability": "nonpayable",
      "type": "function"
    },
    {
      "inputs": [
        {
          "internalType": "address",
          "name": "newAddress",
          "type": "address"
        }
      ],
      "name": "setTokenAddress",
      "outputs": [],
      "stateMutability": "nonpayable",
      "type": "function"
    },
    {
      "inputs": [
        {
          "internalType": "uint256",
          "name": "legendaryPrice",
          "type": "uint256"
        },
        {
          "internalType": "uint256",
          "name": "epicPrice",
          "type": "uint256"
        },
        {
          "internalType": "uint256",
          "name": "randomPrice",
          "type": "uint256"
        }
      ],
      "name": "togglePublicSaleStarted",
      "outputs": [],
      "stateMutability": "nonpayable",
      "type": "function"
    },
    {
      "inputs": [],
      "name": "tokenAddress",
      "outputs": [
        {
          "internalType": "address",
          "name": "",
          "type": "address"
        }
      ],
      "stateMutability": "view",
      "type": "function"
    },
    {
      "inputs": [
        {
          "internalType": "enum DragonInfo.Types",
          "name": "drgType",
          "type": "uint8"
        }
      ],
      "name": "totalAllowedPresaleCount",
      "outputs": [
        {
          "internalType": "uint256",
          "name": "",
          "type": "uint256"
        }
      ],
      "stateMutability": "view",
      "type": "function"
    },
    {
      "inputs": [
        {
          "internalType": "uint256",
          "name": "amount",
          "type": "uint256"
        },
        {
          "internalType": "address payable",
          "name": "to",
          "type": "address"
        }
      ],
      "name": "withdrawEthers",
      "outputs": [],
      "stateMutability": "nonpayable",
      "type": "function"
    }
  ],
  "bytecode": "0x60806040526000600160146101000a81548160ff0219169083151502179055503480156200002c57600080fd5b506040516200421638038062004216833981810160405281019062000052919062000437565b81806000806101000a81548173ffffffffffffffffffffffffffffffffffffffff021916908373ffffffffffffffffffffffffffffffffffffffff1602179055505080600160006101000a81548173ffffffffffffffffffffffffffffffffffffffff021916908373ffffffffffffffffffffffffffffffffffffffff160217905550600580600080600b81111562000114577f4e487b7100000000000000000000000000000000000000000000000000000000600052602160045260246000fd5b600b8111156200014d577f4e487b7100000000000000000000000000000000000000000000000000000000600052602160045260246000fd5b8152602001908152602001600020819055506001600560006006600b811115620001a0577f4e487b7100000000000000000000000000000000000000000000000000000000600052602160045260246000fd5b600b811115620001d9577f4e487b7100000000000000000000000000000000000000000000000000000000600052602160045260246000fd5b815260200190815260200160002081905550600160056000600b808111156200022b577f4e487b7100000000000000000000000000000000000000000000000000000000600052602160045260246000fd5b600b81111562000264577f4e487b7100000000000000000000000000000000000000000000000000000000600052602160045260246000fd5b81526020019081526020016000208190555060056004600080600b811115620002b6577f4e487b7100000000000000000000000000000000000000000000000000000000600052602160045260246000fd5b600b811115620002ef577f4e487b7100000000000000000000000000000000000000000000000000000000600052602160045260246000fd5b8152602001908152602001600020819055506001600460006006600b81111562000342577f4e487b7100000000000000000000000000000000000000000000000000000000600052602160045260246000fd5b600b8111156200037b577f4e487b7100000000000000000000000000000000000000000000000000000000600052602160045260246000fd5b815260200190815260200160002081905550600160046000600b80811115620003cd577f4e487b7100000000000000000000000000000000000000000000000000000000600052602160045260246000fd5b600b81111562000406577f4e487b7100000000000000000000000000000000000000000000000000000000600052602160045260246000fd5b8152602001908152602001600020819055505050620004c6565b6000815190506200043181620004ac565b92915050565b600080604083850312156200044b57600080fd5b60006200045b8582860162000420565b92505060206200046e8582860162000420565b9150509250929050565b600062000485826200048c565b9050919050565b600073ffffffffffffffffffffffffffffffffffffffff82169050919050565b620004b78162000478565b8114620004c357600080fd5b50565b613d4080620004d66000396000f3fe6080604052600436106101665760003560e01c80637c237687116100d1578063a2e914771161008a578063e4ad403c11610064578063e4ad403c14610553578063e8d56b8b1461057c578063fafb7e12146105a5578063fb5cc06e146105ce57610166565b8063a2e91477146104d4578063b514be63146104ff578063bceaf8a71461052a57610166565b80637c2376871461038a57806389a6e6b9146103c757806391d14854146104045780639ce0708a146104415780639d76ea581461047e5780639f6f50ed146104a957610166565b80634d96ce53116101235780634d96ce531461025657806358504264146102935780635f7e1333146102bc5780635fc679d6146102f957806366741377146103225780637334af951461034d57610166565b80630e0115ad1461016b578063235998481461019457806326a4e8d2146101b05780632a6e5e11146101d95780633800bd65146102025780633acfd44f1461022b575b600080fd5b34801561017757600080fd5b50610192600480360381019061018d9190612c57565b61060b565b005b6101ae60048036038101906101a99190612c08565b6107ad565b005b3480156101bc57600080fd5b506101d760048036038101906101d29190612b51565b610824565b005b3480156101e557600080fd5b5061020060048036038101906101fb9190612d0b565b6108fc565b005b34801561020e57600080fd5b5061022960048036038101906102249190612c93565b6109b3565b005b34801561023757600080fd5b50610240610cfb565b60405161024d91906136a5565b60405180910390f35b34801561026257600080fd5b5061027d60048036038101906102789190612bdf565b610d1f565b60405161028a919061395c565b60405180910390f35b34801561029f57600080fd5b506102ba60048036038101906102b59190612c57565b610dac565b005b3480156102c857600080fd5b506102e360048036038101906102de9190612bdf565b610f4e565b6040516102f0919061395c565b60405180910390f35b34801561030557600080fd5b50610320600480360381019061031b9190612c57565b610fdb565b005b34801561032e57600080fd5b5061033761117d565b6040516103449190613593565b60405180910390f35b34801561035957600080fd5b50610374600480360381019061036f9190612bdf565b6111a6565b604051610381919061395c565b60405180910390f35b34801561039657600080fd5b506103b160048036038101906103ac9190612bdf565b611233565b6040516103be919061395c565b60405180910390f35b3480156103d357600080fd5b506103ee60048036038101906103e99190612bdf565b6112c0565b6040516103fb919061395c565b60405180910390f35b34801561041057600080fd5b5061042b60048036038101906104269190612ba3565b61134d565b604051610438919061368a565b60405180910390f35b34801561044d57600080fd5b5061046860048036038101906104639190612bdf565b6113e9565b604051610475919061395c565b60405180910390f35b34801561048a57600080fd5b50610493611476565b6040516104a09190613593565b60405180910390f35b3480156104b557600080fd5b506104be6114a0565b6040516104cb91906136a5565b60405180910390f35b3480156104e057600080fd5b506104e96114c4565b6040516104f6919061368a565b60405180910390f35b34801561050b57600080fd5b506105146114db565b60405161052191906136a5565b60405180910390f35b34801561053657600080fd5b50610551600480360381019061054c9190612c08565b6114ff565b005b34801561055f57600080fd5b5061057a60048036038101906105759190612c57565b611940565b005b34801561058857600080fd5b506105a3600480360381019061059e9190612b51565b611ae2565b005b3480156105b157600080fd5b506105cc60048036038101906105c79190612d47565b611bb8565b005b3480156105da57600080fd5b506105f560048036038101906105f09190612bdf565b611de7565b604051610602919061395c565b60405180910390f35b7f33fa24d9aab6b79237248a16094d5f78ea83bb51e42c123ce925a264e7d816cc61063d81610638611e74565b611e7c565b60006005600085600b81111561067c577f4e487b7100000000000000000000000000000000000000000000000000000000600052602160045260246000fd5b600b8111156106b4577f4e487b7100000000000000000000000000000000000000000000000000000000600052602160045260246000fd5b8152602001908152602001600020549050826005600086600b811115610703577f4e487b7100000000000000000000000000000000000000000000000000000000600052602160045260246000fd5b600b81111561073b577f4e487b7100000000000000000000000000000000000000000000000000000000600052602160045260246000fd5b8152602001908152602001600020819055507fe98e5fcd3d43c7e5dd114bafcc428bc7ff8525b014fe3b51fc721ba5671f98fb8460405160200161077f919061356d565b604051602081830303815290604052828560405161079f93929190613726565b60405180910390a150505050565b6107b682611f19565b156107f6576040517f08c379a00000000000000000000000000000000000000000000000000000000081526004016107ed90613880565b60405180910390fd5b6107fe6114c4565b156108135761080e838383611f2c565b61081f565b61081e838383612288565b5b505050565b7fdc0d7a095c4e917ecbeb7deda7c942ff9744013d419e37549215a413915e421d61085681610851611e74565b611e7c565b6000600160009054906101000a900473ffffffffffffffffffffffffffffffffffffffff16905082600160006101000a81548173ffffffffffffffffffffffffffffffffffffffff021916908373ffffffffffffffffffffffffffffffffffffffff1602179055507f4ca142703425bec1d507d5581fac3a3e61eadcbeafbd7c0a03e2897d96de1cc581846040516108ef9291906138a0565b60405180910390a1505050565b7f33fa24d9aab6b79237248a16094d5f78ea83bb51e42c123ce925a264e7d816cc61092e81610929611e74565b611e7c565b610957838373ffffffffffffffffffffffffffffffffffffffff166126d090919063ffffffff16565b8173ffffffffffffffffffffffffffffffffffffffff167f372bb9ce23c45af0229f3ad425305ebadfb790c0b0453fa3077a02d7d8c987bb610997611e74565b856040516109a69291906135d7565b60405180910390a2505050565b7f33fa24d9aab6b79237248a16094d5f78ea83bb51e42c123ce925a264e7d816cc6109e5816109e0611e74565b611e7c565b6109ed6114c4565b15610a2d576040517f08c379a0000000000000000000000000000000000000000000000000000000008152600401610a249061391c565b60405180910390fd5b6000610a37611476565b73ffffffffffffffffffffffffffffffffffffffff16639e98591b866040518263ffffffff1660e01b8152600401610a6f91906136e9565b60206040518083038186803b158015610a8757600080fd5b505afa158015610a9b573d6000803e3d6000fd5b505050506040513d601f19601f82011682018060405250810190610abf9190612ce2565b90508084610acc876111a6565b610ad691906139d2565b1115610b17576040517f08c379a0000000000000000000000000000000000000000000000000000000008152600401610b0e906138dc565b60405180910390fd5b836006600087600b811115610b55577f4e487b7100000000000000000000000000000000000000000000000000000000600052602160045260246000fd5b600b811115610b8d577f4e487b7100000000000000000000000000000000000000000000000000000000600052602160045260246000fd5b815260200190815260200160002081905550826007600087600b811115610bdd577f4e487b7100000000000000000000000000000000000000000000000000000000600052602160045260246000fd5b600b811115610c15577f4e487b7100000000000000000000000000000000000000000000000000000000600052602160045260246000fd5b81526020019081526020016000208190555060006002600087600b811115610c66577f4e487b7100000000000000000000000000000000000000000000000000000000600052602160045260246000fd5b600b811115610c9e577f4e487b7100000000000000000000000000000000000000000000000000000000600052602160045260246000fd5b8152602001908152602001600020819055507fc44043eb8a3efdea51ecb799b6c8746e7f7fa8b68634ec5cbe8986c0e4ef77df610cd9611e74565b858588604051610cec9493929190613600565b60405180910390a15050505050565b7fefa080c67ecf4a6bf40c9dc64173420c08f359250ca6562d7c80f7c7b9b1396981565b60006008600083600b811115610d5e577f4e487b7100000000000000000000000000000000000000000000000000000000600052602160045260246000fd5b600b811115610d96577f4e487b7100000000000000000000000000000000000000000000000000000000600052602160045260246000fd5b8152602001908152602001600020549050919050565b7f33fa24d9aab6b79237248a16094d5f78ea83bb51e42c123ce925a264e7d816cc610dde81610dd9611e74565b611e7c565b60006008600085600b811115610e1d577f4e487b7100000000000000000000000000000000000000000000000000000000600052602160045260246000fd5b600b811115610e55577f4e487b7100000000000000000000000000000000000000000000000000000000600052602160045260246000fd5b8152602001908152602001600020549050826008600086600b811115610ea4577f4e487b7100000000000000000000000000000000000000000000000000000000600052602160045260246000fd5b600b811115610edc577f4e487b7100000000000000000000000000000000000000000000000000000000600052602160045260246000fd5b8152602001908152602001600020819055507fe98e5fcd3d43c7e5dd114bafcc428bc7ff8525b014fe3b51fc721ba5671f98fb84604051602001610f2091906134d2565b6040516020818303038152906040528285604051610f4093929190613726565b60405180910390a150505050565b60006004600083600b811115610f8d577f4e487b7100000000000000000000000000000000000000000000000000000000600052602160045260246000fd5b600b811115610fc5577f4e487b7100000000000000000000000000000000000000000000000000000000600052602160045260246000fd5b8152602001908152602001600020549050919050565b7f33fa24d9aab6b79237248a16094d5f78ea83bb51e42c123ce925a264e7d816cc61100d81611008611e74565b611e7c565b60006004600085600b81111561104c577f4e487b7100000000000000000000000000000000000000000000000000000000600052602160045260246000fd5b600b811115611084577f4e487b7100000000000000000000000000000000000000000000000000000000600052602160045260246000fd5b8152602001908152602001600020549050826004600086600b8111156110d3577f4e487b7100000000000000000000000000000000000000000000000000000000600052602160045260246000fd5b600b81111561110b577f4e487b7100000000000000000000000000000000000000000000000000000000600052602160045260246000fd5b8152602001908152602001600020819055507fe98e5fcd3d43c7e5dd114bafcc428bc7ff8525b014fe3b51fc721ba5671f98fb8460405160200161114f91906134ac565b604051602081830303815290604052828560405161116f93929190613726565b60405180910390a150505050565b60008060009054906101000a900473ffffffffffffffffffffffffffffffffffffffff16905090565b60006003600083600b8111156111e5577f4e487b7100000000000000000000000000000000000000000000000000000000600052602160045260246000fd5b600b81111561121d577f4e487b7100000000000000000000000000000000000000000000000000000000600052602160045260246000fd5b8152602001908152602001600020549050919050565b60006006600083600b811115611272577f4e487b7100000000000000000000000000000000000000000000000000000000600052602160045260246000fd5b600b8111156112aa577f4e487b7100000000000000000000000000000000000000000000000000000000600052602160045260246000fd5b8152602001908152602001600020549050919050565b60006007600083600b8111156112ff577f4e487b7100000000000000000000000000000000000000000000000000000000600052602160045260246000fd5b600b811115611337577f4e487b7100000000000000000000000000000000000000000000000000000000600052602160045260246000fd5b8152602001908152602001600020549050919050565b600061135761117d565b73ffffffffffffffffffffffffffffffffffffffff166391d1485484846040518363ffffffff1660e01b81526004016113919291906136c0565b60206040518083038186803b1580156113a957600080fd5b505afa1580156113bd573d6000803e3d6000fd5b505050506040513d601f19601f820116820180604052508101906113e19190612b7a565b905092915050565b60006002600083600b811115611428577f4e487b7100000000000000000000000000000000000000000000000000000000600052602160045260246000fd5b600b811115611460577f4e487b7100000000000000000000000000000000000000000000000000000000600052602160045260246000fd5b8152602001908152602001600020549050919050565b6000600160009054906101000a900473ffffffffffffffffffffffffffffffffffffffff16905090565b7f33fa24d9aab6b79237248a16094d5f78ea83bb51e42c123ce925a264e7d816cc81565b6000600160149054906101000a900460ff16905090565b7fdc0d7a095c4e917ecbeb7deda7c942ff9744013d419e37549215a413915e421d81565b6115076114c4565b611546576040517f08c379a000000000000000000000000000000000000000000000000000000000815260040161153d906137c0565b60405180910390fd5b61154f82611f19565b1561158f576040517f08c379a000000000000000000000000000000000000000000000000000000000815260040161158690613880565b60405180910390fd5b806009600085600b8111156115cd577f4e487b7100000000000000000000000000000000000000000000000000000000600052602160045260246000fd5b600b811115611605577f4e487b7100000000000000000000000000000000000000000000000000000000600052602160045260246000fd5b8152602001908152602001600020600061161d611e74565b73ffffffffffffffffffffffffffffffffffffffff1673ffffffffffffffffffffffffffffffffffffffff168152602001908152602001600020541015611699576040517f08c379a000000000000000000000000000000000000000000000000000000000815260040161169090613820565b60405180910390fd5b60006116a3611476565b905060005b828110156117c15760008273ffffffffffffffffffffffffffffffffffffffff1663691562a086886040518363ffffffff1660e01b81526004016116ed9291906135ae565b602060405180830381600087803b15801561170757600080fd5b505af115801561171b573d6000803e3d6000fd5b505050506040513d601f19601f8201168201806040525081019061173f9190612ce2565b90508473ffffffffffffffffffffffffffffffffffffffff16611760611e74565b73ffffffffffffffffffffffffffffffffffffffff167f4831bdd9dcf3048a28319ce81d3cab7a15366bcf449bc7803a539107440809cc836040516117a5919061395c565b60405180910390a35080806117b990613b9c565b9150506116a8565b50816009600086600b811115611800577f4e487b7100000000000000000000000000000000000000000000000000000000600052602160045260246000fd5b600b811115611838577f4e487b7100000000000000000000000000000000000000000000000000000000600052602160045260246000fd5b81526020019081526020016000206000611850611e74565b73ffffffffffffffffffffffffffffffffffffffff1673ffffffffffffffffffffffffffffffffffffffff16815260200190815260200160002060008282546118999190613a82565b92505081905550816003600086600b8111156118de577f4e487b7100000000000000000000000000000000000000000000000000000000600052602160045260246000fd5b600b811115611916577f4e487b7100000000000000000000000000000000000000000000000000000000600052602160045260246000fd5b815260200190815260200160002060008282546119339190613a82565b9250508190555050505050565b7f33fa24d9aab6b79237248a16094d5f78ea83bb51e42c123ce925a264e7d816cc6119728161196d611e74565b611e7c565b60006007600085600b8111156119b1577f4e487b7100000000000000000000000000000000000000000000000000000000600052602160045260246000fd5b600b8111156119e9577f4e487b7100000000000000000000000000000000000000000000000000000000600052602160045260246000fd5b8152602001908152602001600020549050826007600086600b811115611a38577f4e487b7100000000000000000000000000000000000000000000000000000000600052602160045260246000fd5b600b811115611a70577f4e487b7100000000000000000000000000000000000000000000000000000000600052602160045260246000fd5b8152602001908152602001600020819055507fe98e5fcd3d43c7e5dd114bafcc428bc7ff8525b014fe3b51fc721ba5671f98fb84604051602001611ab491906134f8565b6040516020818303038152906040528285604051611ad493929190613726565b60405180910390a150505050565b7fdc0d7a095c4e917ecbeb7deda7c942ff9744013d419e37549215a413915e421d611b1481611b0f611e74565b611e7c565b60008060009054906101000a900473ffffffffffffffffffffffffffffffffffffffff169050826000806101000a81548173ffffffffffffffffffffffffffffffffffffffff021916908373ffffffffffffffffffffffffffffffffffffffff1602179055507f4ca142703425bec1d507d5581fac3a3e61eadcbeafbd7c0a03e2897d96de1cc58184604051611bab929190613784565b60405180910390a1505050565b7f33fa24d9aab6b79237248a16094d5f78ea83bb51e42c123ce925a264e7d816cc611bea81611be5611e74565b611e7c565b60018060146101000a81548160ff0219169083151502179055508360086000600b80811115611c42577f4e487b7100000000000000000000000000000000000000000000000000000000600052602160045260246000fd5b600b811115611c7a577f4e487b7100000000000000000000000000000000000000000000000000000000600052602160045260246000fd5b81526020019081526020016000208190555082600860006006600b811115611ccb577f4e487b7100000000000000000000000000000000000000000000000000000000600052602160045260246000fd5b600b811115611d03577f4e487b7100000000000000000000000000000000000000000000000000000000600052602160045260246000fd5b815260200190815260200160002081905550816008600080600b811115611d53577f4e487b7100000000000000000000000000000000000000000000000000000000600052602160045260246000fd5b600b811115611d8b577f4e487b7100000000000000000000000000000000000000000000000000000000600052602160045260246000fd5b8152602001908152602001600020819055507f787b981d8f5743cbeb30cf705674d94e8e200eb038a9307880c94a96c63fb6be611dc6611e74565b858585604051611dd99493929190613645565b60405180910390a150505050565b60006005600083600b811115611e26577f4e487b7100000000000000000000000000000000000000000000000000000000600052602160045260246000fd5b600b811115611e5e577f4e487b7100000000000000000000000000000000000000000000000000000000600052602160045260246000fd5b8152602001908152602001600020549050919050565b600033905090565b611e86828261134d565b611f1557611eab8173ffffffffffffffffffffffffffffffffffffffff1660146127c4565b611eb98360001c60206127c4565b604051602001611eca929190613533565b6040516020818303038152906040526040517f08c379a0000000000000000000000000000000000000000000000000000000008152600401611f0c9190613704565b60405180910390fd5b5050565b600080823b905060008111915050919050565b611f3583610f4e565b811115611f77576040517f08c379a0000000000000000000000000000000000000000000000000000000008152600401611f6e90613820565b60405180910390fd5b6000611f81611476565b905060008173ffffffffffffffffffffffffffffffffffffffff16639e98591b866040518263ffffffff1660e01b8152600401611fbe91906136e9565b60206040518083038186803b158015611fd657600080fd5b505afa158015611fea573d6000803e3d6000fd5b505050506040513d601f19601f8201168201806040525081019061200e9190612ce2565b905060008273ffffffffffffffffffffffffffffffffffffffff1663e7e7f550876040518263ffffffff1660e01b815260040161204b91906136e9565b60206040518083038186803b15801561206357600080fd5b505afa158015612077573d6000803e3d6000fd5b505050506040513d601f19601f8201168201806040525081019061209b9190612ce2565b90508184826120a9896111a6565b6120b391906139d2565b6120bd91906139d2565b11156120fe576040517f08c379a00000000000000000000000000000000000000000000000000000000081526004016120f590613860565b60405180910390fd5b61210786610d1f565b846121129190613a28565b341015612154576040517f08c379a000000000000000000000000000000000000000000000000000000000815260040161214b9061393c565b60405180910390fd5b600061215e611476565b905060005b8581101561227e5760008273ffffffffffffffffffffffffffffffffffffffff1663691562a0898b6040518363ffffffff1660e01b81526004016121a89291906135ae565b602060405180830381600087803b1580156121c257600080fd5b505af11580156121d6573d6000803e3d6000fd5b505050506040513d601f19601f820116820180604052508101906121fa9190612ce2565b90508773ffffffffffffffffffffffffffffffffffffffff1661221b611e74565b73ffffffffffffffffffffffffffffffffffffffff167f920a36f5afdb16ca065da2a9dcd2c2a7a1636581fb58467639943c8c65fc2a8c838c604051612262929190613977565b60405180910390a350808061227690613b9c565b915050612163565b5050505050505050565b61229183611233565b8161229b856113e9565b6122a591906139d2565b11156122e6576040517f08c379a00000000000000000000000000000000000000000000000000000000081526004016122dd906138fc565b60405180910390fd5b6122ef83611de7565b816009600086600b81111561232d577f4e487b7100000000000000000000000000000000000000000000000000000000600052602160045260246000fd5b600b811115612365577f4e487b7100000000000000000000000000000000000000000000000000000000600052602160045260246000fd5b815260200190815260200160002060008573ffffffffffffffffffffffffffffffffffffffff1673ffffffffffffffffffffffffffffffffffffffff168152602001908152602001600020546123bb91906139d2565b11156123fc576040517f08c379a00000000000000000000000000000000000000000000000000000000081526004016123f390613840565b60405180910390fd5b612405836112c0565b816124109190613a28565b341015612452576040517f08c379a00000000000000000000000000000000000000000000000000000000081526004016124499061393c565b60405180910390fd5b806009600085600b811115612490577f4e487b7100000000000000000000000000000000000000000000000000000000600052602160045260246000fd5b600b8111156124c8577f4e487b7100000000000000000000000000000000000000000000000000000000600052602160045260246000fd5b815260200190815260200160002060008473ffffffffffffffffffffffffffffffffffffffff1673ffffffffffffffffffffffffffffffffffffffff168152602001908152602001600020600082825461252291906139d2565b92505081905550806002600085600b811115612567577f4e487b7100000000000000000000000000000000000000000000000000000000600052602160045260246000fd5b600b81111561259f577f4e487b7100000000000000000000000000000000000000000000000000000000600052602160045260246000fd5b815260200190815260200160002060008282546125bc91906139d2565b92505081905550806003600085600b811115612601577f4e487b7100000000000000000000000000000000000000000000000000000000600052602160045260246000fd5b600b811115612639577f4e487b7100000000000000000000000000000000000000000000000000000000600052602160045260246000fd5b8152602001908152602001600020600082825461265691906139d2565b925050819055508173ffffffffffffffffffffffffffffffffffffffff1661267c611e74565b73ffffffffffffffffffffffffffffffffffffffff167f8647d13ad0cc75c61027b863f24f55fe014a808950a431616587abbd2176647083866040516126c3929190613977565b60405180910390a3505050565b80471015612713576040517f08c379a000000000000000000000000000000000000000000000000000000000815260040161270a90613800565b60405180910390fd5b60008273ffffffffffffffffffffffffffffffffffffffff16826040516127399061351e565b60006040518083038185875af1925050503d8060008114612776576040519150601f19603f3d011682016040523d82523d6000602084013e61277b565b606091505b50509050806127bf576040517f08c379a00000000000000000000000000000000000000000000000000000000081526004016127b6906137e0565b60405180910390fd5b505050565b6060600060028360026127d79190613a28565b6127e191906139d2565b67ffffffffffffffff811115612820577f4e487b7100000000000000000000000000000000000000000000000000000000600052604160045260246000fd5b6040519080825280601f01601f1916602001820160405280156128525781602001600182028036833780820191505090505b5090507f3000000000000000000000000000000000000000000000000000000000000000816000815181106128b0577f4e487b7100000000000000000000000000000000000000000000000000000000600052603260045260246000fd5b60200101907effffffffffffffffffffffffffffffffffffffffffffffffffffffffffffff1916908160001a9053507f78000000000000000000000000000000000000000000000000000000000000008160018151811061293a577f4e487b7100000000000000000000000000000000000000000000000000000000600052603260045260246000fd5b60200101907effffffffffffffffffffffffffffffffffffffffffffffffffffffffffffff1916908160001a9053506000600184600261297a9190613a28565b61298491906139d2565b90505b6001811115612a70577f3031323334353637383961626364656600000000000000000000000000000000600f8616601081106129ec577f4e487b7100000000000000000000000000000000000000000000000000000000600052603260045260246000fd5b1a60f81b828281518110612a29577f4e487b7100000000000000000000000000000000000000000000000000000000600052603260045260246000fd5b60200101907effffffffffffffffffffffffffffffffffffffffffffffffffffffffffffff1916908160001a905350600485901c945080612a6990613b72565b9050612987565b5060008414612ab4576040517f08c379a0000000000000000000000000000000000000000000000000000000008152600401612aab90613764565b60405180910390fd5b8091505092915050565b600081359050612acd81613c87565b92915050565b600081359050612ae281613c9e565b92915050565b600081519050612af781613cb5565b92915050565b600081359050612b0c81613ccc565b92915050565b600081359050612b2181613ce3565b92915050565b600081359050612b3681613cf3565b92915050565b600081519050612b4b81613cf3565b92915050565b600060208284031215612b6357600080fd5b6000612b7184828501612abe565b91505092915050565b600060208284031215612b8c57600080fd5b6000612b9a84828501612ae8565b91505092915050565b60008060408385031215612bb657600080fd5b6000612bc485828601612afd565b9250506020612bd585828601612abe565b9150509250929050565b600060208284031215612bf157600080fd5b6000612bff84828501612b12565b91505092915050565b600080600060608486031215612c1d57600080fd5b6000612c2b86828701612b12565b9350506020612c3c86828701612abe565b9250506040612c4d86828701612b27565b9150509250925092565b60008060408385031215612c6a57600080fd5b6000612c7885828601612b12565b9250506020612c8985828601612b27565b9150509250929050565b600080600060608486031215612ca857600080fd5b6000612cb686828701612b12565b9350506020612cc786828701612b27565b9250506040612cd886828701612b27565b9150509250925092565b600060208284031215612cf457600080fd5b6000612d0284828501612b3c565b91505092915050565b60008060408385031215612d1e57600080fd5b6000612d2c85828601612b27565b9250506020612d3d85828601612ad3565b9150509250929050565b600080600060608486031215612d5c57600080fd5b6000612d6a86828701612b27565b9350506020612d7b86828701612b27565b9250506040612d8c86828701612b27565b9150509250925092565b612d9f81613ab6565b82525050565b612dae81613ada565b82525050565b612dbd81613ae6565b82525050565b612dcc81613b2d565b82525050565b612de3612dde82613b2d565b613be5565b82525050565b6000612df4826139a0565b612dfe81856139b6565b9350612e0e818560208601613b3f565b612e1781613c55565b840191505092915050565b6000612e2d826139a0565b612e3781856139c7565b9350612e47818560208601613b3f565b80840191505092915050565b6000612e606020836139b6565b91507f537472696e67733a20686578206c656e67746820696e73756666696369656e746000830152602082019050919050565b6000612ea0600d836139b6565b91507f616363657373436f6e74726f6c000000000000000000000000000000000000006000830152602082019050919050565b6000612ee0601a836139b6565b91507f4567674d61726b65743a20756e61626c6520746f20636c61696d0000000000006000830152602082019050919050565b6000612f20603a836139b6565b91507f416464726573733a20756e61626c6520746f2073656e642076616c75652c207260008301527f6563697069656e74206d617920686176652072657665727465640000000000006020830152604082019050919050565b6000612f86601d836139b6565b91507f416464726573733a20696e73756666696369656e742062616c616e63650000006000830152602082019050919050565b6000612fc66014836139b6565b91507f4567674d61726b65743a2062616420636f756e740000000000000000000000006000830152602082019050919050565b6000613006600c836139c7565b91507f6d6178427579436f756e742e00000000000000000000000000000000000000006000830152600c82019050919050565b6000613046602c836139b6565b91507f4567674d61726b65743a20657863656564206d61782070726573616c6520636f60008301527f756e7420706572207573657200000000000000000000000000000000000000006020830152604082019050919050565b60006130ac600d836139c7565b91507f7075626c69635072696365732e000000000000000000000000000000000000006000830152600d82019050919050565b60006130ec602c836139b6565b91507f4567674d61726b65743a20756e61626c6520746f20627579207375636820616d60008301527f6f756e74206f66206567677300000000000000000000000000000000000000006020830152604082019050919050565b60006131526025836139b6565b91507f4567674d61726b65743a20616464726573732063616e6e6f7420626520636f6e60008301527f74726163740000000000000000000000000000000000000000000000000000006020830152604082019050919050565b60006131b86005836139b6565b91507f746f6b656e0000000000000000000000000000000000000000000000000000006000830152602082019050919050565b60006131f8600e836139c7565b91507f70726573616c655072696365732e0000000000000000000000000000000000006000830152600e82019050919050565b60006132386037836139b6565b91507f4567674d61726b65743a20756e61626c6520746f20616c6c6f7720707265736160008301527f6c6520776974682074686520676976656e20636f756e740000000000000000006020830152604082019050919050565b600061329e6000836139ab565b9150600082019050919050565b60006132b8602d836139b6565b91507f4567674d61726b65743a2065786365656420746f74616c20616c6c6f7765642060008301527f70726573616c6520636f756e74000000000000000000000000000000000000006020830152604082019050919050565b600061331e6017836139c7565b91507f416363657373436f6e74726f6c3a206163636f756e74200000000000000000006000830152601782019050919050565b600061335e6022836139b6565b91507f4567674d61726b65743a20756e61626c6520746f20616c6c6f7720707265736160008301527f6c650000000000000000000000000000000000000000000000000000000000006020830152604082019050919050565b60006133c46030836139b6565b91507f4567674d61726b65743a20696e636f727265637420616d6f756e742073656e7460008301527f20746f2074686520636f6e7472616374000000000000000000000000000000006020830152604082019050919050565b600061342a6014836139c7565b91507f70726573616c654d6178427579436f756e74732e0000000000000000000000006000830152601482019050919050565b600061346a6011836139c7565b91507f206973206d697373696e6720726f6c65200000000000000000000000000000006000830152601182019050919050565b6134a681613b23565b82525050565b60006134b782612ff9565b91506134c38284612dd2565b60018201915081905092915050565b60006134dd8261309f565b91506134e98284612dd2565b60018201915081905092915050565b6000613503826131eb565b915061350f8284612dd2565b60018201915081905092915050565b600061352982613291565b9150819050919050565b600061353e82613311565b915061354a8285612e22565b91506135558261345d565b91506135618284612e22565b91508190509392505050565b60006135788261341d565b91506135848284612dd2565b60018201915081905092915050565b60006020820190506135a86000830184612d96565b92915050565b60006040820190506135c36000830185612d96565b6135d06020830184612dc3565b9392505050565b60006040820190506135ec6000830185612d96565b6135f9602083018461349d565b9392505050565b60006080820190506136156000830187612d96565b613622602083018661349d565b61362f604083018561349d565b61363c6060830184612dc3565b95945050505050565b600060808201905061365a6000830187612d96565b613667602083018661349d565b613674604083018561349d565b613681606083018461349d565b95945050505050565b600060208201905061369f6000830184612da5565b92915050565b60006020820190506136ba6000830184612db4565b92915050565b60006040820190506136d56000830185612db4565b6136e26020830184612d96565b9392505050565b60006020820190506136fe6000830184612dc3565b92915050565b6000602082019050818103600083015261371e8184612de9565b905092915050565b600060608201905081810360008301526137408186612de9565b905061374f602083018561349d565b61375c604083018461349d565b949350505050565b6000602082019050818103600083015261377d81612e53565b9050919050565b6000606082019050818103600083015261379d81612e93565b90506137ac6020830185612d96565b6137b96040830184612d96565b9392505050565b600060208201905081810360008301526137d981612ed3565b9050919050565b600060208201905081810360008301526137f981612f13565b9050919050565b6000602082019050818103600083015261381981612f79565b9050919050565b6000602082019050818103600083015261383981612fb9565b9050919050565b6000602082019050818103600083015261385981613039565b9050919050565b60006020820190508181036000830152613879816130df565b9050919050565b6000602082019050818103600083015261389981613145565b9050919050565b600060608201905081810360008301526138b9816131ab565b90506138c86020830185612d96565b6138d56040830184612d96565b9392505050565b600060208201905081810360008301526138f58161322b565b9050919050565b60006020820190508181036000830152613915816132ab565b9050919050565b6000602082019050818103600083015261393581613351565b9050919050565b60006020820190508181036000830152613955816133b7565b9050919050565b6000602082019050613971600083018461349d565b92915050565b600060408201905061398c600083018561349d565b6139996020830184612dc3565b9392505050565b600081519050919050565b600081905092915050565b600082825260208201905092915050565b600081905092915050565b60006139dd82613b23565b91506139e883613b23565b9250827fffffffffffffffffffffffffffffffffffffffffffffffffffffffffffffffff03821115613a1d57613a1c613bf7565b5b828201905092915050565b6000613a3382613b23565b9150613a3e83613b23565b9250817fffffffffffffffffffffffffffffffffffffffffffffffffffffffffffffffff0483118215151615613a7757613a76613bf7565b5b828202905092915050565b6000613a8d82613b23565b9150613a9883613b23565b925082821015613aab57613aaa613bf7565b5b828203905092915050565b6000613ac182613b03565b9050919050565b6000613ad382613b03565b9050919050565b60008115159050919050565b6000819050919050565b6000819050613afe82613c73565b919050565b600073ffffffffffffffffffffffffffffffffffffffff82169050919050565b6000819050919050565b6000613b3882613af0565b9050919050565b60005b83811015613b5d578082015181840152602081019050613b42565b83811115613b6c576000848401525b50505050565b6000613b7d82613b23565b91506000821415613b9157613b90613bf7565b5b600182039050919050565b6000613ba782613b23565b91507fffffffffffffffffffffffffffffffffffffffffffffffffffffffffffffffff821415613bda57613bd9613bf7565b5b600182019050919050565b6000613bf082613c66565b9050919050565b7f4e487b7100000000000000000000000000000000000000000000000000000000600052601160045260246000fd5b7f4e487b7100000000000000000000000000000000000000000000000000000000600052602160045260246000fd5b6000601f19601f8301169050919050565b60008160f81b9050919050565b600c8110613c8457613c83613c26565b5b50565b613c9081613ab6565b8114613c9b57600080fd5b50565b613ca781613ac8565b8114613cb257600080fd5b50565b613cbe81613ada565b8114613cc957600080fd5b50565b613cd581613ae6565b8114613ce057600080fd5b50565b600c8110613cf057600080fd5b50565b613cfc81613b23565b8114613d0757600080fd5b5056fea26469706673582212203578cc8f3d1ce63a212a0f9a2704e6add30bd60b0c8d19e1ebabd9489085ea1b64736f6c63430008000033",
  "linkReferences": {},
  "deployedLinkReferences": {}
}