{
  "_format": "hh-sol-artifact-1",
  "contractName": "DragonArena",
  "sourceName": "contracts/DragonArena.sol",
  "abi": [
    {
      "inputs": [
        {
          "internalType": "address",
          "name": "accessControl",
          "type": "address"
        },
        {
          "internalType": "address",
          "name": "dragonToken",
          "type": "address"
        },
        {
          "internalType": "uint256",
          "name": "weiFightPrice",
          "type": "uint256"
        }
      ],
      "stateMutability": "nonpayable",
      "type": "constructor"
    },
    {
      "anonymous": false,
      "inputs": [
        {
          "indexed": false,
          "internalType": "string",
          "name": "fieldName",
          "type": "string"
        },
        {
          "indexed": false,
          "internalType": "address",
          "name": "previousAddress",
          "type": "address"
        },
        {
          "indexed": false,
          "internalType": "address",
          "name": "newAddress",
          "type": "address"
        }
      ],
      "name": "AddressChanged",
      "type": "event"
    },
    {
      "anonymous": false,
      "inputs": [
        {
          "indexed": false,
          "internalType": "string",
          "name": "fieldName",
          "type": "string"
        },
        {
          "indexed": false,
          "internalType": "bool",
          "name": "previousValue",
          "type": "bool"
        },
        {
          "indexed": false,
          "internalType": "bool",
          "name": "newValue",
          "type": "bool"
        }
      ],
      "name": "BoolValueChanged",
      "type": "event"
    },
    {
      "anonymous": false,
      "inputs": [
        {
          "indexed": true,
          "internalType": "address",
          "name": "operator",
          "type": "address"
        },
        {
          "indexed": true,
          "internalType": "address",
          "name": "to",
          "type": "address"
        },
        {
          "indexed": false,
          "internalType": "uint256",
          "name": "amount",
          "type": "uint256"
        }
      ],
      "name": "EthersWithdrawn",
      "type": "event"
    },
    {
      "anonymous": false,
      "inputs": [
        {
          "indexed": true,
          "internalType": "address",
          "name": "operator",
          "type": "address"
        },
        {
          "indexed": false,
          "internalType": "uint256",
          "name": "fightId",
          "type": "uint256"
        }
      ],
      "name": "FightCancelled",
      "type": "event"
    },
    {
      "anonymous": false,
      "inputs": [
        {
          "indexed": true,
          "internalType": "address",
          "name": "operator",
          "type": "address"
        },
        {
          "indexed": false,
          "internalType": "uint256",
          "name": "fightId",
          "type": "uint256"
        },
        {
          "indexed": false,
          "internalType": "uint256",
          "name": "winnerId",
          "type": "uint256"
        },
        {
          "indexed": false,
          "internalType": "bool",
          "name": "technicalDefeat",
          "type": "bool"
        }
      ],
      "name": "FightFinished",
      "type": "event"
    },
    {
      "anonymous": false,
      "inputs": [
        {
          "indexed": true,
          "internalType": "address",
          "name": "originator",
          "type": "address"
        },
        {
          "indexed": false,
          "internalType": "uint256",
          "name": "fightId",
          "type": "uint256"
        },
        {
          "indexed": false,
          "internalType": "uint256",
          "name": "dragonId",
          "type": "uint256"
        }
      ],
      "name": "JoinFight",
      "type": "event"
    },
    {
      "anonymous": false,
      "inputs": [
        {
          "indexed": false,
          "internalType": "uint256",
          "name": "tokenId",
          "type": "uint256"
        },
        {
          "indexed": true,
          "internalType": "address",
          "name": "holder",
          "type": "address"
        }
      ],
      "name": "TokenLocked",
      "type": "event"
    },
    {
      "anonymous": false,
      "inputs": [
        {
          "indexed": false,
          "internalType": "uint256",
          "name": "tokenId",
          "type": "uint256"
        },
        {
          "indexed": true,
          "internalType": "address",
          "name": "holder",
          "type": "address"
        }
      ],
      "name": "TokenWithdrawn",
      "type": "event"
    },
    {
      "anonymous": false,
      "inputs": [
        {
          "indexed": false,
          "internalType": "string",
          "name": "fieldName",
          "type": "string"
        },
        {
          "indexed": false,
          "internalType": "uint256",
          "name": "previousValue",
          "type": "uint256"
        },
        {
          "indexed": false,
          "internalType": "uint256",
          "name": "newValue",
          "type": "uint256"
        }
      ],
      "name": "ValueChanged",
      "type": "event"
    },
    {
      "inputs": [],
      "name": "CEO_ROLE",
      "outputs": [
        {
          "internalType": "bytes32",
          "name": "",
          "type": "bytes32"
        }
      ],
      "stateMutability": "view",
      "type": "function"
    },
    {
      "inputs": [],
      "name": "CFO_ROLE",
      "outputs": [
        {
          "internalType": "bytes32",
          "name": "",
          "type": "bytes32"
        }
      ],
      "stateMutability": "view",
      "type": "function"
    },
    {
      "inputs": [],
      "name": "COO_ROLE",
      "outputs": [
        {
          "internalType": "bytes32",
          "name": "",
          "type": "bytes32"
        }
      ],
      "stateMutability": "view",
      "type": "function"
    },
    {
      "inputs": [],
      "name": "accessControlAddress",
      "outputs": [
        {
          "internalType": "address",
          "name": "",
          "type": "address"
        }
      ],
      "stateMutability": "view",
      "type": "function"
    },
    {
      "inputs": [
        {
          "internalType": "uint256",
          "name": "attackerId",
          "type": "uint256"
        }
      ],
      "name": "attackerFight",
      "outputs": [
        {
          "internalType": "uint256",
          "name": "",
          "type": "uint256"
        }
      ],
      "stateMutability": "view",
      "type": "function"
    },
    {
      "inputs": [
        {
          "internalType": "uint256",
          "name": "fightId",
          "type": "uint256"
        }
      ],
      "name": "cancelFight",
      "outputs": [],
      "stateMutability": "nonpayable",
      "type": "function"
    },
    {
      "inputs": [
        {
          "internalType": "uint256",
          "name": "fightId",
          "type": "uint256"
        }
      ],
      "name": "fightInfo",
      "outputs": [
        {
          "components": [
            {
              "internalType": "uint256",
              "name": "dragon1Id",
              "type": "uint256"
            },
            {
              "internalType": "uint256",
              "name": "dragon2Id",
              "type": "uint256"
            },
            {
              "internalType": "enum FightInfo.Types",
              "name": "fightType",
              "type": "uint8"
            },
            {
              "internalType": "uint256",
              "name": "betAmount",
              "type": "uint256"
            }
          ],
          "internalType": "struct FightInfo.Details",
          "name": "",
          "type": "tuple"
        }
      ],
      "stateMutability": "view",
      "type": "function"
    },
    {
      "inputs": [
        {
          "internalType": "uint256",
          "name": "dragonId",
          "type": "uint256"
        }
      ],
      "name": "fightOf",
      "outputs": [
        {
          "internalType": "uint256",
          "name": "",
          "type": "uint256"
        }
      ],
      "stateMutability": "view",
      "type": "function"
    },
    {
      "inputs": [
        {
          "internalType": "bytes",
          "name": "fightToken",
          "type": "bytes"
        }
      ],
      "name": "getFightId",
      "outputs": [
        {
          "internalType": "uint256",
          "name": "",
          "type": "uint256"
        }
      ],
      "stateMutability": "pure",
      "type": "function"
    },
    {
      "inputs": [
        {
          "internalType": "bytes32",
          "name": "role",
          "type": "bytes32"
        },
        {
          "internalType": "address",
          "name": "account",
          "type": "address"
        }
      ],
      "name": "hasRole",
      "outputs": [
        {
          "internalType": "bool",
          "name": "",
          "type": "bool"
        }
      ],
      "stateMutability": "view",
      "type": "function"
    },
    {
      "inputs": [
        {
          "internalType": "uint256",
          "name": "tokenId",
          "type": "uint256"
        }
      ],
      "name": "holderOf",
      "outputs": [
        {
          "internalType": "address",
          "name": "",
          "type": "address"
        }
      ],
      "stateMutability": "view",
      "type": "function"
    },
    {
      "inputs": [
        {
          "internalType": "uint256",
          "name": "tokenId",
          "type": "uint256"
        }
      ],
      "name": "isLocked",
      "outputs": [
        {
          "internalType": "bool",
          "name": "",
          "type": "bool"
        }
      ],
      "stateMutability": "view",
      "type": "function"
    },
    {
      "inputs": [
        {
          "internalType": "uint256",
          "name": "dragonId",
          "type": "uint256"
        },
        {
          "internalType": "bytes",
          "name": "fightToken",
          "type": "bytes"
        }
      ],
      "name": "joinFight",
      "outputs": [],
      "stateMutability": "payable",
      "type": "function"
    },
    {
      "inputs": [
        {
          "internalType": "address",
          "name": "operator",
          "type": "address"
        },
        {
          "internalType": "address",
          "name": "",
          "type": "address"
        },
        {
          "internalType": "uint256",
          "name": "",
          "type": "uint256"
        },
        {
          "internalType": "bytes",
          "name": "",
          "type": "bytes"
        }
      ],
      "name": "onERC721Received",
      "outputs": [
        {
          "internalType": "bytes4",
          "name": "",
          "type": "bytes4"
        }
      ],
      "stateMutability": "nonpayable",
      "type": "function"
    },
    {
      "inputs": [],
      "name": "price",
      "outputs": [
        {
          "internalType": "uint256",
          "name": "",
          "type": "uint256"
        }
      ],
      "stateMutability": "view",
      "type": "function"
    },
    {
      "inputs": [
        {
          "internalType": "address",
          "name": "sender",
          "type": "address"
        },
        {
          "internalType": "uint256",
          "name": "tokenId",
          "type": "uint256"
        },
        {
          "internalType": "address",
          "name": "_tokenContract",
          "type": "address"
        },
        {
          "internalType": "bytes",
          "name": "data",
          "type": "bytes"
        }
      ],
      "name": "receiveApproval",
      "outputs": [],
      "stateMutability": "nonpayable",
      "type": "function"
    },
    {
      "inputs": [
        {
          "internalType": "address",
          "name": "newAddress",
          "type": "address"
        }
      ],
      "name": "setAccessControlAddress",
      "outputs": [],
      "stateMutability": "nonpayable",
      "type": "function"
    },
    {
      "inputs": [
        {
          "internalType": "uint256",
          "name": "newPrice",
          "type": "uint256"
        }
      ],
      "name": "setPrice",
      "outputs": [],
      "stateMutability": "nonpayable",
      "type": "function"
    },
    {
      "inputs": [
        {
          "internalType": "address",
          "name": "newAddress",
          "type": "address"
        }
      ],
      "name": "setTokenContract",
      "outputs": [],
      "stateMutability": "nonpayable",
      "type": "function"
    },
    {
      "inputs": [
        {
          "internalType": "uint256",
          "name": "fightId",
          "type": "uint256"
        }
      ],
      "name": "startFight",
      "outputs": [],
      "stateMutability": "nonpayable",
      "type": "function"
    },
    {
      "inputs": [],
      "name": "tokenContract",
      "outputs": [
        {
          "internalType": "address",
          "name": "",
          "type": "address"
        }
      ],
      "stateMutability": "view",
      "type": "function"
    },
    {
      "inputs": [
        {
          "internalType": "uint256",
          "name": "tokenId",
          "type": "uint256"
        }
      ],
      "name": "withdraw",
      "outputs": [],
      "stateMutability": "nonpayable",
      "type": "function"
    },
    {
      "inputs": [
        {
          "internalType": "uint256",
          "name": "amount",
          "type": "uint256"
        },
        {
          "internalType": "address payable",
          "name": "to",
          "type": "address"
        }
      ],
      "name": "withdrawEthers",
      "outputs": [],
      "stateMutability": "nonpayable",
      "type": "function"
    }
  ],
  "bytecode": "0x60806040523480156200001157600080fd5b5060405162003e6438038062003e648339818101604052810190620000379190620000fc565b828281806000806101000a81548173ffffffffffffffffffffffffffffffffffffffff021916908373ffffffffffffffffffffffffffffffffffffffff1602179055505080600160006101000a81548173ffffffffffffffffffffffffffffffffffffffff021916908373ffffffffffffffffffffffffffffffffffffffff160217905550505080600681905550505050620001c4565b600081519050620000df8162000190565b92915050565b600081519050620000f681620001aa565b92915050565b6000806000606084860312156200011257600080fd5b60006200012286828701620000ce565b93505060206200013586828701620000ce565b92505060406200014886828701620000e5565b9150509250925092565b60006200015f8262000166565b9050919050565b600073ffffffffffffffffffffffffffffffffffffffff82169050919050565b6000819050919050565b6200019b8162000152565b8114620001a757600080fd5b50565b620001b58162000186565b8114620001c157600080fd5b50565b613c9080620001d46000396000f3fe6080604052600436106101405760003560e01c806391b7f5ed116100b6578063bbcd5bbe1161006f578063bbcd5bbe1461044d578063dbacc23714610476578063e8d56b8b146104b3578063f4004701146104dc578063f6aacfb114610519578063f9ca62d91461055657610140565b806391b7f5ed1461034a57806391d14854146103735780639bd1c356146103b05780639f6f50ed146103cc578063a035b1fe146103f7578063b514be631461042257610140565b80633acfd44f116101085780633acfd44f1461023a57806355a373d6146102655780635ef922bb146102905780635fe5506f146102cd57806366741377146102f65780638f4ffcb11461032157610140565b806305bbe8d814610145578063150b7a02146101825780632a6e5e11146101bf5780632e1a7d4d146101e857806331d0382014610211575b600080fd5b34801561015157600080fd5b5061016c60048036038101906101679190612803565b610593565b60405161017991906137ca565b60405180910390f35b34801561018e57600080fd5b506101a960048036038101906101a49190612630565b6105b0565b6040516101b6919061347e565b60405180910390f35b3480156101cb57600080fd5b506101e660048036038101906101e19190612855565b610633565b005b3480156101f457600080fd5b5061020f600480360381019061020a9190612803565b6106ff565b005b34801561021d57600080fd5b5061023860048036038101906102339190612803565b61076a565b005b34801561024657600080fd5b5061024f610bcb565b60405161025c919061343a565b60405180910390f35b34801561027157600080fd5b5061027a610bef565b604051610287919061337f565b60405180910390f35b34801561029c57600080fd5b506102b760048036038101906102b29190612803565b610c19565b6040516102c491906137af565b60405180910390f35b3480156102d957600080fd5b506102f460048036038101906102ef9190612803565b610c44565b005b34801561030257600080fd5b5061030b610da1565b604051610318919061337f565b60405180910390f35b34801561032d57600080fd5b50610348600480360381019061034391906126b0565b610dca565b005b34801561035657600080fd5b50610371600480360381019061036c9190612803565b610f52565b005b34801561037f57600080fd5b5061039a60048036038101906103959190612759565b610fd0565b6040516103a7919061341f565b60405180910390f35b6103ca60048036038101906103c59190612891565b61106c565b005b3480156103d857600080fd5b506103e161150c565b6040516103ee919061343a565b60405180910390f35b34801561040357600080fd5b5061040c611530565b60405161041991906137ca565b60405180910390f35b34801561042e57600080fd5b5061043761153a565b604051610444919061343a565b60405180910390f35b34801561045957600080fd5b50610474600480360381019061046f9190612607565b61155e565b005b34801561048257600080fd5b5061049d60048036038101906104989190612803565b611636565b6040516104aa919061337f565b60405180910390f35b3480156104bf57600080fd5b506104da60048036038101906104d59190612607565b611673565b005b3480156104e857600080fd5b5061050360048036038101906104fe9190612795565b611749565b60405161051091906137ca565b60405180910390f35b34801561052557600080fd5b50610540600480360381019061053b9190612803565b61176e565b60405161054d919061341f565b60405180910390f35b34801561056257600080fd5b5061057d60048036038101906105789190612803565b6117da565b60405161058a91906137ca565b60405180910390f35b600060046000838152602001908152602001600020549050919050565b60003073ffffffffffffffffffffffffffffffffffffffff168673ffffffffffffffffffffffffffffffffffffffff1614610620576040517f08c379a000000000000000000000000000000000000000000000000000000000815260040161061790613617565b60405180910390fd5b63150b7a0260e01b905095945050505050565b7f33fa24d9aab6b79237248a16094d5f78ea83bb51e42c123ce925a264e7d816cc610665816106606117f7565b6117ff565b61068e838373ffffffffffffffffffffffffffffffffffffffff1661189c90919063ffffffff16565b8173ffffffffffffffffffffffffffffffffffffffff166106ad6117f7565b73ffffffffffffffffffffffffffffffffffffffff167f372bb9ce23c45af0229f3ad425305ebadfb790c0b0453fa3077a02d7d8c987bb856040516106f291906137ca565b60405180910390a3505050565b600061070a82610593565b14801561071f5750600061071d826117da565b145b61075e576040517f08c379a0000000000000000000000000000000000000000000000000000000008152600401610755906136b7565b60405180910390fd5b61076781611990565b50565b7fefa080c67ecf4a6bf40c9dc64173420c08f359250ca6562d7c80f7c7b9b1396961079c816107976117f7565b6117ff565b600060036000848152602001908152602001600020549050600081116107f7576040517f08c379a00000000000000000000000000000000000000000000000000000000081526004016107ee9061376f565b60405180910390fd5b600061080282611a70565b9050610811816000015161176e565b80156108265750610825816020015161176e565b5b610865576040517f08c379a000000000000000000000000000000000000000000000000000000000815260040161085c90613557565b60405180910390fd5b600061086f610bef565b90508073ffffffffffffffffffffffffffffffffffffffff16637e7849ff83600001516040518263ffffffff1660e01b81526004016108ae91906137ca565b602060405180830381600087803b1580156108c857600080fd5b505af11580156108dc573d6000803e3d6000fd5b505050506040513d601f19601f82011682018060405250810190610900919061282c565b508073ffffffffffffffffffffffffffffffffffffffff16637e7849ff83602001516040518263ffffffff1660e01b815260040161093e91906137ca565b602060405180830381600087803b15801561095857600080fd5b505af115801561096c573d6000803e3d6000fd5b505050506040513d601f19601f82011682018060405250810190610990919061282c565b50600080600061099f85611b44565b92509250925080610af45760008473ffffffffffffffffffffffffffffffffffffffff1663225b38fd87600001516040518263ffffffff1660e01b81526004016109e991906137ca565b60e06040518083038186803b158015610a0157600080fd5b505afa158015610a15573d6000803e3d6000fd5b505050506040513d601f19601f82011682018060405250810190610a3991906127da565b905060008573ffffffffffffffffffffffffffffffffffffffff1663225b38fd88602001516040518263ffffffff1660e01b8152600401610a7a91906137ca565b60e06040518083038186803b158015610a9257600080fd5b505afa158015610aa6573d6000803e3d6000fd5b505050506040513d601f19601f82011682018060405250810190610aca91906127da565b9050610ae987600001518360a0015189602001518460a001518e611c16565b809550819650505050505b610b0083838784611cbb565b6005600086600001518152602001908152602001600020600090556004600086600001518152602001908152602001600020600090556004600086602001518152602001908152602001600020600090556003600089815260200190815260200160002060009055610b706117f7565b73ffffffffffffffffffffffffffffffffffffffff167f2d9c88b11be04614bf09782282a5573f8eac48eafce40c782ce4dba21fdc4f01898584604051610bb99392919061380e565b60405180910390a25050505050505050565b7fefa080c67ecf4a6bf40c9dc64173420c08f359250ca6562d7c80f7c7b9b1396981565b6000600160009054906101000a900473ffffffffffffffffffffffffffffffffffffffff16905090565b610c2161241a565b610c3d6003600084815260200190815260200160002054611a70565b9050919050565b7fefa080c67ecf4a6bf40c9dc64173420c08f359250ca6562d7c80f7c7b9b13969610c7681610c716117f7565b6117ff565b60006003600084815260200190815260200160002054905060008111610cd1576040517f08c379a0000000000000000000000000000000000000000000000000000000008152600401610cc89061376f565b60405180910390fd5b6000610cdc82611a70565b90506005600082600001518152602001908152602001600020600090556004600082600001518152602001908152602001600020600090556004600082602001518152602001908152602001600020600090556003600085815260200190815260200160002060009055610d4e6117f7565b73ffffffffffffffffffffffffffffffffffffffff167f3e1afbbac8116846aca29cd7c86ccddbfaf2d62826bbc44d64a8dc52f92d61af85604051610d9391906137ca565b60405180910390a250505050565b60008060009054906101000a900473ffffffffffffffffffffffffffffffffffffffff16905090565b610dd26117f7565b73ffffffffffffffffffffffffffffffffffffffff16610df0610bef565b73ffffffffffffffffffffffffffffffffffffffff1614610e46576040517f08c379a0000000000000000000000000000000000000000000000000000000008152600401610e3d906134db565b60405180910390fd5b610e4e610bef565b73ffffffffffffffffffffffffffffffffffffffff168373ffffffffffffffffffffffffffffffffffffffff1614610ebb576040517f08c379a0000000000000000000000000000000000000000000000000000000008152600401610eb2906135d7565b60405180910390fd5b610ec3610bef565b73ffffffffffffffffffffffffffffffffffffffff1663b88d4fde86308786866040518663ffffffff1660e01b8152600401610f039594939291906133d1565b600060405180830381600087803b158015610f1d57600080fd5b505af1158015610f31573d6000803e3d6000fd5b50505050610f3f8486611e25565b610f4b85858484611ec9565b5050505050565b7f33fa24d9aab6b79237248a16094d5f78ea83bb51e42c123ce925a264e7d816cc610f8481610f7f6117f7565b6117ff565b60006006549050826006819055507fe98e5fcd3d43c7e5dd114bafcc428bc7ff8525b014fe3b51fc721ba5671f98fb8184604051610fc39291906136f7565b60405180910390a1505050565b6000610fda610da1565b73ffffffffffffffffffffffffffffffffffffffff166391d1485484846040518363ffffffff1660e01b8152600401611014929190613455565b60206040518083038186803b15801561102c57600080fd5b505afa158015611040573d6000803e3d6000fd5b505050506040513d601f19601f820116820180604052508101906110649190612730565b905092915050565b826110756117f7565b73ffffffffffffffffffffffffffffffffffffffff1661109482611636565b73ffffffffffffffffffffffffffffffffffffffff16146110ea576040517f08c379a00000000000000000000000000000000000000000000000000000000081526004016110e190613577565b60405180910390fd5b60006110f585610593565b14611135576040517f08c379a000000000000000000000000000000000000000000000000000000000815260040161112c906135f7565b60405180910390fd5b6000806111428585611ecf565b915091506000816000015111801561115e575060008160200151115b801561117257508060200151816000015114155b80156112905750600060018111156111b3577f4e487b7100000000000000000000000000000000000000000000000000000000600052602160045260246000fd5b816040015160018111156111f0577f4e487b7100000000000000000000000000000000000000000000000000000000600052602160045260246000fd5b148015611201575060008160600151145b8061128f5750600180811115611240577f4e487b7100000000000000000000000000000000000000000000000000000000600052602160045260246000fd5b8160400151600181111561127d577f4e487b7100000000000000000000000000000000000000000000000000000000600052602160045260246000fd5b14801561128e575060008160600151115b5b5b6112cf576040517f08c379a00000000000000000000000000000000000000000000000000000000081526004016112c690613677565b60405180910390fd5b80600001518614806112e45750806020015186145b611323576040517f08c379a000000000000000000000000000000000000000000000000000000000815260040161131a906134fb565b60405180910390fd5b806060015160065461133591906138b9565b341015611377576040517f08c379a000000000000000000000000000000000000000000000000000000000815260040161136e906135b7565b60405180910390fd5b60006113838686611749565b90508160000151871480156113a45750806113a18360200151610593565b14155b156113e4576040517f08c379a00000000000000000000000000000000000000000000000000000000081526004016113db9061378f565b60405180910390fd5b8160200151871480156114035750600061140183600001516117da565b115b15611443576040517f08c379a000000000000000000000000000000000000000000000000000000000815260040161143a90613597565b60405180910390fd5b600060036000838152602001908152602001600020541415611478578260036000838152602001908152602001600020819055505b806005600084600001518152602001908152602001600020819055508060046000898152602001908152602001600020819055506114b46117f7565b73ffffffffffffffffffffffffffffffffffffffff167f6df0317433e5e92b71d2c7e9e7b1f5f7a08b092395be345111a77dd7d607fa7b82896040516114fb9291906137e5565b60405180910390a250505050505050565b7f33fa24d9aab6b79237248a16094d5f78ea83bb51e42c123ce925a264e7d816cc81565b6000600654905090565b7fdc0d7a095c4e917ecbeb7deda7c942ff9744013d419e37549215a413915e421d81565b7fdc0d7a095c4e917ecbeb7deda7c942ff9744013d419e37549215a413915e421d6115908161158b6117f7565b6117ff565b6000600160009054906101000a900473ffffffffffffffffffffffffffffffffffffffff16905082600160006101000a81548173ffffffffffffffffffffffffffffffffffffffff021916908373ffffffffffffffffffffffffffffffffffffffff1602179055507f4ca142703425bec1d507d5581fac3a3e61eadcbeafbd7c0a03e2897d96de1cc58184604051611629929190613733565b60405180910390a1505050565b60006002600083815260200190815260200160002060009054906101000a900473ffffffffffffffffffffffffffffffffffffffff169050919050565b7fdc0d7a095c4e917ecbeb7deda7c942ff9744013d419e37549215a413915e421d6116a5816116a06117f7565b6117ff565b60008060009054906101000a900473ffffffffffffffffffffffffffffffffffffffff169050826000806101000a81548173ffffffffffffffffffffffffffffffffffffffff021916908373ffffffffffffffffffffffffffffffffffffffff1602179055507f4ca142703425bec1d507d5581fac3a3e61eadcbeafbd7c0a03e2897d96de1cc5818460405161173c92919061351b565b60405180910390a1505050565b6000828260405161175b9291906132da565b604051809103902060001c905092915050565b60008073ffffffffffffffffffffffffffffffffffffffff166002600084815260200190815260200160002060009054906101000a900473ffffffffffffffffffffffffffffffffffffffff1673ffffffffffffffffffffffffffffffffffffffff1614159050919050565b600060056000838152602001908152602001600020549050919050565b600033905090565b6118098282610fd0565b6118985761182e8173ffffffffffffffffffffffffffffffffffffffff166014611f42565b61183c8360001c6020611f42565b60405160200161184d929190613308565b6040516020818303038152906040526040517f08c379a000000000000000000000000000000000000000000000000000000000815260040161188f9190613499565b60405180910390fd5b5050565b804710156118df576040517f08c379a00000000000000000000000000000000000000000000000000000000081526004016118d690613657565b60405180910390fd5b60008273ffffffffffffffffffffffffffffffffffffffff1682604051611905906132f3565b60006040518083038185875af1925050503d8060008114611942576040519150601f19603f3d011682016040523d82523d6000602084013e611947565b606091505b505090508061198b576040517f08c379a000000000000000000000000000000000000000000000000000000000815260040161198290613637565b60405180910390fd5b505050565b806119996117f7565b73ffffffffffffffffffffffffffffffffffffffff166119b882611636565b73ffffffffffffffffffffffffffffffffffffffff1614611a0e576040517f08c379a0000000000000000000000000000000000000000000000000000000008152600401611a0590613577565b60405180910390fd5b611a178261223c565b611a1f6117f7565b73ffffffffffffffffffffffffffffffffffffffff167f61dc2e6e64c7a742717c1eae2958f9bc011c40d616afd06af648eff740c2b04d83604051611a6491906137ca565b60405180910390a25050565b611a7861241a565b60405180608001604052808363ffffffff168152602001602084901c63ffffffff168152602001604084901c60ff166001811115611adf577f4e487b7100000000000000000000000000000000000000000000000000000000600052602160045260246000fd5b6001811115611b17577f4e487b7100000000000000000000000000000000000000000000000000000000600052602160045260246000fd5b8152602001604884901c76ffffffffffffffffffffffffffffffffffffffffffffff168152509050919050565b6000806000806004600086600001518152602001908152602001600020549050600060046000876020015181526020019081526020016000205490506000821180611b8f5750600081115b611bce576040517f08c379a0000000000000000000000000000000000000000000000000000000008152600401611bc590613697565b60405180910390fd5b60008214611bfa5760008114611be8576000806000611bf5565b8560000151866020015160015b611c07565b8560200151866000015160015b94509450945050509193909250565b60008060006402540be400905060008588611c3191906138b9565b90506000611c5a82611c4c858c61230190919063ffffffff16565b61231790919063ffffffff16565b90506000611c8d611c74858561230190919063ffffffff16565b611c7f448a1861232d565b61236490919063ffffffff16565b905081811015611ca6578a899550955050505050611cb1565b888b95509550505050505b9550959350505050565b60006001811115611cf5577f4e487b7100000000000000000000000000000000000000000000000000000000600052602160045260246000fd5b82604001516001811115611d32577f4e487b7100000000000000000000000000000000000000000000000000000000600052602160045260246000fd5b1480611d3b5750805b15611d6057611d5283611d4d86611636565b611e25565b611d5b8361223c565b611e1f565b600180811115611d99577f4e487b7100000000000000000000000000000000000000000000000000000000600052602160045260246000fd5b82604001516001811115611dd6577f4e487b7100000000000000000000000000000000000000000000000000000000600052602160045260246000fd5b1415611e1e57611e1d60028360600151611df09190613940565b611df986611636565b73ffffffffffffffffffffffffffffffffffffffff1661189c90919063ffffffff16565b5b5b50505050565b806002600084815260200190815260200160002060006101000a81548173ffffffffffffffffffffffffffffffffffffffff021916908373ffffffffffffffffffffffffffffffffffffffff1602179055508073ffffffffffffffffffffffffffffffffffffffff167f9ecfd70e9ff36df72989324a49559383d39f9290d700b10cf5ac10dcb68d264383604051611ebd91906137ca565b60405180910390a25050565b50505050565b6000611ed961241a565b6000611f2a85858080601f016020809104026020016040519081016040528093929190818152602001838380828437600081840152601f19601f82011690508083019250505050505050600061237a565b905080611f3682611a70565b92509250509250929050565b606060006002836002611f559190613940565b611f5f91906138b9565b67ffffffffffffffff811115611f9e577f4e487b7100000000000000000000000000000000000000000000000000000000600052604160045260246000fd5b6040519080825280601f01601f191660200182016040528015611fd05781602001600182028036833780820191505090505b5090507f30000000000000000000000000000000000000000000000000000000000000008160008151811061202e577f4e487b7100000000000000000000000000000000000000000000000000000000600052603260045260246000fd5b60200101907effffffffffffffffffffffffffffffffffffffffffffffffffffffffffffff1916908160001a9053507f7800000000000000000000000000000000000000000000000000000000000000816001815181106120b8577f4e487b7100000000000000000000000000000000000000000000000000000000600052603260045260246000fd5b60200101907effffffffffffffffffffffffffffffffffffffffffffffffffffffffffffff1916908160001a905350600060018460026120f89190613940565b61210291906138b9565b90505b60018111156121ee577f3031323334353637383961626364656600000000000000000000000000000000600f86166010811061216a577f4e487b7100000000000000000000000000000000000000000000000000000000600052603260045260246000fd5b1a60f81b8282815181106121a7577f4e487b7100000000000000000000000000000000000000000000000000000000600052603260045260246000fd5b60200101907effffffffffffffffffffffffffffffffffffffffffffffffffffffffffffff1916908160001a905350600485901c9450806121e790613a91565b9050612105565b5060008414612232576040517f08c379a0000000000000000000000000000000000000000000000000000000008152600401612229906134bb565b60405180910390fd5b8091505092915050565b600061224782611636565b9050600073ffffffffffffffffffffffffffffffffffffffff168173ffffffffffffffffffffffffffffffffffffffff16146122fd57612285610bef565b73ffffffffffffffffffffffffffffffffffffffff166342842e0e3083856040518463ffffffff1660e01b81526004016122c19392919061339a565b600060405180830381600087803b1580156122db57600080fd5b505af11580156122ef573d6000803e3d6000fd5b505050506122fc826123e1565b5b5050565b6000818361230f9190613940565b905092915050565b60008183612325919061390f565b905092915050565b600044428360405160200161234493929190613342565b6040516020818303038152906040528051906020012060001c9050919050565b600081836123729190613ac5565b905092915050565b600060208261238991906138b9565b835110156123cc576040517f08c379a00000000000000000000000000000000000000000000000000000000081526004016123c3906136d7565b60405180910390fd5b60008260208501015190508091505092915050565b6002600082815260200190815260200160002060006101000a81549073ffffffffffffffffffffffffffffffffffffffff021916905550565b604051806080016040528060008152602001600081526020016000600181111561246d577f4e487b7100000000000000000000000000000000000000000000000000000000600052602160045260246000fd5b8152602001600081525090565b60008135905061248981613bd7565b92915050565b60008135905061249e81613bee565b92915050565b6000815190506124b381613c05565b92915050565b6000813590506124c881613c1c565b92915050565b60008083601f8401126124e057600080fd5b8235905067ffffffffffffffff8111156124f957600080fd5b60208301915083600182028301111561251157600080fd5b9250929050565b60008151905061252781613c33565b92915050565b600060e0828403121561253f57600080fd5b61254960e0613845565b90506000612559848285016125f2565b600083015250602061256d848285016125f2565b6020830152506040612581848285016125f2565b6040830152506060612595848285016125f2565b60608301525060806125a9848285016125f2565b60808301525060a06125bd848285016125f2565b60a08301525060c06125d184828501612518565b60c08301525092915050565b6000813590506125ec81613c43565b92915050565b60008151905061260181613c43565b92915050565b60006020828403121561261957600080fd5b60006126278482850161247a565b91505092915050565b60008060008060006080868803121561264857600080fd5b60006126568882890161247a565b95505060206126678882890161247a565b9450506040612678888289016125dd565b935050606086013567ffffffffffffffff81111561269557600080fd5b6126a1888289016124ce565b92509250509295509295909350565b6000806000806000608086880312156126c857600080fd5b60006126d68882890161247a565b95505060206126e7888289016125dd565b94505060406126f88882890161247a565b935050606086013567ffffffffffffffff81111561271557600080fd5b612721888289016124ce565b92509250509295509295909350565b60006020828403121561274257600080fd5b6000612750848285016124a4565b91505092915050565b6000806040838503121561276c57600080fd5b600061277a858286016124b9565b925050602061278b8582860161247a565b9150509250929050565b600080602083850312156127a857600080fd5b600083013567ffffffffffffffff8111156127c257600080fd5b6127ce858286016124ce565b92509250509250929050565b600060e082840312156127ec57600080fd5b60006127fa8482850161252d565b91505092915050565b60006020828403121561281557600080fd5b6000612823848285016125dd565b91505092915050565b60006020828403121561283e57600080fd5b600061284c848285016125f2565b91505092915050565b6000806040838503121561286857600080fd5b6000612876858286016125dd565b92505060206128878582860161248f565b9150509250929050565b6000806000604084860312156128a657600080fd5b60006128b4868287016125dd565b935050602084013567ffffffffffffffff8111156128d157600080fd5b6128dd868287016124ce565b92509250509250925092565b6128f28161399a565b82525050565b612901816139be565b82525050565b612910816139ca565b82525050565b61291f816139d4565b82525050565b60006129318385613881565b935061293e838584613a4f565b61294783613bb2565b840190509392505050565b600061295e8385613892565b935061296b838584613a4f565b82840190509392505050565b61298081613a3d565b82525050565b600061299182613876565b61299b818561389d565b93506129ab818560208601613a5e565b6129b481613bb2565b840191505092915050565b60006129ca82613876565b6129d481856138ae565b93506129e4818560208601613a5e565b80840191505092915050565b60006129fd60208361389d565b91507f537472696e67733a20686578206c656e67746820696e73756666696369656e746000830152602082019050919050565b6000612a3d603a8361389d565b91507f4c6f636b61626c6552656365697665723a206e6f7420656e6f7567682070726960008301527f76696c6567657320746f2063616c6c20746865206d6574686f640000000000006020830152604082019050919050565b6000612aa360498361389d565b91507f447261676f6e4172656e613a206120647261676f6e207769746820746865206760008301527f6976656e206964206973206e6f74206173736f6369617465642077697468207460208301527f68697320666967687400000000000000000000000000000000000000000000006040830152606082019050919050565b6000612b2f600d8361389d565b91507f616363657373436f6e74726f6c000000000000000000000000000000000000006000830152602082019050919050565b6000612b6f60548361389d565b91507f447261676f6e4172656e613a20626f74682074686520647261676f6e73206d7560008301527f7374206265206c6f636b6564206f6e2074686520636f6e74726163742062656660208301527f6f7265207374617274696e6720612066696768740000000000000000000000006040830152606082019050919050565b6000612bfb60308361389d565b91507f4c6f636b61626c6552656365697665723a2063616c6c6572206973206e6f742060008301527f74686520746f6b656e20686f6c646572000000000000000000000000000000006020830152604082019050919050565b6000612c6160418361389d565b91507f447261676f6e4172656e613a20746865726520697320616e6f7468657220666960008301527f6768742077697468207468652073616d6520647261676f6e2d61747461636b6560208301527f72000000000000000000000000000000000000000000000000000000000000006040830152606082019050919050565b6000612ced60328361389d565b91507f447261676f6e4172656e613a20696e636f727265637420616d6f756e7420736560008301527f6e7420746f2074686520636f6e747261637400000000000000000000000000006020830152604082019050919050565b6000612d5360338361389d565b91507f4c6f636b61626c6552656365697665723a20756e61626c6520746f207265636560008301527f6976652074686520676976656e20746f6b656e000000000000000000000000006020830152604082019050919050565b6000612db960488361389d565b91507f447261676f6e4172656e613a206120647261676f6e207769746820746865206760008301527f6976656e2069642068617320616c7265616479206a6f696e656420616e6f746860208301527f65722066696768740000000000000000000000000000000000000000000000006040830152606082019050919050565b6000612e4560348361389d565b91507f4c6f636b61626c6552656365697665723a207468652063616c6c65722069732060008301527f6e6f7420612076616c6964206f70657261746f720000000000000000000000006020830152604082019050919050565b6000612eab603a8361389d565b91507f416464726573733a20756e61626c6520746f2073656e642076616c75652c207260008301527f6563697069656e74206d617920686176652072657665727465640000000000006020830152604082019050919050565b6000612f11601d8361389d565b91507f416464726573733a20696e73756666696369656e742062616c616e63650000006000830152602082019050919050565b6000612f51601c8361389d565b91507f447261676f6e4172656e613a2062616420666967687420746f6b656e000000006000830152602082019050919050565b6000612f9160358361389d565b91507f447261676f6e4172656e613a206e6f6e65206f662074686520647261676f6e7360008301527f20686173206a6f696e65642074686520666967687400000000000000000000006020830152604082019050919050565b6000612ff7601f8361389d565b91507f447261676f6e4172656e613a20756e61626c6520746f207769746864726177006000830152602082019050919050565b600061303760158361389d565b91507f746f55696e743235365f6f75744f66426f756e647300000000000000000000006000830152602082019050919050565b6000613077600a8361389d565b91507f66696768745072696365000000000000000000000000000000000000000000006000830152602082019050919050565b60006130b7600d8361389d565b91507f746f6b656e436f6e7472616374000000000000000000000000000000000000006000830152602082019050919050565b60006130f760348361389d565b91507f447261676f6e4172656e613a206120666967687420776974682074686520676960008301527f76656e20696420646f65736e27742065786973740000000000000000000000006020830152604082019050919050565b600061315d600083613892565b9150600082019050919050565b60006131776017836138ae565b91507f416363657373436f6e74726f6c3a206163636f756e74200000000000000000006000830152601782019050919050565b60006131b7603c8361389d565b91507f447261676f6e4172656e613a2074686520647261676f6e2d646566656e64657260008301527f206d7573742061636365707420746865206669676874206669727374000000006020830152604082019050919050565b600061321d6011836138ae565b91507f206973206d697373696e6720726f6c65200000000000000000000000000000006000830152601182019050919050565b60808201600082015161326660008501826132a5565b50602082015161327960208501826132a5565b50604082015161328c6040850182612977565b50606082015161329f60608501826132a5565b50505050565b6132ae81613a33565b82525050565b6132bd81613a33565b82525050565b6132d46132cf82613a33565b613abb565b82525050565b60006132e7828486612952565b91508190509392505050565b60006132fe82613150565b9150819050919050565b60006133138261316a565b915061331f82856129bf565b915061332a82613210565b915061333682846129bf565b91508190509392505050565b600061334e82866132c3565b60208201915061335e82856132c3565b60208201915061336e82846132c3565b602082019150819050949350505050565b600060208201905061339460008301846128e9565b92915050565b60006060820190506133af60008301866128e9565b6133bc60208301856128e9565b6133c960408301846132b4565b949350505050565b60006080820190506133e660008301886128e9565b6133f360208301876128e9565b61340060408301866132b4565b8181036060830152613413818486612925565b90509695505050505050565b600060208201905061343460008301846128f8565b92915050565b600060208201905061344f6000830184612907565b92915050565b600060408201905061346a6000830185612907565b61347760208301846128e9565b9392505050565b60006020820190506134936000830184612916565b92915050565b600060208201905081810360008301526134b38184612986565b905092915050565b600060208201905081810360008301526134d4816129f0565b9050919050565b600060208201905081810360008301526134f481612a30565b9050919050565b6000602082019050818103600083015261351481612a96565b9050919050565b6000606082019050818103600083015261353481612b22565b905061354360208301856128e9565b61355060408301846128e9565b9392505050565b6000602082019050818103600083015261357081612b62565b9050919050565b6000602082019050818103600083015261359081612bee565b9050919050565b600060208201905081810360008301526135b081612c54565b9050919050565b600060208201905081810360008301526135d081612ce0565b9050919050565b600060208201905081810360008301526135f081612d46565b9050919050565b6000602082019050818103600083015261361081612dac565b9050919050565b6000602082019050818103600083015261363081612e38565b9050919050565b6000602082019050818103600083015261365081612e9e565b9050919050565b6000602082019050818103600083015261367081612f04565b9050919050565b6000602082019050818103600083015261369081612f44565b9050919050565b600060208201905081810360008301526136b081612f84565b9050919050565b600060208201905081810360008301526136d081612fea565b9050919050565b600060208201905081810360008301526136f08161302a565b9050919050565b600060608201905081810360008301526137108161306a565b905061371f60208301856132b4565b61372c60408301846132b4565b9392505050565b6000606082019050818103600083015261374c816130aa565b905061375b60208301856128e9565b61376860408301846128e9565b9392505050565b60006020820190508181036000830152613788816130ea565b9050919050565b600060208201905081810360008301526137a8816131aa565b9050919050565b60006080820190506137c46000830184613250565b92915050565b60006020820190506137df60008301846132b4565b92915050565b60006040820190506137fa60008301856132b4565b61380760208301846132b4565b9392505050565b600060608201905061382360008301866132b4565b61383060208301856132b4565b61383d60408301846128f8565b949350505050565b6000604051905081810181811067ffffffffffffffff8211171561386c5761386b613b83565b5b8060405250919050565b600081519050919050565b600082825260208201905092915050565b600081905092915050565b600082825260208201905092915050565b600081905092915050565b60006138c482613a33565b91506138cf83613a33565b9250827fffffffffffffffffffffffffffffffffffffffffffffffffffffffffffffffff0382111561390457613903613af6565b5b828201905092915050565b600061391a82613a33565b915061392583613a33565b92508261393557613934613b25565b5b828204905092915050565b600061394b82613a33565b915061395683613a33565b9250817fffffffffffffffffffffffffffffffffffffffffffffffffffffffffffffffff048311821515161561398f5761398e613af6565b5b828202905092915050565b60006139a582613a13565b9050919050565b60006139b782613a13565b9050919050565b60008115159050919050565b6000819050919050565b60007fffffffff0000000000000000000000000000000000000000000000000000000082169050919050565b6000819050613a0e82613bc3565b919050565b600073ffffffffffffffffffffffffffffffffffffffff82169050919050565b6000819050919050565b6000613a4882613a00565b9050919050565b82818337600083830152505050565b60005b83811015613a7c578082015181840152602081019050613a61565b83811115613a8b576000848401525b50505050565b6000613a9c82613a33565b91506000821415613ab057613aaf613af6565b5b600182039050919050565b6000819050919050565b6000613ad082613a33565b9150613adb83613a33565b925082613aeb57613aea613b25565b5b828206905092915050565b7f4e487b7100000000000000000000000000000000000000000000000000000000600052601160045260246000fd5b7f4e487b7100000000000000000000000000000000000000000000000000000000600052601260045260246000fd5b7f4e487b7100000000000000000000000000000000000000000000000000000000600052602160045260246000fd5b7f4e487b7100000000000000000000000000000000000000000000000000000000600052604160045260246000fd5b6000601f19601f8301169050919050565b60028110613bd457613bd3613b54565b5b50565b613be08161399a565b8114613beb57600080fd5b50565b613bf7816139ac565b8114613c0257600080fd5b50565b613c0e816139be565b8114613c1957600080fd5b50565b613c25816139ca565b8114613c3057600080fd5b50565b600c8110613c4057600080fd5b50565b613c4c81613a33565b8114613c5757600080fd5b5056fea2646970667358221220c8ad0ecb3b324a46c5f1b6b17ce0110d054f37b7f68cd5ab4b4992fc5f9ccd6f64736f6c63430008000033",
  "linkReferences": {},
  "deployedLinkReferences": {}
}