{
  "_format": "hh-sol-artifact-1",
  "contractName": "MockCoinSpender",
  "sourceName": "contracts/MockCoinSpender.sol",
  "abi": [
    {
      "inputs": [
        {
          "internalType": "address",
          "name": "recipient",
          "type": "address"
        }
      ],
      "stateMutability": "nonpayable",
      "type": "constructor"
    },
    {
      "inputs": [
        {
          "internalType": "address",
          "name": "from",
          "type": "address"
        },
        {
          "internalType": "uint256",
          "name": "amount",
          "type": "uint256"
        },
        {
          "internalType": "address",
          "name": "_contract",
          "type": "address"
        },
        {
          "internalType": "bytes",
          "name": "",
          "type": "bytes"
        }
      ],
      "name": "receiveApproval",
      "outputs": [],
      "stateMutability": "nonpayable",
      "type": "function"
    }
  ],
  "bytecode": "0x608060405234801561001057600080fd5b5060405161045b38038061045b8339818101604052810190610032919061008d565b806000806101000a81548173ffffffffffffffffffffffffffffffffffffffff021916908373ffffffffffffffffffffffffffffffffffffffff160217905550506100ff565b600081519050610087816100e8565b92915050565b60006020828403121561009f57600080fd5b60006100ad84828501610078565b91505092915050565b60006100c1826100c8565b9050919050565b600073ffffffffffffffffffffffffffffffffffffffff82169050919050565b6100f1816100b6565b81146100fc57600080fd5b50565b61034d8061010e6000396000f3fe608060405234801561001057600080fd5b506004361061002b5760003560e01c80638f4ffcb114610030575b600080fd5b61004a6004803603810190610045919061018c565b61004c565b005b8273ffffffffffffffffffffffffffffffffffffffff166323b872dd8660008054906101000a900473ffffffffffffffffffffffffffffffffffffffff16876040518463ffffffff1660e01b81526004016100a993929190610253565b602060405180830381600087803b1580156100c357600080fd5b505af11580156100d7573d6000803e3d6000fd5b505050506040513d601f19601f820116820180604052508101906100fb919061020c565b505050505050565b600081359050610112816102d2565b92915050565b600081519050610127816102e9565b92915050565b60008083601f84011261013f57600080fd5b8235905067ffffffffffffffff81111561015857600080fd5b60208301915083600182028301111561017057600080fd5b9250929050565b60008135905061018681610300565b92915050565b6000806000806000608086880312156101a457600080fd5b60006101b288828901610103565b95505060206101c388828901610177565b94505060406101d488828901610103565b935050606086013567ffffffffffffffff8111156101f157600080fd5b6101fd8882890161012d565b92509250509295509295909350565b60006020828403121561021e57600080fd5b600061022c84828501610118565b91505092915050565b61023e8161028a565b82525050565b61024d816102c8565b82525050565b60006060820190506102686000830186610235565b6102756020830185610235565b6102826040830184610244565b949350505050565b6000610295826102a8565b9050919050565b60008115159050919050565b600073ffffffffffffffffffffffffffffffffffffffff82169050919050565b6000819050919050565b6102db8161028a565b81146102e657600080fd5b50565b6102f28161029c565b81146102fd57600080fd5b50565b610309816102c8565b811461031457600080fd5b5056fea264697066735822122012fd0e28ddfd1c5cb7737c228bf0aaf17b921efe6360204f46f143994bfceffa64736f6c63430008000033",
  "linkReferences": {},
  "deployedLinkReferences": {}
}