{
  "_format": "hh-sol-artifact-1",
  "contractName": "DragonCoin",
  "sourceName": "contracts/DragonCoin.sol",
  "abi": [
    {
      "inputs": [
        {
          "internalType": "uint256",
          "name": "initialSupply",
          "type": "uint256"
        }
      ],
      "stateMutability": "nonpayable",
      "type": "constructor"
    },
    {
      "anonymous": false,
      "inputs": [
        {
          "indexed": true,
          "internalType": "address",
          "name": "owner",
          "type": "address"
        },
        {
          "indexed": true,
          "internalType": "address",
          "name": "spender",
          "type": "address"
        },
        {
          "indexed": false,
          "internalType": "uint256",
          "name": "value",
          "type": "uint256"
        }
      ],
      "name": "Approval",
      "type": "event"
    },
    {
      "anonymous": false,
      "inputs": [
        {
          "indexed": false,
          "internalType": "address",
          "name": "account",
          "type": "address"
        }
      ],
      "name": "Paused",
      "type": "event"
    },
    {
      "anonymous": false,
      "inputs": [
        {
          "indexed": true,
          "internalType": "bytes32",
          "name": "role",
          "type": "bytes32"
        },
        {
          "indexed": true,
          "internalType": "bytes32",
          "name": "previousAdminRole",
          "type": "bytes32"
        },
        {
          "indexed": true,
          "internalType": "bytes32",
          "name": "newAdminRole",
          "type": "bytes32"
        }
      ],
      "name": "RoleAdminChanged",
      "type": "event"
    },
    {
      "anonymous": false,
      "inputs": [
        {
          "indexed": true,
          "internalType": "bytes32",
          "name": "role",
          "type": "bytes32"
        },
        {
          "indexed": true,
          "internalType": "address",
          "name": "account",
          "type": "address"
        },
        {
          "indexed": true,
          "internalType": "address",
          "name": "sender",
          "type": "address"
        }
      ],
      "name": "RoleGranted",
      "type": "event"
    },
    {
      "anonymous": false,
      "inputs": [
        {
          "indexed": true,
          "internalType": "bytes32",
          "name": "role",
          "type": "bytes32"
        },
        {
          "indexed": true,
          "internalType": "address",
          "name": "account",
          "type": "address"
        },
        {
          "indexed": true,
          "internalType": "address",
          "name": "sender",
          "type": "address"
        }
      ],
      "name": "RoleRevoked",
      "type": "event"
    },
    {
      "anonymous": false,
      "inputs": [
        {
          "indexed": true,
          "internalType": "address",
          "name": "from",
          "type": "address"
        },
        {
          "indexed": true,
          "internalType": "address",
          "name": "to",
          "type": "address"
        },
        {
          "indexed": false,
          "internalType": "uint256",
          "name": "value",
          "type": "uint256"
        }
      ],
      "name": "Transfer",
      "type": "event"
    },
    {
      "anonymous": false,
      "inputs": [
        {
          "indexed": false,
          "internalType": "address",
          "name": "account",
          "type": "address"
        }
      ],
      "name": "Unpaused",
      "type": "event"
    },
    {
      "inputs": [],
      "name": "DEFAULT_ADMIN_ROLE",
      "outputs": [
        {
          "internalType": "bytes32",
          "name": "",
          "type": "bytes32"
        }
      ],
      "stateMutability": "view",
      "type": "function"
    },
    {
      "inputs": [],
      "name": "MINTER_ROLE",
      "outputs": [
        {
          "internalType": "bytes32",
          "name": "",
          "type": "bytes32"
        }
      ],
      "stateMutability": "view",
      "type": "function"
    },
    {
      "inputs": [],
      "name": "PAUSER_ROLE",
      "outputs": [
        {
          "internalType": "bytes32",
          "name": "",
          "type": "bytes32"
        }
      ],
      "stateMutability": "view",
      "type": "function"
    },
    {
      "inputs": [
        {
          "internalType": "address",
          "name": "owner",
          "type": "address"
        },
        {
          "internalType": "address",
          "name": "spender",
          "type": "address"
        }
      ],
      "name": "allowance",
      "outputs": [
        {
          "internalType": "uint256",
          "name": "",
          "type": "uint256"
        }
      ],
      "stateMutability": "view",
      "type": "function"
    },
    {
      "inputs": [
        {
          "internalType": "address",
          "name": "spender",
          "type": "address"
        },
        {
          "internalType": "uint256",
          "name": "amount",
          "type": "uint256"
        }
      ],
      "name": "approve",
      "outputs": [
        {
          "internalType": "bool",
          "name": "",
          "type": "bool"
        }
      ],
      "stateMutability": "nonpayable",
      "type": "function"
    },
    {
      "inputs": [
        {
          "internalType": "address",
          "name": "spender",
          "type": "address"
        },
        {
          "internalType": "uint256",
          "name": "value",
          "type": "uint256"
        },
        {
          "internalType": "bytes",
          "name": "extraData",
          "type": "bytes"
        }
      ],
      "name": "approveAndCall",
      "outputs": [
        {
          "internalType": "bool",
          "name": "success",
          "type": "bool"
        }
      ],
      "stateMutability": "nonpayable",
      "type": "function"
    },
    {
      "inputs": [
        {
          "internalType": "address",
          "name": "account",
          "type": "address"
        }
      ],
      "name": "balanceOf",
      "outputs": [
        {
          "internalType": "uint256",
          "name": "",
          "type": "uint256"
        }
      ],
      "stateMutability": "view",
      "type": "function"
    },
    {
      "inputs": [
        {
          "internalType": "uint256",
          "name": "amount",
          "type": "uint256"
        }
      ],
      "name": "burn",
      "outputs": [],
      "stateMutability": "nonpayable",
      "type": "function"
    },
    {
      "inputs": [
        {
          "internalType": "address",
          "name": "account",
          "type": "address"
        },
        {
          "internalType": "uint256",
          "name": "amount",
          "type": "uint256"
        }
      ],
      "name": "burnFrom",
      "outputs": [],
      "stateMutability": "nonpayable",
      "type": "function"
    },
    {
      "inputs": [],
      "name": "decimals",
      "outputs": [
        {
          "internalType": "uint8",
          "name": "",
          "type": "uint8"
        }
      ],
      "stateMutability": "view",
      "type": "function"
    },
    {
      "inputs": [
        {
          "internalType": "address",
          "name": "spender",
          "type": "address"
        },
        {
          "internalType": "uint256",
          "name": "subtractedValue",
          "type": "uint256"
        }
      ],
      "name": "decreaseAllowance",
      "outputs": [
        {
          "internalType": "bool",
          "name": "",
          "type": "bool"
        }
      ],
      "stateMutability": "nonpayable",
      "type": "function"
    },
    {
      "inputs": [
        {
          "internalType": "bytes32",
          "name": "role",
          "type": "bytes32"
        }
      ],
      "name": "getRoleAdmin",
      "outputs": [
        {
          "internalType": "bytes32",
          "name": "",
          "type": "bytes32"
        }
      ],
      "stateMutability": "view",
      "type": "function"
    },
    {
      "inputs": [
        {
          "internalType": "bytes32",
          "name": "role",
          "type": "bytes32"
        },
        {
          "internalType": "uint256",
          "name": "index",
          "type": "uint256"
        }
      ],
      "name": "getRoleMember",
      "outputs": [
        {
          "internalType": "address",
          "name": "",
          "type": "address"
        }
      ],
      "stateMutability": "view",
      "type": "function"
    },
    {
      "inputs": [
        {
          "internalType": "bytes32",
          "name": "role",
          "type": "bytes32"
        }
      ],
      "name": "getRoleMemberCount",
      "outputs": [
        {
          "internalType": "uint256",
          "name": "",
          "type": "uint256"
        }
      ],
      "stateMutability": "view",
      "type": "function"
    },
    {
      "inputs": [
        {
          "internalType": "bytes32",
          "name": "role",
          "type": "bytes32"
        },
        {
          "internalType": "address",
          "name": "account",
          "type": "address"
        }
      ],
      "name": "grantRole",
      "outputs": [],
      "stateMutability": "nonpayable",
      "type": "function"
    },
    {
      "inputs": [
        {
          "internalType": "bytes32",
          "name": "role",
          "type": "bytes32"
        },
        {
          "internalType": "address",
          "name": "account",
          "type": "address"
        }
      ],
      "name": "hasRole",
      "outputs": [
        {
          "internalType": "bool",
          "name": "",
          "type": "bool"
        }
      ],
      "stateMutability": "view",
      "type": "function"
    },
    {
      "inputs": [
        {
          "internalType": "address",
          "name": "spender",
          "type": "address"
        },
        {
          "internalType": "uint256",
          "name": "addedValue",
          "type": "uint256"
        }
      ],
      "name": "increaseAllowance",
      "outputs": [
        {
          "internalType": "bool",
          "name": "",
          "type": "bool"
        }
      ],
      "stateMutability": "nonpayable",
      "type": "function"
    },
    {
      "inputs": [
        {
          "internalType": "address",
          "name": "to",
          "type": "address"
        },
        {
          "internalType": "uint256",
          "name": "amount",
          "type": "uint256"
        }
      ],
      "name": "mint",
      "outputs": [],
      "stateMutability": "nonpayable",
      "type": "function"
    },
    {
      "inputs": [],
      "name": "name",
      "outputs": [
        {
          "internalType": "string",
          "name": "",
          "type": "string"
        }
      ],
      "stateMutability": "view",
      "type": "function"
    },
    {
      "inputs": [],
      "name": "pause",
      "outputs": [],
      "stateMutability": "nonpayable",
      "type": "function"
    },
    {
      "inputs": [],
      "name": "paused",
      "outputs": [
        {
          "internalType": "bool",
          "name": "",
          "type": "bool"
        }
      ],
      "stateMutability": "view",
      "type": "function"
    },
    {
      "inputs": [
        {
          "internalType": "bytes32",
          "name": "role",
          "type": "bytes32"
        },
        {
          "internalType": "address",
          "name": "account",
          "type": "address"
        }
      ],
      "name": "renounceRole",
      "outputs": [],
      "stateMutability": "nonpayable",
      "type": "function"
    },
    {
      "inputs": [
        {
          "internalType": "bytes32",
          "name": "role",
          "type": "bytes32"
        },
        {
          "internalType": "address",
          "name": "account",
          "type": "address"
        }
      ],
      "name": "revokeRole",
      "outputs": [],
      "stateMutability": "nonpayable",
      "type": "function"
    },
    {
      "inputs": [
        {
          "internalType": "bytes4",
          "name": "interfaceId",
          "type": "bytes4"
        }
      ],
      "name": "supportsInterface",
      "outputs": [
        {
          "internalType": "bool",
          "name": "",
          "type": "bool"
        }
      ],
      "stateMutability": "view",
      "type": "function"
    },
    {
      "inputs": [],
      "name": "symbol",
      "outputs": [
        {
          "internalType": "string",
          "name": "",
          "type": "string"
        }
      ],
      "stateMutability": "view",
      "type": "function"
    },
    {
      "inputs": [],
      "name": "totalSupply",
      "outputs": [
        {
          "internalType": "uint256",
          "name": "",
          "type": "uint256"
        }
      ],
      "stateMutability": "view",
      "type": "function"
    },
    {
      "inputs": [
        {
          "internalType": "address",
          "name": "recipient",
          "type": "address"
        },
        {
          "internalType": "uint256",
          "name": "amount",
          "type": "uint256"
        }
      ],
      "name": "transfer",
      "outputs": [
        {
          "internalType": "bool",
          "name": "",
          "type": "bool"
        }
      ],
      "stateMutability": "nonpayable",
      "type": "function"
    },
    {
      "inputs": [
        {
          "internalType": "address",
          "name": "sender",
          "type": "address"
        },
        {
          "internalType": "address",
          "name": "recipient",
          "type": "address"
        },
        {
          "internalType": "uint256",
          "name": "amount",
          "type": "uint256"
        }
      ],
      "name": "transferFrom",
      "outputs": [
        {
          "internalType": "bool",
          "name": "",
          "type": "bool"
        }
      ],
      "stateMutability": "nonpayable",
      "type": "function"
    },
    {
      "inputs": [],
      "name": "unpause",
      "outputs": [],
      "stateMutability": "nonpayable",
      "type": "function"
    }
  ],
  "bytecode": "0x60806040523480156200001157600080fd5b5060405162003fb438038062003fb483398181016040528101906200003791906200073a565b6040518060400160405280601281526020017f43727970746f447261676f6e7320436f696e00000000000000000000000000008152506040518060400160405280600381526020017f434443000000000000000000000000000000000000000000000000000000000081525081818160059080519060200190620000bd92919062000673565b508060069080519060200190620000d692919062000673565b5050506000600760006101000a81548160ff021916908315150217905550620001186000801b6200010c620001b560201b60201c565b620001bd60201b60201c565b620001597f9f2df0fed2c77648de5860a4cc508cd0818c85b8b8a1ab4ceeef8d981c8956a66200014d620001b560201b60201c565b620001bd60201b60201c565b6200019a7f65d7a28e3265b37a6474929f336521b332c1681b933f6cb9f3376673440d862a6200018e620001b560201b60201c565b620001bd60201b60201c565b5050620001ae3382620001d360201b60201c565b50620009a8565b600033905090565b620001cf82826200034d60201b60201c565b5050565b600073ffffffffffffffffffffffffffffffffffffffff168273ffffffffffffffffffffffffffffffffffffffff16141562000246576040517f08c379a00000000000000000000000000000000000000000000000000000000081526004016200023d9062000821565b60405180910390fd5b6200025a600083836200039560201b60201c565b80600460008282546200026e919062000893565b9250508190555080600260008473ffffffffffffffffffffffffffffffffffffffff1673ffffffffffffffffffffffffffffffffffffffff1681526020019081526020016000206000828254620002c6919062000893565b925050819055508173ffffffffffffffffffffffffffffffffffffffff16600073ffffffffffffffffffffffffffffffffffffffff167fddf252ad1be2c89b69c2b068fc378daa952ba7f163c4a11628f55a4df523b3ef836040516200032d919062000865565b60405180910390a36200034960008383620003b260201b60201c565b5050565b620003648282620003b760201b620010881760201c565b620003908160016000858152602001908152602001600020620004a860201b620011681790919060201c565b505050565b620003ad838383620004e060201b620011981760201c565b505050565b505050565b620003c982826200055060201b60201c565b620004a457600160008084815260200190815260200160002060000160008373ffffffffffffffffffffffffffffffffffffffff1673ffffffffffffffffffffffffffffffffffffffff16815260200190815260200160002060006101000a81548160ff02191690831515021790555062000449620001b560201b60201c565b73ffffffffffffffffffffffffffffffffffffffff168173ffffffffffffffffffffffffffffffffffffffff16837f2f8788117e7eff1d82e926ec794901d17c78024a50270940304540a733656f0d60405160405180910390a45b5050565b6000620004d8836000018373ffffffffffffffffffffffffffffffffffffffff1660001b620005ba60201b60201c565b905092915050565b620004f88383836200063460201b620011f01760201c565b620005086200063960201b60201c565b156200054b576040517f08c379a0000000000000000000000000000000000000000000000000000000008152600401620005429062000843565b60405180910390fd5b505050565b600080600084815260200190815260200160002060000160008373ffffffffffffffffffffffffffffffffffffffff1673ffffffffffffffffffffffffffffffffffffffff16815260200190815260200160002060009054906101000a900460ff16905092915050565b6000620005ce83836200065060201b60201c565b620006295782600001829080600181540180825580915050600190039060005260206000200160009091909190915055826000018054905083600101600084815260200190815260200160002081905550600190506200062e565b600090505b92915050565b505050565b6000600760009054906101000a900460ff16905090565b600080836001016000848152602001908152602001600020541415905092915050565b8280546200068190620008fa565b90600052602060002090601f016020900481019282620006a55760008555620006f1565b82601f10620006c057805160ff1916838001178555620006f1565b82800160010185558215620006f1579182015b82811115620006f0578251825591602001919060010190620006d3565b5b50905062000700919062000704565b5090565b5b808211156200071f57600081600090555060010162000705565b5090565b60008151905062000734816200098e565b92915050565b6000602082840312156200074d57600080fd5b60006200075d8482850162000723565b91505092915050565b600062000775601f8362000882565b91507f45524332303a206d696e7420746f20746865207a65726f2061646472657373006000830152602082019050919050565b6000620007b7602a8362000882565b91507f45524332305061757361626c653a20746f6b656e207472616e7366657220776860008301527f696c6520706175736564000000000000000000000000000000000000000000006020830152604082019050919050565b6200081b81620008f0565b82525050565b600060208201905081810360008301526200083c8162000766565b9050919050565b600060208201905081810360008301526200085e81620007a8565b9050919050565b60006020820190506200087c600083018462000810565b92915050565b600082825260208201905092915050565b6000620008a082620008f0565b9150620008ad83620008f0565b9250827fffffffffffffffffffffffffffffffffffffffffffffffffffffffffffffffff03821115620008e557620008e462000930565b5b828201905092915050565b6000819050919050565b600060028204905060018216806200091357607f821691505b602082108114156200092a57620009296200095f565b5b50919050565b7f4e487b7100000000000000000000000000000000000000000000000000000000600052601160045260246000fd5b7f4e487b7100000000000000000000000000000000000000000000000000000000600052602260045260246000fd5b6200099981620008f0565b8114620009a557600080fd5b50565b6135fc80620009b86000396000f3fe608060405234801561001057600080fd5b50600436106101cf5760003560e01c806370a0823111610104578063a457c2d7116100a2578063d539139311610071578063d539139314610568578063d547741f14610586578063dd62ed3e146105a2578063e63ab1e9146105d2576101cf565b8063a457c2d7146104a8578063a9059cbb146104d8578063ca15c87314610508578063cae9ca5114610538576101cf565b80639010d07c116100de5780639010d07c1461040c57806391d148541461043c57806395d89b411461046c578063a217fddf1461048a576101cf565b806370a08231146103b657806379cc6790146103e65780638456cb5914610402576101cf565b8063313ce567116101715780633f4ba83a1161014b5780633f4ba83a1461035657806340c10f191461036057806342966c681461037c5780635c975abb14610398576101cf565b8063313ce567146102ec57806336568abe1461030a5780633950935114610326576101cf565b806318160ddd116101ad57806318160ddd1461025257806323b872dd14610270578063248a9ca3146102a05780632f2ff15d146102d0576101cf565b806301ffc9a7146101d457806306fdde0314610204578063095ea7b314610222575b600080fd5b6101ee60048036038101906101e99190612619565b6105f0565b6040516101fb9190612fb2565b60405180910390f35b61020c61066a565b6040516102199190612fe8565b60405180910390f35b61023c600480360381019061023791906124d0565b6106fc565b6040516102499190612fb2565b60405180910390f35b61025a61071a565b604051610267919061326a565b60405180910390f35b61028a60048036038101906102859190612481565b610724565b6040516102979190612fb2565b60405180910390f35b6102ba60048036038101906102b59190612578565b61081c565b6040516102c79190612fcd565b60405180910390f35b6102ea60048036038101906102e591906125a1565b61083b565b005b6102f4610864565b6040516103019190613285565b60405180910390f35b610324600480360381019061031f91906125a1565b61086d565b005b610340600480360381019061033b91906124d0565b6108f0565b60405161034d9190612fb2565b60405180910390f35b61035e61099c565b005b61037a600480360381019061037591906124d0565b610a16565b005b61039660048036038101906103919190612642565b610a94565b005b6103a0610aa8565b6040516103ad9190612fb2565b60405180910390f35b6103d060048036038101906103cb919061241c565b610abf565b6040516103dd919061326a565b60405180910390f35b61040060048036038101906103fb91906124d0565b610b08565b005b61040a610b83565b005b610426600480360381019061042191906125dd565b610bfd565b6040516104339190612f49565b60405180910390f35b610456600480360381019061045191906125a1565b610c2c565b6040516104639190612fb2565b60405180910390f35b610474610c96565b6040516104819190612fe8565b60405180910390f35b610492610d28565b60405161049f9190612fcd565b60405180910390f35b6104c260048036038101906104bd91906124d0565b610d2f565b6040516104cf9190612fb2565b60405180910390f35b6104f260048036038101906104ed91906124d0565b610e1a565b6040516104ff9190612fb2565b60405180910390f35b610522600480360381019061051d9190612578565b610e38565b60405161052f919061326a565b60405180910390f35b610552600480360381019061054d919061250c565b610e5c565b60405161055f9190612fb2565b60405180910390f35b610570610f90565b60405161057d9190612fcd565b60405180910390f35b6105a0600480360381019061059b91906125a1565b610fb4565b005b6105bc60048036038101906105b79190612445565b610fdd565b6040516105c9919061326a565b60405180910390f35b6105da611064565b6040516105e79190612fcd565b60405180910390f35b60007f5a05180f000000000000000000000000000000000000000000000000000000007bffffffffffffffffffffffffffffffffffffffffffffffffffffffff1916827bffffffffffffffffffffffffffffffffffffffffffffffffffffffff191614806106635750610662826111f5565b5b9050919050565b606060058054610679906134c9565b80601f01602080910402602001604051908101604052809291908181526020018280546106a5906134c9565b80156106f25780601f106106c7576101008083540402835291602001916106f2565b820191906000526020600020905b8154815290600101906020018083116106d557829003601f168201915b5050505050905090565b600061071061070961126f565b8484611277565b6001905092915050565b6000600454905090565b6000610731848484611442565b6000600360008673ffffffffffffffffffffffffffffffffffffffff1673ffffffffffffffffffffffffffffffffffffffff168152602001908152602001600020600061077c61126f565b73ffffffffffffffffffffffffffffffffffffffff1673ffffffffffffffffffffffffffffffffffffffff168152602001908152602001600020549050828110156107fc576040517f08c379a00000000000000000000000000000000000000000000000000000000081526004016107f39061310a565b60405180910390fd5b6108108561080861126f565b858403611277565b60019150509392505050565b6000806000838152602001908152602001600020600101549050919050565b6108448261081c565b6108558161085061126f565b6116c6565b61085f8383611763565b505050565b60006012905090565b61087561126f565b73ffffffffffffffffffffffffffffffffffffffff168173ffffffffffffffffffffffffffffffffffffffff16146108e2576040517f08c379a00000000000000000000000000000000000000000000000000000000081526004016108d99061320a565b60405180910390fd5b6108ec8282611797565b5050565b60006109926108fd61126f565b84846003600061090b61126f565b73ffffffffffffffffffffffffffffffffffffffff1673ffffffffffffffffffffffffffffffffffffffff16815260200190815260200160002060008873ffffffffffffffffffffffffffffffffffffffff1673ffffffffffffffffffffffffffffffffffffffff1681526020019081526020016000205461098d91906132ee565b611277565b6001905092915050565b6109cd7f65d7a28e3265b37a6474929f336521b332c1681b933f6cb9f3376673440d862a6109c861126f565b610c2c565b610a0c576040517f08c379a0000000000000000000000000000000000000000000000000000000008152600401610a039061308a565b60405180910390fd5b610a146117cb565b565b610a477f9f2df0fed2c77648de5860a4cc508cd0818c85b8b8a1ab4ceeef8d981c8956a6610a4261126f565b610c2c565b610a86576040517f08c379a0000000000000000000000000000000000000000000000000000000008152600401610a7d9061312a565b60405180910390fd5b610a90828261186d565b5050565b610aa5610a9f61126f565b826119ce565b50565b6000600760009054906101000a900460ff16905090565b6000600260008373ffffffffffffffffffffffffffffffffffffffff1673ffffffffffffffffffffffffffffffffffffffff168152602001908152602001600020549050919050565b6000610b1b83610b1661126f565b610fdd565b905081811015610b60576040517f08c379a0000000000000000000000000000000000000000000000000000000008152600401610b579061314a565b60405180910390fd5b610b7483610b6c61126f565b848403611277565b610b7e83836119ce565b505050565b610bb47f65d7a28e3265b37a6474929f336521b332c1681b933f6cb9f3376673440d862a610baf61126f565b610c2c565b610bf3576040517f08c379a0000000000000000000000000000000000000000000000000000000008152600401610bea906131ca565b60405180910390fd5b610bfb611ba7565b565b6000610c248260016000868152602001908152602001600020611c4a90919063ffffffff16565b905092915050565b600080600084815260200190815260200160002060000160008373ffffffffffffffffffffffffffffffffffffffff1673ffffffffffffffffffffffffffffffffffffffff16815260200190815260200160002060009054906101000a900460ff16905092915050565b606060068054610ca5906134c9565b80601f0160208091040260200160405190810160405280929190818152602001828054610cd1906134c9565b8015610d1e5780601f10610cf357610100808354040283529160200191610d1e565b820191906000526020600020905b815481529060010190602001808311610d0157829003601f168201915b5050505050905090565b6000801b81565b60008060036000610d3e61126f565b73ffffffffffffffffffffffffffffffffffffffff1673ffffffffffffffffffffffffffffffffffffffff16815260200190815260200160002060008573ffffffffffffffffffffffffffffffffffffffff1673ffffffffffffffffffffffffffffffffffffffff16815260200190815260200160002054905082811015610dfb576040517f08c379a0000000000000000000000000000000000000000000000000000000008152600401610df2906131ea565b60405180910390fd5b610e0f610e0661126f565b85858403611277565b600191505092915050565b6000610e2e610e2761126f565b8484611442565b6001905092915050565b6000610e5560016000848152602001908152602001600020611c64565b9050919050565b6000610e70610e6961126f565b8686611277565b60008573ffffffffffffffffffffffffffffffffffffffff16610e9161126f565b86308787604051602401610ea9959493929190612f64565b6040516020818303038152906040527f8f4ffcb1000000000000000000000000000000000000000000000000000000007bffffffffffffffffffffffffffffffffffffffffffffffffffffffff19166020820180517bffffffffffffffffffffffffffffffffffffffffffffffffffffffff8381831617835250505050604051610f339190612ef8565b6000604051808303816000865af19150503d8060008114610f70576040519150601f19603f3d011682016040523d82523d6000602084013e610f75565b606091505b5050905080610f8357600080fd5b6001915050949350505050565b7f9f2df0fed2c77648de5860a4cc508cd0818c85b8b8a1ab4ceeef8d981c8956a681565b610fbd8261081c565b610fce81610fc961126f565b6116c6565b610fd88383611797565b505050565b6000600360008473ffffffffffffffffffffffffffffffffffffffff1673ffffffffffffffffffffffffffffffffffffffff16815260200190815260200160002060008373ffffffffffffffffffffffffffffffffffffffff1673ffffffffffffffffffffffffffffffffffffffff16815260200190815260200160002054905092915050565b7f65d7a28e3265b37a6474929f336521b332c1681b933f6cb9f3376673440d862a81565b6110928282610c2c565b61116457600160008084815260200190815260200160002060000160008373ffffffffffffffffffffffffffffffffffffffff1673ffffffffffffffffffffffffffffffffffffffff16815260200190815260200160002060006101000a81548160ff02191690831515021790555061110961126f565b73ffffffffffffffffffffffffffffffffffffffff168173ffffffffffffffffffffffffffffffffffffffff16837f2f8788117e7eff1d82e926ec794901d17c78024a50270940304540a733656f0d60405160405180910390a45b5050565b6000611190836000018373ffffffffffffffffffffffffffffffffffffffff1660001b611c79565b905092915050565b6111a38383836111f0565b6111ab610aa8565b156111eb576040517f08c379a00000000000000000000000000000000000000000000000000000000081526004016111e29061324a565b60405180910390fd5b505050565b505050565b60007f7965db0b000000000000000000000000000000000000000000000000000000007bffffffffffffffffffffffffffffffffffffffffffffffffffffffff1916827bffffffffffffffffffffffffffffffffffffffffffffffffffffffff19161480611268575061126782611ce9565b5b9050919050565b600033905090565b600073ffffffffffffffffffffffffffffffffffffffff168373ffffffffffffffffffffffffffffffffffffffff1614156112e7576040517f08c379a00000000000000000000000000000000000000000000000000000000081526004016112de906131aa565b60405180910390fd5b600073ffffffffffffffffffffffffffffffffffffffff168273ffffffffffffffffffffffffffffffffffffffff161415611357576040517f08c379a000000000000000000000000000000000000000000000000000000000815260040161134e906130aa565b60405180910390fd5b80600360008573ffffffffffffffffffffffffffffffffffffffff1673ffffffffffffffffffffffffffffffffffffffff16815260200190815260200160002060008473ffffffffffffffffffffffffffffffffffffffff1673ffffffffffffffffffffffffffffffffffffffff168152602001908152602001600020819055508173ffffffffffffffffffffffffffffffffffffffff168373ffffffffffffffffffffffffffffffffffffffff167f8c5be1e5ebec7d5bd14f71427d1e84f3dd0314c0f7b2291e5b200ac8c7c3b92583604051611435919061326a565b60405180910390a3505050565b600073ffffffffffffffffffffffffffffffffffffffff168373ffffffffffffffffffffffffffffffffffffffff1614156114b2576040517f08c379a00000000000000000000000000000000000000000000000000000000081526004016114a99061318a565b60405180910390fd5b600073ffffffffffffffffffffffffffffffffffffffff168273ffffffffffffffffffffffffffffffffffffffff161415611522576040517f08c379a00000000000000000000000000000000000000000000000000000000081526004016115199061302a565b60405180910390fd5b61152d838383611d53565b6000600260008573ffffffffffffffffffffffffffffffffffffffff1673ffffffffffffffffffffffffffffffffffffffff168152602001908152602001600020549050818110156115b4576040517f08c379a00000000000000000000000000000000000000000000000000000000081526004016115ab906130ca565b60405180910390fd5b818103600260008673ffffffffffffffffffffffffffffffffffffffff1673ffffffffffffffffffffffffffffffffffffffff1681526020019081526020016000208190555081600260008573ffffffffffffffffffffffffffffffffffffffff1673ffffffffffffffffffffffffffffffffffffffff168152602001908152602001600020600082825461164991906132ee565b925050819055508273ffffffffffffffffffffffffffffffffffffffff168473ffffffffffffffffffffffffffffffffffffffff167fddf252ad1be2c89b69c2b068fc378daa952ba7f163c4a11628f55a4df523b3ef846040516116ad919061326a565b60405180910390a36116c0848484611d63565b50505050565b6116d08282610c2c565b61175f576116f58173ffffffffffffffffffffffffffffffffffffffff166014611d68565b6117038360001c6020611d68565b604051602001611714929190612f0f565b6040516020818303038152906040526040517f08c379a00000000000000000000000000000000000000000000000000000000081526004016117569190612fe8565b60405180910390fd5b5050565b61176d8282611088565b611792816001600085815260200190815260200160002061116890919063ffffffff16565b505050565b6117a18282612062565b6117c6816001600085815260200190815260200160002061214390919063ffffffff16565b505050565b6117d3610aa8565b611812576040517f08c379a00000000000000000000000000000000000000000000000000000000081526004016118099061304a565b60405180910390fd5b6000600760006101000a81548160ff0219169083151502179055507f5db9ee0a495bf2e6ff9c91a7834c1ba4fdd244a5e8aa4e537bd38aeae4b073aa61185661126f565b6040516118639190612f49565b60405180910390a1565b600073ffffffffffffffffffffffffffffffffffffffff168273ffffffffffffffffffffffffffffffffffffffff1614156118dd576040517f08c379a00000000000000000000000000000000000000000000000000000000081526004016118d49061322a565b60405180910390fd5b6118e960008383611d53565b80600460008282546118fb91906132ee565b9250508190555080600260008473ffffffffffffffffffffffffffffffffffffffff1673ffffffffffffffffffffffffffffffffffffffff168152602001908152602001600020600082825461195191906132ee565b925050819055508173ffffffffffffffffffffffffffffffffffffffff16600073ffffffffffffffffffffffffffffffffffffffff167fddf252ad1be2c89b69c2b068fc378daa952ba7f163c4a11628f55a4df523b3ef836040516119b6919061326a565b60405180910390a36119ca60008383611d63565b5050565b600073ffffffffffffffffffffffffffffffffffffffff168273ffffffffffffffffffffffffffffffffffffffff161415611a3e576040517f08c379a0000000000000000000000000000000000000000000000000000000008152600401611a359061316a565b60405180910390fd5b611a4a82600083611d53565b6000600260008473ffffffffffffffffffffffffffffffffffffffff1673ffffffffffffffffffffffffffffffffffffffff16815260200190815260200160002054905081811015611ad1576040517f08c379a0000000000000000000000000000000000000000000000000000000008152600401611ac89061306a565b60405180910390fd5b818103600260008573ffffffffffffffffffffffffffffffffffffffff1673ffffffffffffffffffffffffffffffffffffffff168152602001908152602001600020819055508160046000828254611b29919061339e565b92505081905550600073ffffffffffffffffffffffffffffffffffffffff168373ffffffffffffffffffffffffffffffffffffffff167fddf252ad1be2c89b69c2b068fc378daa952ba7f163c4a11628f55a4df523b3ef84604051611b8e919061326a565b60405180910390a3611ba283600084611d63565b505050565b611baf610aa8565b15611bef576040517f08c379a0000000000000000000000000000000000000000000000000000000008152600401611be6906130ea565b60405180910390fd5b6001600760006101000a81548160ff0219169083151502179055507f62e78cea01bee320cd4e420270b5ea74000d11b0c9f74754ebdbfc544b05a258611c3361126f565b604051611c409190612f49565b60405180910390a1565b6000611c598360000183612173565b60001c905092915050565b6000611c72826000016121c4565b9050919050565b6000611c8583836121d5565b611cde578260000182908060018154018082558091505060019003906000526020600020016000909190919091505582600001805490508360010160008481526020019081526020016000208190555060019050611ce3565b600090505b92915050565b60007f01ffc9a7000000000000000000000000000000000000000000000000000000007bffffffffffffffffffffffffffffffffffffffffffffffffffffffff1916827bffffffffffffffffffffffffffffffffffffffffffffffffffffffff1916149050919050565b611d5e838383611198565b505050565b505050565b606060006002836002611d7b9190613344565b611d8591906132ee565b67ffffffffffffffff811115611dc4577f4e487b7100000000000000000000000000000000000000000000000000000000600052604160045260246000fd5b6040519080825280601f01601f191660200182016040528015611df65781602001600182028036833780820191505090505b5090507f300000000000000000000000000000000000000000000000000000000000000081600081518110611e54577f4e487b7100000000000000000000000000000000000000000000000000000000600052603260045260246000fd5b60200101907effffffffffffffffffffffffffffffffffffffffffffffffffffffffffffff1916908160001a9053507f780000000000000000000000000000000000000000000000000000000000000081600181518110611ede577f4e487b7100000000000000000000000000000000000000000000000000000000600052603260045260246000fd5b60200101907effffffffffffffffffffffffffffffffffffffffffffffffffffffffffffff1916908160001a90535060006001846002611f1e9190613344565b611f2891906132ee565b90505b6001811115612014577f3031323334353637383961626364656600000000000000000000000000000000600f861660108110611f90577f4e487b7100000000000000000000000000000000000000000000000000000000600052603260045260246000fd5b1a60f81b828281518110611fcd577f4e487b7100000000000000000000000000000000000000000000000000000000600052603260045260246000fd5b60200101907effffffffffffffffffffffffffffffffffffffffffffffffffffffffffffff1916908160001a905350600485901c94508061200d9061349f565b9050611f2b565b5060008414612058576040517f08c379a000000000000000000000000000000000000000000000000000000000815260040161204f9061300a565b60405180910390fd5b8091505092915050565b61206c8282610c2c565b1561213f57600080600084815260200190815260200160002060000160008373ffffffffffffffffffffffffffffffffffffffff1673ffffffffffffffffffffffffffffffffffffffff16815260200190815260200160002060006101000a81548160ff0219169083151502179055506120e461126f565b73ffffffffffffffffffffffffffffffffffffffff168173ffffffffffffffffffffffffffffffffffffffff16837ff6391f5c32d9c69d2a47ea670b442974b53935d1edc7fd64eb21e047a839171b60405160405180910390a45b5050565b600061216b836000018373ffffffffffffffffffffffffffffffffffffffff1660001b6121f8565b905092915050565b60008260000182815481106121b1577f4e487b7100000000000000000000000000000000000000000000000000000000600052603260045260246000fd5b9060005260206000200154905092915050565b600081600001805490509050919050565b600080836001016000848152602001908152602001600020541415905092915050565b6000808360010160008481526020019081526020016000205490506000811461237257600060018261222a919061339e565b9050600060018660000180549050612242919061339e565b90508181146122fd576000866000018281548110612289577f4e487b7100000000000000000000000000000000000000000000000000000000600052603260045260246000fd5b90600052602060002001549050808760000184815481106122d3577f4e487b7100000000000000000000000000000000000000000000000000000000600052603260045260246000fd5b90600052602060002001819055508387600101600083815260200190815260200160002081905550505b85600001805480612337577f4e487b7100000000000000000000000000000000000000000000000000000000600052603160045260246000fd5b600190038181906000526020600020016000905590558560010160008681526020019081526020016000206000905560019350505050612378565b60009150505b92915050565b60008135905061238d8161356a565b92915050565b6000813590506123a281613581565b92915050565b6000813590506123b781613598565b92915050565b60008083601f8401126123cf57600080fd5b8235905067ffffffffffffffff8111156123e857600080fd5b60208301915083600182028301111561240057600080fd5b9250929050565b600081359050612416816135af565b92915050565b60006020828403121561242e57600080fd5b600061243c8482850161237e565b91505092915050565b6000806040838503121561245857600080fd5b60006124668582860161237e565b92505060206124778582860161237e565b9150509250929050565b60008060006060848603121561249657600080fd5b60006124a48682870161237e565b93505060206124b58682870161237e565b92505060406124c686828701612407565b9150509250925092565b600080604083850312156124e357600080fd5b60006124f18582860161237e565b925050602061250285828601612407565b9150509250929050565b6000806000806060858703121561252257600080fd5b60006125308782880161237e565b945050602061254187828801612407565b935050604085013567ffffffffffffffff81111561255e57600080fd5b61256a878288016123bd565b925092505092959194509250565b60006020828403121561258a57600080fd5b600061259884828501612393565b91505092915050565b600080604083850312156125b457600080fd5b60006125c285828601612393565b92505060206125d38582860161237e565b9150509250929050565b600080604083850312156125f057600080fd5b60006125fe85828601612393565b925050602061260f85828601612407565b9150509250929050565b60006020828403121561262b57600080fd5b6000612639848285016123a8565b91505092915050565b60006020828403121561265457600080fd5b600061266284828501612407565b91505092915050565b612674816133d2565b82525050565b612683816133e4565b82525050565b612692816133f0565b82525050565b60006126a483856132b6565b93506126b183858461345d565b6126ba83613559565b840190509392505050565b60006126d0826132a0565b6126da81856132c7565b93506126ea81856020860161346c565b80840191505092915050565b6000612701826132ab565b61270b81856132d2565b935061271b81856020860161346c565b61272481613559565b840191505092915050565b600061273a826132ab565b61274481856132e3565b935061275481856020860161346c565b80840191505092915050565b600061276d6020836132d2565b91507f537472696e67733a20686578206c656e67746820696e73756666696369656e746000830152602082019050919050565b60006127ad6023836132d2565b91507f45524332303a207472616e7366657220746f20746865207a65726f206164647260008301527f65737300000000000000000000000000000000000000000000000000000000006020830152604082019050919050565b60006128136014836132d2565b91507f5061757361626c653a206e6f74207061757365640000000000000000000000006000830152602082019050919050565b60006128536022836132d2565b91507f45524332303a206275726e20616d6f756e7420657863656564732062616c616e60008301527f63650000000000000000000000000000000000000000000000000000000000006020830152604082019050919050565b60006128b96039836132d2565b91507f45524332305072657365744d696e7465725061757365723a206d75737420686160008301527f76652070617573657220726f6c6520746f20756e7061757365000000000000006020830152604082019050919050565b600061291f6022836132d2565b91507f45524332303a20617070726f766520746f20746865207a65726f20616464726560008301527f73730000000000000000000000000000000000000000000000000000000000006020830152604082019050919050565b60006129856026836132d2565b91507f45524332303a207472616e7366657220616d6f756e742065786365656473206260008301527f616c616e636500000000000000000000000000000000000000000000000000006020830152604082019050919050565b60006129eb6010836132d2565b91507f5061757361626c653a20706175736564000000000000000000000000000000006000830152602082019050919050565b6000612a2b6028836132d2565b91507f45524332303a207472616e7366657220616d6f756e742065786365656473206160008301527f6c6c6f77616e63650000000000000000000000000000000000000000000000006020830152604082019050919050565b6000612a916036836132d2565b91507f45524332305072657365744d696e7465725061757365723a206d75737420686160008301527f7665206d696e74657220726f6c6520746f206d696e74000000000000000000006020830152604082019050919050565b6000612af76024836132d2565b91507f45524332303a206275726e20616d6f756e74206578636565647320616c6c6f7760008301527f616e6365000000000000000000000000000000000000000000000000000000006020830152604082019050919050565b6000612b5d6021836132d2565b91507f45524332303a206275726e2066726f6d20746865207a65726f2061646472657360008301527f73000000000000000000000000000000000000000000000000000000000000006020830152604082019050919050565b6000612bc36025836132d2565b91507f45524332303a207472616e736665722066726f6d20746865207a65726f20616460008301527f64726573730000000000000000000000000000000000000000000000000000006020830152604082019050919050565b6000612c296024836132d2565b91507f45524332303a20617070726f76652066726f6d20746865207a65726f2061646460008301527f72657373000000000000000000000000000000000000000000000000000000006020830152604082019050919050565b6000612c8f6037836132d2565b91507f45524332305072657365744d696e7465725061757365723a206d75737420686160008301527f76652070617573657220726f6c6520746f2070617573650000000000000000006020830152604082019050919050565b6000612cf56017836132e3565b91507f416363657373436f6e74726f6c3a206163636f756e74200000000000000000006000830152601782019050919050565b6000612d356025836132d2565b91507f45524332303a2064656372656173656420616c6c6f77616e63652062656c6f7760008301527f207a65726f0000000000000000000000000000000000000000000000000000006020830152604082019050919050565b6000612d9b6011836132e3565b91507f206973206d697373696e6720726f6c65200000000000000000000000000000006000830152601182019050919050565b6000612ddb602f836132d2565b91507f416363657373436f6e74726f6c3a2063616e206f6e6c792072656e6f756e636560008301527f20726f6c657320666f722073656c6600000000000000000000000000000000006020830152604082019050919050565b6000612e41601f836132d2565b91507f45524332303a206d696e7420746f20746865207a65726f2061646472657373006000830152602082019050919050565b6000612e81602a836132d2565b91507f45524332305061757361626c653a20746f6b656e207472616e7366657220776860008301527f696c6520706175736564000000000000000000000000000000000000000000006020830152604082019050919050565b612ee381613446565b82525050565b612ef281613450565b82525050565b6000612f0482846126c5565b915081905092915050565b6000612f1a82612ce8565b9150612f26828561272f565b9150612f3182612d8e565b9150612f3d828461272f565b91508190509392505050565b6000602082019050612f5e600083018461266b565b92915050565b6000608082019050612f79600083018861266b565b612f866020830187612eda565b612f93604083018661266b565b8181036060830152612fa6818486612698565b90509695505050505050565b6000602082019050612fc7600083018461267a565b92915050565b6000602082019050612fe26000830184612689565b92915050565b6000602082019050818103600083015261300281846126f6565b905092915050565b6000602082019050818103600083015261302381612760565b9050919050565b60006020820190508181036000830152613043816127a0565b9050919050565b6000602082019050818103600083015261306381612806565b9050919050565b6000602082019050818103600083015261308381612846565b9050919050565b600060208201905081810360008301526130a3816128ac565b9050919050565b600060208201905081810360008301526130c381612912565b9050919050565b600060208201905081810360008301526130e381612978565b9050919050565b60006020820190508181036000830152613103816129de565b9050919050565b6000602082019050818103600083015261312381612a1e565b9050919050565b6000602082019050818103600083015261314381612a84565b9050919050565b6000602082019050818103600083015261316381612aea565b9050919050565b6000602082019050818103600083015261318381612b50565b9050919050565b600060208201905081810360008301526131a381612bb6565b9050919050565b600060208201905081810360008301526131c381612c1c565b9050919050565b600060208201905081810360008301526131e381612c82565b9050919050565b6000602082019050818103600083015261320381612d28565b9050919050565b6000602082019050818103600083015261322381612dce565b9050919050565b6000602082019050818103600083015261324381612e34565b9050919050565b6000602082019050818103600083015261326381612e74565b9050919050565b600060208201905061327f6000830184612eda565b92915050565b600060208201905061329a6000830184612ee9565b92915050565b600081519050919050565b600081519050919050565b600082825260208201905092915050565b600081905092915050565b600082825260208201905092915050565b600081905092915050565b60006132f982613446565b915061330483613446565b9250827fffffffffffffffffffffffffffffffffffffffffffffffffffffffffffffffff03821115613339576133386134fb565b5b828201905092915050565b600061334f82613446565b915061335a83613446565b9250817fffffffffffffffffffffffffffffffffffffffffffffffffffffffffffffffff0483118215151615613393576133926134fb565b5b828202905092915050565b60006133a982613446565b91506133b483613446565b9250828210156133c7576133c66134fb565b5b828203905092915050565b60006133dd82613426565b9050919050565b60008115159050919050565b6000819050919050565b60007fffffffff0000000000000000000000000000000000000000000000000000000082169050919050565b600073ffffffffffffffffffffffffffffffffffffffff82169050919050565b6000819050919050565b600060ff82169050919050565b82818337600083830152505050565b60005b8381101561348a57808201518184015260208101905061346f565b83811115613499576000848401525b50505050565b60006134aa82613446565b915060008214156134be576134bd6134fb565b5b600182039050919050565b600060028204905060018216806134e157607f821691505b602082108114156134f5576134f461352a565b5b50919050565b7f4e487b7100000000000000000000000000000000000000000000000000000000600052601160045260246000fd5b7f4e487b7100000000000000000000000000000000000000000000000000000000600052602260045260246000fd5b6000601f19601f8301169050919050565b613573816133d2565b811461357e57600080fd5b50565b61358a816133f0565b811461359557600080fd5b50565b6135a1816133fa565b81146135ac57600080fd5b50565b6135b881613446565b81146135c357600080fd5b5056fea2646970667358221220f8d7ab3f812afd8e668fca5934dc56da52ee483d8b0a85c77ce14222adbb0d1e64736f6c63430008000033",
  "linkReferences": {},
  "deployedLinkReferences": {}
}